:20000000004000202D5A010001C9011001C9011001C9011001C9011001C9011001C90110D6
:1C00200001C9011001C9011001C9011001C9011001C9011001C901103FC9011089
:20003C002DE9F04F85B0804611F8010BDFF81028009008F1FD00009B182B08F1E70508F1EE
:20005C00660A08F20D1B08F5B07408F1860908F59C7608F5C67700F2E183DFE813F01900C7
:20007C006A0080018800DF03DF03F100BA0303011801F40000014701DF03DF039F01DF03DF
:20009C0082016A01C6030B030B035E02DF03A90211F8015B89F80050022208F1880000F0B9
:2000BC00D9FB0146022208F18A0000F0D3FB0146022208F18C0000F0CDFB0146022208F198
:2000DC008E0000F0C7FB99F80010B9F80220490089F800105200B9F80410A9F80220490053
:2000FC00A9F804100222B9F808100901A9F80810014608F1840000F0ADFBBAF81E10B8F893
:20011C000800091A89B247F6FF72914225DAB9F80600B9F80410B9F80820401C4900484358
:20013C00904228BF3B2080F06F8201208AF81C0018E0052208F1610000F08CFB0146022214
:20015C0008F1920000F086FBB9F80C10B8F80800091A89B247F6FF72914280F254820120BA
:20017C0089F80A000021A8F81E10307065E3AA7DD00709D4687B1A210128A97302D1FF22CF
:20019C000D213BE00D210DE200208AF8000001226A7408F1B000082200F05CFB01460222B5
:2001BC0008F1B80000F056FB08F1A80401460822204600F04FFB06460821204600F04EFB67
:2001DC0008F19C0404223146204600F043FB0421204600F043FB08F1A00000F043FB08F1C0
:2001FC00980000F043FBDFF85C06018841F080010180687B012807D1FF220421404605B0C3
:20021C00BDE8F04F10F0F2BF9AF811500F2D18BF142D03D00E2D18BF0C2D0FD19AF8104006
:20023C00404613F0AFFE0421404612F099F8012C12BF29468AF81A50FD21B3E10421B1E16C
:20025C000120E873F9E2002100208AF800108AF8060001216973287068700B21A2E1012092
:20027C002874EAE2541C00230932CD5CD65C3543CD54E65C3540C5545B1C082BF5DB9AF85C
:20029C00060000284BD0404612F00CF9CBE2002302F10906CF5C16F803C04CEA0707CF5437
:2002BC0002F1010E1EF8039007EA0907C7545B1C082BEFDB02206875E97D080703D440F666
:2002DC004800A081E08150788106CAD520891B2804BF60891B2807D1A089B0F5A47F04BFE3
:2002FC00E089B0F5A47FBCD014215BE19BF80000012811D011F8012B8BF8032008F5897046
:20031C00022200F0A7FA0146022208F58A7000F0A1FA01218BF800109AF80600002800F0BA
:20033C00AF819BF8020000282AD1404611F0E0FA79E2A87DDFF81045C10609D412208BF853
:20035C000C00404613F07DFF002819D120786DE2404614F036FD002812D1207866E208784F
:20037C0052E108782070497861709AF8100001280ED19AF811000F38012802D9C01F03D042
:20039C005BE20122727358E2387B40F0010043E205B0BDE8F04F002018F032BDA87DDFF80D
:2003BC00A844820709D40F208BF80C00404613F048FF0028E7D1207838E208784A7800EB82
:2003DC0002203082CA78887800EB022070824A79087900EB0220B082CA79887900EB022018
:2003FC00F082087A30764A7A887A02EB00227283C87A0A7B00EB0220B0838A7B487B00EBC3
:20041C000220F0830A7CC87B00EB022030848A7C487C00EB022070840A7DC87C00EB0220FE
:20043C00B084487D897D00EB0120F084DFF81C0401788A0658BF1A2213D508F5AA7004903B
:20045C00718B0391307E0290B8F808100191F08A0090B38A728A318A404610F005FFA0B17D
:20047C001E22A87D410709D40F208BF80C00404613F0E7FE00284DD12078D7E1404605B0D9
:20049C00BDE8F04F0F2116F037BD708AA9F804000022B18AA9F806100221F08AA9F8080039
:2004BC0089F80010A9F80220B8F83400C01DAAF81E00B8F83210B9F80400B0EB510F02BFE8
:2004DC00B9F80600B8F83410884202BFB9F80800B8F83610B0EB111F1DD09AF81000012898
:2004FC0004BF9AF811000F2807D09AF8150020B10F218AF81A10FE2154E0FC21404611F021
:20051C002FFFF08A0090B38A728A318A98F8060000F0B0F991E1102144E0E87D10F0090F20
:20053C0003D116208BF80C007AE14A78087802F00702104008707A7B0240FA7211D0501EB4
:20055C0002420CD0520704D5B87B10B10421F97205E0F97A0220014219D14008FBD1F87A7C
:20057C0008B9B87AF872F87A042803D1404613F0E1F9A083F87A00F081F93871A28BB97B24
:20059C00012315F011F8218B814202D208E0F872E5E7A28BB97B3879012315F005F801462D
:2005BC0079801721404605B0BDE8F04F11F0D8BE48780A78824207D100F00700104008709B
:2005DC0033D0431E18420FD01E221821404616F093FC98F80610012301221E200DF010F99D
:2005FC00387B40F0400017E1F87247F6FF728878C97800EB012038813989B8F80800091A09
:20061C0089B2914206DB282001218BF80B008BF80A1012E10120B871F97A042903D1404603
:20063C0013F088F9A083F87A0BE09AF81100162806D1BB7A98F806101A4600200DF0E0F8B2
:20065C00B87A3871A28BB97B3879012314F0ACFF218B814206D3A28BB97B3879012314F03C
:20067C00A3FF014679800121387B40F0400038733170E2E0142B04BF9AF80600002806D190
:20069C003D2101208BF80B108BF80A00D5E00A78487802EB002262828878CA7800EB02205B
:2006BC00E0824A79087900EB022020828879C97900EB0120A08208F5B07108F5B0708A8A09
:2006DC00C089B97A904288BF1046042905D140F691229042B8BF4FF42960E28BE083904270
:2006FC00B87A14BF01250025042805D1404613F021F9A28B90420AE008F5B07008F5B071C5
:20071C008089CA8AA18B904288BF1046884214BF01210021A0830D4308F5B07008F5B07137
:20073C0000894A8A218B904288BF1046884214BF012100210D432083A28BB97BB87A01239B
:20075C0014F032FF218B814206D3A28BB97BB87A012314F029FF0146798008F5B07008F5C3
:20077C00B0724189108A628B814288BF01466183914298F8063014BF0120002005438A42F4
:20079C0033490A6802EB4311628B8041121DC00F0A7610B1404616F035FE009814280ED1AF
:2007BC0045B1E08B0090638BA28B218B98F8060000F068F8152140460FF0CAFF33E01DB11A
:2007DC00387840F008003870397841F02001397033E008780E280ED00F2809D0122804D0FC
:2007FC0014280BD0162811D027E00021317224E00120307321E0032169751EE0387840F033
:20081C000200387040F01000387016E0387B40F00200387340F0100038730EE08BF80C300C
:20083C00404613F00EFD40B9074800784FF4804105B0BDE8F04F0BF033BD05B0BDE8F08FE7
:20085C00742D0020524F00206E4F0020144E0020942E0020DFF800F0D1920010DFF800F0B8
:20087C00AD710110DFF800F00D720110DFF800F021720110DFF800F0E5BE0010DFF800F02A
:20089C00BD8F0010DFF800F065BF00102DE9F84F012016F005FE012819D1DFF8A0462078F6
:2008BC0000210CF027F95FEA000804BF002018F0A7FA002088F8080008F1040012F07EFDE0
:2008DC0007F012F8050003D1812000F05FFB2EE301206871DFF86826DFF868064178491C64
:2008FC004170A87988F80A0040202178117005F597740EF05BF82860D8F854104A78D8F862
:20091C005000D1061AD5806D01680A79032A1CBF002018F075FAD8F85000816D90F87C001B
:20093C000A6802F1080601281CBF002018F068FAD8F85000D0F88410286846E0C06E0168D1
:20095C000A79032A1CBF002018F05AFAD8F85000C16E90F898000A6802F1080601281CBF8E
:20097C00002018F04DFAD8F85000DFF8DC25D0F8A0102868DFF8D495C16096F826701388CC
:20099C00032F22D8DFE807F00205101801F5B06101E001F53471C160B9F80000E087B9F8B5
:2009BC000010A5F8741113E0E3871188A5F87411C26802F5355206E0E3871188A5F874111E
:2009DC00C26802F6B872C26002E001F5B061C1603078DFF87C95DFF87CB5C0F38010207018
:2009FC000622B11C05F5947018F0C4FE042206F10E0105F1240018F0BDFED9F80000AF791C
:200A1C0000F10C03042206F10E0103EB471018F0B1FED9F80000AB7900EB4317032206F13C
:200A3C00120107F1100018F0A5FE05F12C07707DB870022206F1160105F1300018F09AFE9E
:200A5C00022206F1180105F1320018F093FE022206F11A0105F1340018F08CFE38896884E6
:200A7C00022206F11C0105F1360018F083FEB87879894000B8700901B88879814000B88017
:200A9C0089B2F8884000F88003046A8C521CDB0B5A438A4201D280B250B99BF800008021CB
:200ABC000BF0FEFB2846BDE8F44F3B2118F0B1B805F12E01284618F0D3F90520A8812846E0
:200ADC0018F018FC052206F11E0105F1610018F051FE96F823004009387017F025FF68823C
:200AFC00B8F82A10401AA08105F1610196F82300DFF8644400F01F00F873284615F0DBF82D
:200B1C00D8F854104A78D8F85000D10647BF0022806D0022C06E1C2601680A7141F62102E7
:200B3C00A9792068714342520021AB7973430344001D5980AA7972438150D8F85420DFF8AB
:200B5C001C045178CA060DD5DFF814148A7851060AD5DFF81024138841F20A418B4208BFEF
:200B7C00DFF80404C5F89C01D5F89C11284688472268A97902F10E03714358540021AA7915
:200B9C002068DFF8E83372430244D173187878B1B88868B979730120288168812846D5F88C
:200BBC009C2190472168AA7901F10E0372439854A8792168704301F10E02135C7B73D8F8A9
:200BDC0054104A78D1061AD595F8960108B918F017F9A97920687143014495F89601421EE9
:200BFC000A74A879216870430844002141742268A97902F112007143002242522AE0D8F8E7
:200C1C005010236891F8402018440274A879216870430844D8F8501091F841204274D8F8C9
:200C3C0050002168AB79403001F1120273434188D15205F5CB710078012200F003008240FD
:200C5C000A70D8F8502092F84000800814BF012002200871A979D9F800002268DFF810A3D6
:200C7C0000EB411302F1140C71434CF80130A97971431144BF4A8A61DAF81410097895F8BA
:200C9C0006E0CA074CBF102200228B074CBF202300235FEA417C4CBF4FF0400C4FF0000C38
:200CBC0009074CBF8021002113434CEA030308304FEA4E1E0B4343F00F0300F80E30D9F832
:200CDC000010A87901EB40120B215172D9F80000AA7900EB421104208872D9F80020A97937
:200CFC0002EB4110A44A1378012B02D10121C17203E0DAF828104A78C272D9F80000A979F7
:200D1C0000EB41121F201076D9F80010AA7901EB421000214176A8790DF058F9A979D9F838
:200D3C00002049015050A9794B01D05820B90721284617F06EFFFAE09048026802EB0110FA
:200D5C0000F028F98D4AA8791368D9F8001003EB00120B1D40011A50081DAA7952018058CC
:200D7C00F863AA7952018858786404219BF800000BF096FAD8F8540042782168D00648BF43
:200D9C004FF0020B0BD4A87970430844027C02F00302022A14BF4FF0040B4FF0060B734B1C
:200DBC00BA881878934410B10AB9F888834498F80D2090070AD50521284617F02AFF98F81C
:200DDC000D0000F0FD0088F80D00B4E0688A00FB0BF04FF4C872B0FBF2F2521CC5F818B0F5
:200DFC006A6140F6C41CA8792B687043009001F1080ED8680CFB0B0B0098ABEB0202A2F5D1
:200E1C00A8624EF8002001F10802A87906FB00FB52F80B00986001F10C02A87970430C31CF
:200E3C00135C03F0EF030B54A8792168704301F10C020C31135C03F07F030B54A87921685C
:200E5C00704301F10C020C31135C03F0F00343F002030B54A8792168704301F10D020D31FE
:200E7C00135C03F0F00343F001030B542068A97900F10802714350582A6810616B69D9F8C2
:200E9C000000AA7997F802E05B0000F1140152010CFB0E3303F5F6638B5095F89611042919
:200EBC0007D1A979490100F11402535803F561635350A97900EB4110C27C02F0F00242F00F
:200EDC000402C274FB88D9F80010A879DAF8307001EB4012386843436427B3FBF7F30CFB35
:200EFC0003F0A0F59660D061A87901EB4010C17E01F0F00141F00401C176A97920682A6800
:200F1C004E438119516028460E2111F029FA1C4907200870404618F0B3FCAA79002140460D
:200F3C0013F004F828681749174A41618261BDE8F14F04F0D5BCBDE8F18F00BFF72E00202D
:200F5C00F92E0020684E0020E82E0020E22D0020942E00206E4F0020902E0020A14701006D
:200F7C00742D0020504F0020D33B0100784E002074C801005C4D0020734F00208C4E0020FE
:200F9C006F4F00205562010002048080DFF800F09D920010DFF800F051A5001081680A4A89
:200FBC001160C168094A11600169094A11604169084A11608169084A1160C169074A116083
:200FDC0000790749087070478C4F0020904F0020944F0020984F0020804F0020844F002017
:040FFC009C4F0020E6
:20100000B412000018100000B1410100FDB301106DC00110FDAE011099B5011059BA0110B1
:0810200039BA01102D00000097
:20102800B01200003C100000B1C00110A9BF011067C0011069B80110B9B9011099B901104F
:041048003000000074
:20104C00B012000060100000BDC00110CDB30110D9BD01106DB301108DB80110D9B9011062
:04106C00310000004F
:2010700000000000280D002004000000000000000000000020000000E8C9011030000000F5
:2010900028100000300D00200400000000000000000000000C000000D8CA011018000000D0
:2010B0004C100000380D002004000000000000000000000024000000F0CA01101800000054
:2010D00000000000400D00200400000000000000000000001000000018CA01102C00000060
:2010F00000100000500D0020040000000000000000000000200000006CCA011024000000C4
:20111000FFFFFFFF580D00200400000000000000000000002800000090CA01102400000083
:20113000FFFFFFFF600D00200400000000000000000000001400000008CB01101800000002
:20115000FFFFFFFF680D002004000000000000000000000058000000B4C9011034000000D0
:20117000FFFFFFFF700D00200400000000000000000000001000000020CB0110180000009E
:20119000FFFFFFFF780D00200400000000000000000000001C000000B4CA011024000000CB
:2011B000FFFFFFFF800D00200400000000000000000000003800000044CA011028000000F3
:2011D000FFFFFFFF880D00200400000000000000000000005400000078C901103C00000068
:0811F00002000000DCB901005F
:0411F80001000000F2
:0411FC0000000E00E1
:0412000000000F00DB
:0412040032000000B4
:0412080001000000E1
:04120C00140B00209F
:0412100000020000D8
:0412140000000000D6
:0412180001C90110F7
:04121C0000000000CE
:0412200000000000CA
:0412240008000000BE
:0412280000002200A0
:04122C000C09002089
:0412300000000000BA
:0412340000000000B6
:0412380008000000AA
:04123C00600A002024
:0412400000000000AA
:0412440000000000A6
:04124800080000009A
:04124C00000000009E
:04125000000000009A
:041254000000000096
:041258000000000092
:04125C00010000008D
:0412600074090020ED
:041264000600000080
:041268000100000081
:04126C00FC0700205B
:04127000000000007A
:041274000000000076
:041278000002000070
:04127C00000000006E
:02128000290043
:02128200010069
:02128400250043
:02128600300036
:02128800310033
:02128A002D0035
:02128C0001005F
:01128E00015E
:0812900003000000A0B90100F9
:0812980000000000000000004E
:0412A0000000010049
:0412A4000000030043
:0412A80013C401105A
:0412AC001399010091
:0412B000B812000070
:0412B400B81200006C
:0412B8000000000032
:0412BC00BC0C002046
:0412C0006F9B01001F
:0412C4002000000006
:0412C800B8B80100B1
:0412CC00C8B601009F
:0412D00029C101101F
:0412D400AF1F010047
:0412D8006F2601007C
:0412DC00A1C7011095
:0412E000A3C701108F
:0412E4000000000006
:0412E8000FB9010039
:0412EC000CB501003C
:0412F00024B5010020
:0412F400F4B401004D
:0212F8000200F2
:0212FA000900E9
:0212FC000100EF
:0212FE000000EE
:0113000001EB
:04130400D19A010079
:041308000D71010062
:04130C00AD8A0100A5
:041310008D750100D6
:04131400457101001E
:04131800BD570100BC
:04131C00E5000100E7
:04132000CB9E01005F
:041324001D3B01006C
:0413280015C70110D4
:04132C0025C70110C0
:201330000F492DE9F04F1CC9ADF59A7D05A81CC006C980E806000B4C207830B943F69820C3
:2013500019F030FB20780028F8D014F0FBFCAD4E304618F09DFEAC4D286838B904E0C0464E
:20137000A4B801008C0C002017F090FC05200024209027462D972497A046CDF8DC80CDF804
:20139000E080CDF8E4802A9735973E462E963D462F953B4630933A46229239462391259632
:2013B00026952793289229912B96319532933392349136963A953B953C953D953E953F95A9
:2013D0004095419542954395449545954695479548954995DFF8D8B24A95DFF8DC924B9519
:2013F00020462C90B5480778002F40F0B981B4480778002F40F0B481B2490AA818220DF0B3
:201410002FFFBD4800680421012215F047FC19F0C5FA0DF12A044FF0050A219004A81F9043
:201430001F9951F8040F1F9119F0BCFA0220754989F8000014F0A6FC9E490860A8B94046DC
:2014500000904746019736210122029692A30395B8A004970CF0C4FE99F80000694914F0F0
:2014700091FC944900280860E9D04046092610AD4746ADF868008F480068294618F012FED7
:2014900060B96149B54A28880968126817F072FB0DEB47017B1CDFB2A1F85400761E05F18C
:2014B0000205E8D12FB1209A15A839461AAB0FF01FFF8048006818F0F0FDBDF86800BDF8AD
:2014D000687046464546434620804B2100970122019698A0029547460393B4A304970CF047
:2014F0007FFE0120474989F8000014F04BFCCBF80000A0B9404600900197522101220296EA
:20151000AEA303958BA004970CF06AFE99F800003C4914F037FCCBF800000028EAD0404630
:20153000092610ADADF86800DBF80000294618F0B9FD60B93449894A28880968126817F097
:2015500019FB0DEB47017B1CDFB2A1F85400761E05F10205E8D12FB1209A15A839461AAB2D
:201570000FF0C6FEDBF8000018F097FDBDF86800BDF86870464645464346608167210097DF
:20159000012201966BA002954746039391A304970CF026FEA41CBAF1010A7FF441AF40466E
:2015B0000327ADF86800174989F80070384614F0E9FBA3490860B8B940460090474601972D
:2015D00070210122029687A3CDF80C8059A0CDF810800CF005FE99F800000A4914F0D2FB32
:2015F000974900280860E7D04046092510AC4746ADF8680092480068214618F053FD90B960
:2016100004E0C046742E0020900C00208E49534A20880968126817F0ADFA7E1C0DEB4701C3
:20163000F7B2A1F854008548006819F0BBF9A41C6D1EDFD12FB115A8394601221AAB0FF014
:2016500057FEBDF8680047464646009045464446842101970122029667A3039535A0049443
:201670000CF0BEFD7648006818F017FD0120BDF868702090B7F5FD6F26DCBDF8680040F29A
:201690003D41814206DCBDF868104FF4FD70A0EBA1001AE0FA2018E06164633220696E6948
:2016B0007469616C697A6564206661696C656400CC2E0020C82E0020FB2E0020FE2E00207A
:2016D0008D0C00200C2D00204046ADF868005C48006818F0E2FC9DF868005A4F8DF83E00FA
:2016F00038885B4EADF8280030684246042115F0D5FA9DF83E0001E0D02E002047464646A0
:201710000090982101953FA30294209A039709A004960CF065FD1BA80AA910220DF0A0FD2B
:201730000EAA0068136869460B6052684A601C991D9A06E05461736B53656E736F722E6390
:2017500000C01E9B14F0CAFF19F028F904462198A04292BF241A241A641E01E0940C002034
:20177000009440464746DFF8E4A00190A521012202972AA30396504604950CF031FD2F480E
:20179000C068001B0090A62101970122029627A30395504604970CF023FD2848C06884423F
:2017B000BFF420AE001B19F0FDF81BE66D6F6973745F305B695D3A307825780061646331CA
:2017D00020696E697469616C697A6564206661696C6564006D6F6973745F315B695D3A3077
:2017F000782578006F70656E2061646333206661696C656400C046C06176675F7265616413
:201810003A25640073656E736F725F646174612E74656D705F303A256400C046637572726A
:20183000656E745F636C6B3A256400C073656E736F725469636B3A256400C046B02D00204A
:20185000DC2E00209E2D0020900C002044170000D02E00202DE9F843040014D1002017F0CD
:20187000D5FA10E0204612F0F2FC012808D063E08A0740F1628101F0FD0101700020B071B9
:20189000204612F085FB04F16605687D002853D0697CDFF8C894022904F1EC0704F59E7886
:2018B00004F5B07604F5C67035D0042947D005295DD0062900F08D800729D3D0092900F005
:2018D000FA800B2900F0C5800C2900F016810D2900F0D5800E2900F0F8800F2900F0358161
:2018F000102900F04F81112900F06781122900F01C81142900F09281162900F0668117296F
:2019100000F08181FC2917D0FD2900F0A081FE2900F0AD81A2E7287C012809D199F8030079
:20193000002813D01621204617F079F9012004E0204611F037FE28740020BDE8F283287C5B
:20195000012840F0B08199F80200002800F0F5800021A971FF22FC2120460FF04DFCA0798D
:2019700004F1B80204F1B00119F014F88BE7287C012811D199F8020028B1012184F894101E
:20199000002038607860B87A01286BD1FF22062120460FF031FC76E704F1E7063078012826
:2019B00009D1204615F0D0F80128C5D10020B87201212974C0E770780028BDD004F1C70240
:2019D00004F1A00104F1D70018F0E0FF0120307059E7297C012940F06A8199F80200002808
:2019F00040D0608CE083204612F0D2FA01202870204614F045F90121A971397A787C0129D6
:201A100010D1C00609D5002188F80510D8F8001098F80600490810F0B7FDA079002118F0BE
:201A3000B1FF10E0C00609D5D8F80020DFF8300304F5A1735208214618F0FAFAA079012252
:201A5000002118F09BFF002038723873F872B87219E7287C012806D1F87A012804BFFF2287
:201A7000FC2195D069E0204611F06AF8012821D10020F87284F894000120287403E7287CC2
:201A9000012811D199F8020048B1002184F8941001202870204614F0F3F80121A97199F883
:201AB0000300002810D148E0204614F0ABFB2874E88A288340E7287C012840F0FC8099F8E8
:201AD0000200D0B3608CE083DAE6287C012840F0F680387C022804F1FD0204D1A17900200E
:201AF00018F048FFCCE6032840F0F280A1791A2018F040FF00203874C2E6287C012804F236
:201B10000D1140F0F0800878012804F5897240F0F0804878012807D15088009000201388D6
:201B3000CA78A17918F022FFAAE6287C012840F0EF8099F802000028F6D1288B401E2883D6
:201B500080B20028B6D12221EDE6287C012840F0E38098F80900012802D131780F291BE0AD
:201B700098F80800012826D1002188F80810288D000900901A20AA8CEB8CA179520818F033
:201B9000F1FE7DE6287C012840F0CA8098F80900012810D1317810291CBF002017F036F9E6
:201BB000002088F80900298D09090091AA8CEB8CA1797078E2E7287F73E7287C01283FF49A
:201BD00061AF204611F0D0FB71E7297C012940F0AB80017B4A061DD4CB0709D501F0FE01D4
:201BF00001730123A179707801220BF00FFE47E68A0740F19E8001F0FD0101730123A17962
:201C100001221A20F1E7297C012940F09F80017B4A0692D501F0BF01017331E6297C012923
:201C300040F0968001788A067FF522AE01F0DF010A0701700AD501F0F7010170F08B00906A
:201C5000738BB28B318BA079FEF722FE16E6A97EFF2220460FF0D0FA0EE7FF2220460FF061
:201C7000CBFA012067E6002017F0D0F864E6A97E0C2918BF0E29F0D00F2902D01429ECD0BB
:201C9000F1E7FF22FC2120460FF0B6FAB8F812000090B8F81030B8F80E20B8F80C10A07904
:201CB000FEF7EEFD48E620460DF0F9FEFFE6204612F0A0FFFBE6204610F0FAFBF7E6204641
:201CD00010F0C0FB28740121E88A2883397433E6288B401E288380B20028F8D1A17922205D
:201CF00018F048FE2FE70120887020460FF006FEDDE6288B401E288380B20028E7D1508885
:201D1000009022201388CA78A17918F02FFE1AE7204613F035F8CAE620460CF057FDC6E60C
:201D300020460CF0A5FDC2E6162120460CF05AFBBDE6288B401E288380B20028C7D1A1798E
:201D50000123012222200BF061FDFCE61721ECE7142120460EF002FDA9E600BF5C4D0020F5
:201D7000991801002DE9F84FDFF84044A178FF2904BF002017F04AF8A07817F06FFE0446A6
:201D900004F1680604F5C9753168086804F1900710B10021E18310E0B07B002804BFB07E8A
:201DB00000280AD13978002904BF2878002804D1207F012804BF608CE0832189E08B41188E
:201DD000491C6181204616F050FF01281EBFDFF8E0030178012904D121890020491CE08327
:201DF00061814FF6FF78B07E01280DD1B28B6189208918F0B3FD38B1218960894A1C93B251
:201E100098422CD0B08B20E0387801280DD17A886189208918F0A2FD38B1218960894A1CCC
:201E300093B298421BD078880FE02878012816D16A886189208918F091FD80B1218960890A
:201E50004A1C93B298420AD0688892B2904206D04044608180B218F07DFD4044E083287897
:201E700001280DD121896888491C89B2884207D16A792A71002028701346A1790BF0C6FC09
:201E900004F59A71087920B120890021401CE183608104F12E07B07E01283ED12289B08BFB
:201EB000521C92B2904238D1608104F18601204616F0DCFFB08C608400212177E183E0893B
:201ED00061894118A181B08B218918F043FD8046B988308C728C01FB0808F08C8A4204BF88
:201EF0003989884202BFB38CF9888B4207D000090090B38CA1795208002018F033FDB07F4E
:201F10003870718CB980B08CF8802046F18C398117F0F6F90220B07601E0B7F80480E28BC3
:201F3000DFF890C2DFF89092501C00FB08F040F6C41808FB00F100912368D3F80CE0714482
:201F5000D960DCF800E09D499EF800A00B884FEA9A1ABAF1030F15D199F80FC05FEACC7E52
:201F700048BF00230ED45B1C1FFA83FCBCF1010F11BFB4F812C004F59A7EBEF806C00CF2A0
:201F9000DC5C01E0B4F812C00CFB00FC4FF4C87EBCFBFEFCDFF828A20CF1010CC4F814C022
:201FB0000B8084F820204FF01C0BA379A0610BFB03F3DAF80010226801F1080001F1080EDD
:201FD000C0581061A379D2F80CC060690BFB03F3ACEB00004EF8030001F10803A0790BFBF5
:201FF00000FC53F80C00906001F10C02A0790BFB00F00C31135C03F0F00343F002030B5456
:20201000DAF80000A179821C0BFB01F100235352287908B916F0FAFEDAF80000A27900F128
:20203000100128790BFB02F240088854A079DAF800100BFB00F008440021417428790428E0
:2020500014D1A079DAF800100BFB00F001F110021031135C2A7A43EA82030B54A279DAF844
:2020700000000BFB02F2024420205074DAF80000A27900F112010BFB02F200238B52514987
:20209000A2790968520101F11403D4F814E053F802C00CEB4E0C43F802C0B27E022A08D1F8
:2020B000A27952019E583B7808FB036601F114039E5099F80F20D30749D5A2790BFB02F2C9
:2020D00000F1080308309E58A6F5A8669E5001F11406A27923680BFB02F282589A60009817
:2020F000121A1A6101F11402A0794001135803F5F66333502879042807D1A079400101F197
:202110001405135803F561632B5001F11400A27952018058C4F834012B4ABE88176B3868DA
:20213000A57946436420B6FBF0F601F11C036D0108FB06F0A0F596605851A07901EB4010CC
:2021500022490B78012B1CD10121C1721CE02879A37904280CBF4FF4AA504FF4E66001F1AB
:2021700014025B01D258BB8808FB03F3101AA3F516739842D0D30821204616F050FD0120AC
:2021900011E0916A4A78C272A179DAF800000BFB01F281182268516007200D490870204639
:2021B00014F06EF90020BDE8F28F00BF684E0020784F0020084F00205C4D0020EA2E00206A
:2021D000902E0020942E002074C80100734F00206F4F00202DE9F04F0546C24CA97860699A
:2021F0000027ADF11C0D0A290FDC0A2900F0B580002900F0CB81491F00F0BD81491E00F019
:202210008C81C81E00F07081EBE10B3900F08F80C91E00F08280491E0DD0481E40F0E181B6
:20223000227817F035F8002800F07581104604210AF03CF86FE12E4628B143681BB1A888C5
:2022500039460A4698476078002863D0B08813F079FF051C00F0C581B07A400811D36B7949
:202270007BB1012B0DD0F068800A0AD203F001033A460097A81D194613460BF04FF9002865
:2022900043D1207A022802D1B07A00093DD3B6F804806D790C2017F067FD06F10809061C67
:2022B00000F03981A6F80880B5723B463360B9F1000FF77209D04846082117F079F8706009
:2022D00020B9304617F060FD25E17360A069002808BFA66102D00368ABB90660304617F0DF
:2022F00057FF4A462946404607F054FD6069002800F011814368002B00F00D8139464046DF
:202310000A46984707E11846E5E7B088032118F01DFB66E1B08805211CE0002800F0FB80BC
:202330004368002B00F0F7806A780221D7E017F0C7FC002800F0EF80606948B104683CB128
:202350002869009069892A7B6B7BE81CA047E2E06889012118F0FAFADDE0B8466F78002F42
:2023700040F0AD80A9794908C0F0A98002A84146082217F083FFA88813F0E4FE071C09D1AE
:20239000227816F085FF00287AD01046042109F08DFF75E06869002854D00646414606222A
:2023B000113017F08CF8C24630B330464146062217F085F8E0B9307C06F11109D3464646B2
:2023D00000F001000590761CF6B289F80060CDF800B005994846524653460BF09FF810B91F
:2023F000002EF0D104E01EB1BAF1010F02D006E04FF0010A46466E61BAF1010F22D0686995
:2024100050B30646307C062206F1110100F001008DF80E0002A817F0B3F9787906F111089E
:20243000012805D107F10C00B91D062217F0A8F9B81D4146062217F0A3F9307C40F00200DE
:20245000787109E07879B91D062200F001008DF80E0002A817F094F9A879C00839BF387957
:2024700000F0FD00387940F002003871A879000939BF387900F0DF00387940F02000387187
:20249000A9799DF80F20C1F3800010438DF80F00080905D39DF80F0040F008008DF80F00D2
:2024B00002A8294605F03AF95FEA000803D1A88812F0F0FF02E0A88814F06AF9606950B340
:2024D000436843B3A8886A7801219847687810BBA87940081FD36069032142464368A888E2
:2024F0000FE7C046600500203B460093E978281D0DF1110201F001010BF010F858B99DF8E4
:202510001110480005F10C0200EB810025300421C0B216F006FE012763E0A88814F038F90C
:2025300018F010FA00285CD1E07A012814D0207B01280DD02D4C3D4614F8010F012803D107
:20255000284609F059F927706D1C062DF4DB0CE010F050F8277308E017F08DF9394604F1D9
:2025700020000622E17217F089FE502016F0CEFF12F03AFD35E0687898BBE8786A892B7B65
:20259000291D00F0010009F0D7FC2AE0687840BB18F0D4F9054618F0CDF9044618F0C6F944
:2025B0008DF8100010212A46022016F0BAFD03201021224616F0B5FD0420012104AA16F088
:2025D000B0FD9DF81000012803D09DF81000032807D1012015F0A2F902460620014616F079
:2025F000A0FD384607B0BDE8F08FC0467F0500202DE9F84F040004BF002016F007FC04F1E9
:20261000500941F62300D9F8006030800021718018F088F900F57A60B06002218220307334
:202630007173B068217E2061B1730020F073D9F80410087D022804BF002016F0E7FBD9F897
:202650000400007D012802D10020002104E083280CBF0620022020213074717404F1240B1C
:20267000D9F80400DFF878834178480615D5D8F83410486902689BF80500511C00EB400053
:20269000095A7182607DC10604D5E07F40F04000E07702E040F04000607506F15805002096
:2026B000287104F130009BF81A10890001F00401297128614FF01E0A607DC10644D506F1D2
:2026D00030003062D9F8040041788A060BD5617D01F0FE016175407810F0030F03D1E07F89
:2026F00000F0FE00E077607D14F0C7FF0246A275521C307CC0F38001002392B200F00300D7
:2027100014F0FAF8A0831E23A08BE27D00F5FA7100F5FA7090FBF3F34A430AFB130062830B
:20273000C0B208B1C0F11E008018A183608380B2B168C03001EB8001A9600220E871E17F64
:2027500041F00801E17714E000203062607D40F001006075D9F804104A78510744BF40F01C
:2027700002006075607D14F088FFA0750020A860E871A07D217D60F3050106F1880021754B
:2027900001700321627D8170427006F128079BF81A10890001F0040141F0030181709BF8F7
:2027B0001B20D20002F00802114381700021C1708160BBF81C00C0F30B00ABF81C00D9F86B
:2027D0000410CA7D40EA0230ABF81C000022617D01F0FE0120460AF061FA40F61200B0834D
:2027F0000021F183A020706207213970607DC1064CBF00200220787041F62401E07D788047
:20281000398100207881B168608B01EB800139610220822139757875002094F8211001F09C
:202830003F01B975F875D9F80410887D012818BF022804D100F07F00401E002104E0832847
:202850000CBF06200220202179763876D8F8340041690A689BF80510501C01EB4101405A7B
:20287000788300216961D9F80400417811F0030F1BD015F05DFB6861D8F818000078C10788
:202890004CBF1021002182074CBF2022002243074CBF4023002300074CBF802000201143D2
:2028B0001943014341F00F01297600206876D9F80410887C00F0030068769BF81A1089008A
:2028D00001F00401084368769BF81B10C90001F0080141F01001084368764249087838B1E9
:2028F000687E40F040006876287E00F0FE002876E07F14F0C2FE84F8200020460AF0ECFC5B
:20291000E07FC1063AD5D9F8040094F820204178521C88074EBFD21E9BF81F008218387E1C
:20293000C0F380010023D2B200F0030013F0E4FFABF80000BBF8000000F59671C1F11E02AF
:2029500091FBFAF10AFB012A8BF804A0D9F8042051788A074CBF00214FF4FA710818ABF8AD
:202970000000ABF80200BBF800209BF8040039698218C03201EB8201022001E00021002057
:20299000E961E87604F13000A862D9F804104A78687E510747BF04F1380140F0200012498C
:2029B00000F0DF00E9626876022294F82000A17F60F30501A17740F60B00B8840021F98493
:2029D000F96229706A7094F845006880D9F804104878810744BF012068800020BDE8F28FE1
:2029F00074C80100784E0020D04700202DE9F84F0E46700688B026D5DFF848231078002128
:202A10000AF07EF804001ED0DFF83C0301688847054617F0A1F96168884204BF40F2014041
:202A300017F07CFF00202072201D10F0CDFCC7490A6828469047204616F028FFFF2243216D
:202A5000204611F079FAF0070BD517F085F928B100218160BE48006800B1804786F00100F8
:202A70006CE1B0070FD500210023069105910491039302910191009101223C2017F04AFF3D
:202A900086F002005AE11E277007DFF8C88240F19F80B1480078002107918B460AF030F829
:202AB0000446AE488178FF2904BF002016F0AEF9A07A16F0D3FF0546606D807A95F82E91C5
:202AD000022818BF032805F5947A06D108F10D0017F01CFF08B908F1070B5146484617F0BB
:202AF00011FF88B3606D807C002818BF012804D14146504615F074F804E052464946404696
:202B100010F0ECF8FF283ED007FB00F908EB090706225146F81D16F033FE18F8090040F03A
:202B30000209F81D07900622616DC87A00F0010085F82E0107F1010A606D00F10C0105F531
:202B5000947016F01DFE1EE05146484616F0B8FEC8B152464946404610F0C0F8FF2812D07A
:202B7000474308EB070404F10D0017F0CFFE40B904F10D0017F0CAFE002804BF607F01282A
:202B900001D149F0020905F12C004B46017806914289120905920122698C0491C08807993A
:202BB000029140080390CDF804B0CDF800A00020A97917F0AFFED5F89C0169498842A879BC
:202BD0000CBF002101210DF041FD86F00400B5E030060FD5002100230691059104910393D7
:202BF00002910191009101223B2017F093FE86F08000A3E0F0045BD55A490C6808F10D003F
:202C100017F084FE002842D108F1070108F10D0017F074FE3BE0606D4178480704F13E0538
:202C300023D5287802281EBF0328687801282DD1697804F13802404610F050F8FF2814D0CA
:202C5000784308EB000909F10D0017F05FFE60B909F1070109F10D0017F050FE062209F1A9
:202C7000070104F1380016F08BFD2878022818BF03280BD108F10D0017F048FE30B9062275
:202C900008F1070104F1300016F07AFD2468002CC1D135484268354800784FF4805112F005
:202CB0003DFD10B18E200EF069FA86F4805045E0B00505D517F020F92D4901200860FEE7F8
:202CD000700504D508F00FFE86F4806036E0700405D581200EF052FA86F480402EE0B104EB
:202CF0002BD5244C206810B1002016F08FF84FF0FF3020600020204C0FF06EFB216851F8AA
:202D1000202F684690471D49086B4A6B24681C4B0090019202936B46C86A1A4A0392ADF815
:202D300010002568184A19491948A8471949086005F05AFA86F4005000E0002009B0BDE897
:202D5000F08F00BFF72E0020E00A0020E40A0020204F0020DC250020F92E0020684E0020FB
:202D7000D33B0100AC2E0020784E00206E4F0020FC002043044F0020F04E0020D00800204F
:202D9000499D0100599D0100CC2C00203C0C002088490020EC4E00202DE9FC47B44CB54D1F
:202DB0002678DFF8D482B54FB549002E4FF4A05900F01F81072E14D0092E18BF0A2E00F0ED
:202DD0001A810B2E18BF0C2E00F029810D2E00F0EC80112E5CD1AB4A1078002109F090FE3C
:202DF000002878D0C5F80080426D5378016DA64CDFF89882DB065ED50B4641F2044EB3F8B6
:202E100002C0F4451FBF5E8B7645B3F832A0F24506D041F20A4EF4451CBF7645F24502D137
:202E3000A7F800E04FE0002440F2FE364FF0180C0CFB04FC03F1020E3EF80CE0A7F800E03B
:202E5000BEF1010FF2D0BEF1000F12D0AEF1020EBEF1010F0DD9BEEB060E1AD04FF480661D
:202E7000BEEB060412D04FF44066A41B01D0A41E012C40F2DE80241FFBD040F2FA36A41B86
:202E900000F0F180641E00F0E680E11E00F0D980A7E0B3F800C040F6010EF44540F0C980B8
:202EB000641C022CC2DD57E0981C20F80C900FE001680A710CE0488E388041F20441401AF7
:202ED00001D0801F01D12C6046E041F206403880C5F8008040E06E498978FF2911D0C5F8E2
:202EF000008008461C226B4B50431A68941C235A3B8013F47F4FF4D040F204441B1B012B8E
:202F1000654976D94FF47F741B1B15D00A3B012B17D940F6F6341B1B032B84BF5B1F012B45
:202F300012D99B1E012B64D940F2FD341B1B0BD05B1E012B05D909E0921C41F2014313520A
:202F500002E0941C24F80090296005E0002015F05DFF8520FEF720F8BDE8FC474F4800788B
:202F7000012109F0A3B94E4C4E4A25684E4800680023CDE9002355F8089F4C4B0222C84753
:202F90004B49088035E0092E4ED14A490A685089002849D04849087811F026F8002100200A
:202FB00017F0A8FC0020207023E04888388002280DD940F20442801A1BD040F6FC72801AD0
:202FD00005D0083815D04FF47F72801A2CD1887B801CC2B2B52AA8BF66208873002048805A
:202FF00007E0002015F012FF8420BDE8F647FDF7D3BFBDE8F3874888388010F47F4FFAD055
:2030100040F20442801AF4D040F6FC72801ABAD00838EED04FF47F72801AA4D004E048880E
:20303000388010F47F4FFAD0002015F0EFFE8520DBE7807B012818BF042801D0A7F800908C
:2030500046E7807B01287FF42FAF981C41F2024120F80C103CE75278D00647BF0022886D80
:203070000022C86E24E7002015F0D0FE8320BCE76F4F0020204F0020B9A10100504F00201D
:20309000F02C0020F72E0020A9080000A5610000684E0020902E0020A94500006E4F002069
:2030B000F04E002002000080EC4E00202D3C0100424F0020982E0020714F00202DE9F04F90
:2030D00009AFADF13C0D08900A92388809911E46ADF81800101C08BF002000F07581017820
:2030F00000274FF0010B401C4FF0FF39B846DA460A9061E1252940F056810178401C0A90BD
:203110002D2918BFADF8068004D10178ADF806B0401C0A9030291CBF4246434604D1017815
:20313000401C5A465B460A902A29CDF800804D4617D1049330680A9BCDF80890C01C20F018
:203150000300001D306050F8044C1978002C009403F101000A9018D5ADF806A064420094C5
:2031700013E044460AE0600000EBC4004018A0F130040A9801780094401C0A90302901DBD2
:203190003A29F0DBCDF8089004932E2929D10178401C2A290A9011D13168CDF80880C91C3D
:2031B00021F00301091D316051F8045C002D48BF454601782B46401C0A9011E045464346E6
:2031D0000AE0680000EBC5004018A0F130050A9801782B46401C0A90302901DB3A29F0DBDA
:2031F00002930AB1224604926C2904D04C2918BFADF8048004D10178ADF804A0401C0A9006
:203210000BA8CDF80C800FAB07906429059300F0828069297FD0BDF818C075296DD0782948
:2032300069D06F2965D070294ED063293ED0732922D00A98401E0A90099801281AD9664993
:203250000C68B5F1FF3F03D0A84288BF6D1C05D86FF00041814294BF0D1C099D029508A8D0
:203270000AA932466B46A04709993F18091A0398099165E0454617E03068C01C20F00300DC
:20329000001D306050F8040CBCF1010F014608B94FA00146079116F009FC0390B5F1FF3F04
:2032B0004FD0A8424DD9039528464AE03068C01C20F00300001D306010F8040C8DF82C00A2
:2032D0005D46039558463CE0082035680490E81C20F00300001D306050F8041C0822102307
:2032F0000FA80EF025FE401E079040210170079823E0082302E0102300E00A233068C01CBC
:2033100020F00300001D306050F8041CAA42BCBF2A1C04920DE03068C01C20F00300001DA1
:20333000306050F8041CAA42BCBF2A1C04926FF009030FA80EF0FCFD07900599081A03903F
:20335000009C241ABDF8065000945DB906E008A8202109AA14F0F4FE7F1C009C641E009401
:20337000F5D50398401EB0F1FF3F03900FD1BDF8060001281CD10098401E009018D408A835
:20339000202109AA14F0DCFE00987F1CF4E70798017809AA08A814F0D3FE0798401C07905B
:2033B00003987F1CDEE708A809AA14F0C9FE7F1C0A980178401C0A9000297FF49BAE0898A3
:2033D00008B14146017038460FB0BDE8F08FC046286E756C6C2900C03CBA0100BB482DE9E9
:2033F000F84F0025BA4CB849056094F8E200002800F06581012800F02F81B64E02283CD076
:20341000032840F05C8151F8250CD4F8B8100029A0F5C060C4F8D400B8BF49420028B8BF47
:203430004042814226DA4FF08057D7F8A4014568B4F8BC0030214FF47F4208230090304612
:20345000A847D7F8A4014568B4F8C00004214FF4F802122300903046A847D7F8A401B4F834
:20347000D070456820214FF440620A2330460097A847012584F8D8501CE151F8258C16F039
:203490003BFD2F4600B901273946934F38680028FCD0B146012609F10409D9F82CA03E6039
:2034B00009B116F02FFDCAF30720C4F8BC0016F023FDAA4600B9B2463B68002BFCD0D9F882
:2034D00000B0BAF1000F3E6001D016F01BFDCBF38440C4F8C00016F00FFDAA4600B9B24634
:2034F0003B68002BFCD0D9F81C90BAF1000F3E6001D016F007FDC9F38120C4F8D000B8F5DC
:20351000C061C4F8B81000F09C8094F8D80068B9C4F8D410D4F8C000C4F8C800D4F8BC70BD
:20353000C4F8C470D4F8D030C4F8CC30D4F8D400D4F8BC30002854BF02226FF0010204F1F9
:20355000C8010F6800EB40008018421000EB927207EBA2000860D4F8C810C4F8C43000299E
:203570001CDD1E293CDDD4F8CC0030B93429B4BF15391E21C4F8C81025E02A29BABFD4F8D3
:20359000C8000B381E20C4F8C800D4F8C4003F28B4BF401C3F20C4F8C4001FE0D4F8CC0012
:2035B000032812D011F10B0FC6BFD4F8C8000B30301CC4F8C800D4F8C4000028C4BF401E15
:2035D000051CC4F8C450032508E011F1150FC6BFD4F8C8001530301CC4F8C800C4F8CC50AE
:2035F0004FF08057D7F8A401B4F8C43030214FF47F424568374800930823A847D7F8A401EF
:2036100004214FF400321123456832480096A847B4F8C860D7F8A40104214FF4F802122341
:2036300045682C480096A847D7F8A40120214FF440620A23B4F8CC60456826480096A84795
:2036500001E084F8D85040F2FF50404502D8801C40452FD2082030E051F8251C1F4F4BF266
:20367000F5204843060A3868C0F3814001280CD11B4800680068804712F05EFF16F048FCCD
:203690003111C010484306EBE03694F8E50030B91448006820F07F403618760801E084F860
:2036B000E5501148310C0660012741600F4D8760287808B90B2000E0052084F8E40005F0D7
:2036D0004BFBBDE8F88FC0462D400C402C500C404C04002000A00C4000800C40B43F005076
:2036F000EC010010102009403C600C4071B80100C2480278112A00D070472DE9F047C04A95
:203710001078002109F0FCF904000AD1002015F07DFB002015F07AFBBDE8F047FF20FDF7FD
:203730003BBC04F14C0898F8000008B90121E172451C88F80050E9B2E07DD8F80490814223
:2037500009F1400A24D299F80E00401C89F80E00D8F808104A7AD9F80810520802F00102B1
:2037700082F00102101889F80E00A08B01EB8001C9F80810627DD30609D5628B98F8003059
:2037900000FB1320C03001EB8001CAF8201032E104F1280609F174074ED1A07F3875E17FA6
:2037B0007975D8F808205278930710D5E27FD30604D5C01E387501F0EF01797500203860A5
:2037D00089F873000022797D01F0FE010EE1910607D4F08B00B1F07EF875F08B00B1306AAF
:2037F000F861D8F808004178C8070BD5F18B00291CBF306A002805D0F861B07E884238BFC1
:203810000146F975E07FC1060CD5D9F83800317800EB8100C9F83800A18CC03100EB81003B
:20383000022101E000200021386089F873100022E17F01F0FC01D9E0D8F808104978CA07F4
:2038500016D5787D397D00F0F700891E01F03F0182075CBF891D40F00200420644BF491ED5
:2038700000F0BF00787539750020F861F875C2E0A28C2D1AD9F838008907EDB200EB82004C
:2038900075D5012D41D1C9F83800A07F00F03F00A0773875801EE17F7975387501F0F70101
:2038B0007975D8F8082053785A0704D5801F387501F0FD01797500233A7DF17E9AF8000009
:2038D00002F03F028A18521CC0F3800192B200F0030013F011F800F5FA70A0841E21A08C30
:2038F00090FBF1F18AB2797D01F0FE01204609F0D5F9002189F87310F08B00B1F07EF875D0
:20391000F08B00B1306AF86175E0022DC9F8380026D1E07FC10706D5387D811F3975787D0A
:2039300000F0FE00787500233A7DF17E9AF8000002F03F028A18521CC0F3800192B200F016
:20395000030012F0D9FF00F5FA70A0840022797D01F0FE01204609F0A1F9707FAAF81A004B
:20397000707F401C451BE8B2012812DD07E0C9F83800E17F707F451BCA06E8B209D5A28CD5
:20399000D9F83810C03201EB82013960022189F8731080B3F969F27EE37FA57F0A445908A3
:2039B000FA614FEA410AD8F8081049784A0748BF2AF0020A890748BF2AF0080A012807D12D
:2039D000307FF875002139602AF0100A89F87310504613F052FE05F0C00500F03F000543AF
:2039F0003D7587F815A000220AF0FC012046BDE8F04709F053B9BDE8F08700BF6F4F0020B8
:203A1000F72E00202DE9F84306460D46707801071DD4D6F80310B44821F07F4120398142B6
:203A30003FBFD6F8061021F07F412039814228BF112033D2B01DF11C88425CD3B07A002865
:203A500018BF012803D0022818BF032853D1B07C002818BF012803D0022818BF03284AD1C5
:203A7000307D012818BF022803D0832818BF032841D1707A10F0070070723CD03078012124
:203A900009F03EF804000AD1002012F071F8044616F0EAFB844214BF07200D2021E104F164
:203AB000540100200E606072227A012A08BF0C20F4D0E075727A012383401A4208D0E27D08
:203AD000521CE275D2B2012A04BF00F125022276401C0328EEDB7078C20619D5317D012929
:203AF00009D1102811D012280CD0132804D0152804D01D2804D09FE0002007E0042102E0E7
:203B1000012003E00221A17360E00320A0735DE0FF22A273307D02281EBF727802F00300DE
:203B30000328E8D01307E6D408B19006E3D4520707D516F10C00DED0F07A002818BF012830
:203B50007AD100206075E077707810F0030F26D1207D00F03F0020757078820605D4486873
:203B7000002804BF8868002801D018216175707881060DD4307D832818BF032804D118209B
:203B900001216075E17703E0607D40F0010060757078410716D5E07F40F0020011E0217DC5
:203BB000C0074CBF0120022001F03F0141EA80112175182060750921E1777078410701D5C8
:203BD0000B20E077207D00F0C000A07796F913007F2806BF4548007810F056F904F1290768
:203BF000387045B14248416B48693978026801EB4101505C2870B07ADFF8F880DFF8F890CB
:203C10003E4D002818BF012809D17875B07AC10758BFC8460622414604F130002FE005F12A
:203C30000D0016F073FEB8B1B07AC10754BF4946414615F045FE08B9122052E0B07AC1070D
:203C500054BF49464146062204F1300015F098FDB07A00F0010006E00622E91D04F13000F0
:203C700015F08EFD03207875B07A00F001002870B17AC80758BFC84606224146681C15F08A
:203C90007FFD7078410729D5B07A022818BF03281BD1F17A06F10C0201F0010128460FF058
:203CB0001DF8FF2811D01E214843054405F10D0016F02CFE48B9E91D05F10D0016F01EFE65
:203CD0000120B8750622E91D04E0F07AB875062206F10C0104F1380015F052FD012060723D
:203CF0000020BDE8F28300BFE0FFFF00714F002074C80100344E00202C4E0020DC25002063
:203D10002DE9F04FB34C4FF0010A0027ADF1240D20788DF814A08DF8157030B943F698204A
:203D300016F040FE20780028F8D0AD483C46DFF8ACB2DFF8B492006807972546B8462E46FB
:203D50000690AA480378002B40F0D080A24800680321424612F0A2FF9BF80030002B43D003
:203D70006D1CEDB2009540460190232102905246039077A3049073A00AF032FA404615F0EC
:203D900009FE38B3032015F00FFE012808D192489BF8013000682BB90321424612F07EFFD5
:203DB0008D480068052D1FD18BF801A00321524612F074FF0DF1150005A911F0EBFD8DF810
:203DD00016008B4800680DF11601424616F08EFD474608E04046804D8BF800002868032155
:203DF000524612F05BFF4546052011F0F5FDB9F802004FF6FF718142D8BFA9F802A09DF882
:203E1000150000286ED19DF81400E0B907997548491C80680791884268D2504614F03EFBBB
:203E3000002863D150468DF814004346009340460190602102900222039049A3049041A089
:203E50000AF0CEF950E067480068A0420FD2009040460190452102905246039045A3049041
:203E700038A00AF0BDF9404614F018FB38B15D484168B4FBF1F04843231A0FD023E0404616
:203E90008DF81400444600944B2101940222029440A303942BA004940AF0A2F9384614F0AC
:203EB000A5F9022FBABF7F1CFFB247464046009752210190524602903BA3039021A0CDF88F
:203ED00010800AF08DF9641C00944046CDF80480552102905246039036A3049019A00AF08C
:203EF0007FF903E0444647464046079016F056FD80B236B18642C6BF801B401E801B86B298
:203F100000E04646B9F80200401C80B2A9F802000090404601907C210290524603902AA373
:203F3000049008A00AF05CF915F0CEFF0698314BB6FBF0F11868401A16F034FD16F02EFD26
:203F500086B2FEE65461736B434C4B2E6300C0467377697463685F636F756E743A25640054
:203F700042726F616463617374207374617274732E2E2E0061647665727454696D65446199
:203F900074615F742E62634F6E54696D653A256400C046C042726F6164636173742066691F
:203FB0006E69736865642E006164765F6D6F64653A25640062635F6F6E5F74696D655F6375
:203FD0006F756E743A256400636C6B436F756E743A2564008C0C0020D02E0020EC2E002032
:203FF00030BA01002C2E00209C2D0020FE2E0020C42E0020B42D002010B54FF4DF6223494F
:2040100023480BF02DF923480021017001220223027243760322204904230A70CB70052102
:20403000417707231D491E480B7008240C72062209210270017210BD2DE9F041194A1A498C
:204050003820136854689568D6681769D2F814C0D2F818E0D2F81C800B604C608D60CE600E
:204070000F61C1F814C0C1F818E0C1F81C8020322031401EE5D1106853689468D2680860A5
:204090004B608C60CA60BDE8F08100007CC101004804002151030021C10300219803002178
:2040B000740300216CBA010000C000212DE9F047DFF8AC916B496C4E89F8000009220020B5
:2040D00008600D23694840F21D1102704380818067480660B77E67480770FF2FF17E417033
:2040F00008BFFF29327F8270737FC370B57F0571F67F467114D1FF2A08BFFF2B10D1FF2D17
:2041100008BFFF2E0CD15C490A7802704B7843708A788270CB78C3700A79027149794171DB
:2041300056490278564D574EDFF85C810A7043784B7082788A70C378CB700279534B0A716C
:2041500040794871FF2028706870A870E8702871687100204E490880776B4E49787808704C
:204170003A784D491A70B87808707A6910794B4A411E1170F8784A4988F80000B8690860C8
:2041900008B914F043FEF869464C206008B914F03DFE2068DFF810A101688847226852F87A
:2041B000041F5046884741484149CAF82000CAF82410386A3F49086008B914F027FE786A1E
:2041D0003D4C206008B914F021FEB86A3B49086008B914F01BFE05F055F907280CD108F0AF
:2041F000EFFE99F800004FF4804108F05FF8BDE8F047002014F00ABE3148016888472268DB
:20421000074610688047216851F8042F00209047F16898F800000A882A4B2B4902431A80C3
:2042300038460A6890470C21284816F05BFB284800680E2115F070FD284616F04FFB16F071
:2042500049FB4FF6FF7223488280002101604FF4005199F80000BDE8F04708F027B800BFCE
:204270006E4F0020044F0020B63F0050604E0020084F00202C4E0020E81200503C4E0020C6
:20429000344E002074C801006C4F00207B4F00200C4F00206D4F00206B4F0020724F002058
:2042B000F04E0020F44E00207C4B0020799D0100999D0100F84E0020FC4E0020A02E00203B
:2042D000E00A0020544F0020E40A0020F84D0020B02E00204C2E00202DE9F84FDFF8B4927C
:2042F0000F460446F80B80F00981A54EDFF88482B80F80F0BA80B80880F0AE803809C0F082
:204310002F81082015F01CFE002840F0A080802015F016FE002840F09A8068460AF068FEE5
:20433000012803D10098002800F0918090480078002840F08C8000250124E8B215F070FBA7
:2043500048B1837A3BB1847290F9090004FA00F0C0B212F0A7FF6D1C032DEED345460320B3
:20437000287405F1AC0015F03BFF83480168002398461A46036050F8081C804940F8088CB7
:2043900005F1340015F048FF404606F0D2FB3068006B8047A968401A010BA869C1F1FF3219
:2043B00082422CBF08444FF0FF30A861287F20B1E868A969B1EBC02F25D914F0D7FC4146BA
:2043D00000B12146081C1BD06E4840F60901018043464380417B04F00F0221F00F010A43B4
:2043F0004273017B03F00F0621F00F0146EA01020273436015F024FC418811F4406FFBD09B
:204410002C774346AB6112F0B5F85F48444641460460022014F0ECF9022012F00FFF11201B
:2044300009F0DAF8287818B96868383015F008FF5648007810B90E2009F0CEF8687F18B170
:204450006C77052012F0FAFE514868612C740EF09BFE27F0080783E007F066F8454674359F
:20447000286808B927F002077AE015F0C5FEB3468246DBF85400016804208847D8B1207C30
:20449000C8B1454608352868A8B10646DBF80000E568006B8047801BE060000BE060A84234
:2044B00002D240194008E06040F6C41181422CBFB0F5FA7FE160504616F008FA12F026FC5D
:2044D00090B1A56920466FF4807100224FF00073A847464606F16C052868002808BF47F056
:2044F000020701D00EF050FE2046646900214FF080630A46A04727F0005731E015F07CFEDB
:2045100049460E6846B306F1280106C90A234FF0E0450B40154008BF002B1DD106F128016D
:2045300091E8300006F1280393E8060006F12803AA43A14383E8060016F0C8F9B16869B1C1
:20455000002D08BF002C09D030692246B6F93C10B4682B46A04701E016F0B8F927F4804768
:2045700027B148463946503015F076FEBDE8F88F69140020D012002014100440853701005D
:204590008C010010242D0020000004605AB9010071C9000050130020A2488078FF2800D1EE
:2045B00070472DE9F84F15F059FA054605F217100178012908BF417800F0A78005F1740072
:2045D000817B022903D105F174010020887305F59274E18911B1207B07F068FE6889DFF85E
:2045F00048C2DFF8489228819CF807209CF80A009CF80C109CF80B709CF80D3000EB020869
:204610008844B84405F58D779844BB885B1CBB803E8846443E80B7F802E08644A7F802E009
:204630004FF01C0E2368E3B1D9F8006095F806B006F10E0A0EFB0BFB0E361AF80BA033F824
:204650001AB0C34423F81AB095F806A00EFB0AFA16F80AB003EB4B06B6F84AA08244A6F851
:204670004AA0002A04BF9CF80B20002A05D1002904BF9CF80D10002926D02989E88941185C
:204690000026A9812E74287F012804BF688CE8839CF8010068B10121297705F1740188784B
:2046B000002804BF887B002803D1087F08B9688CE883207D002832D0022804BF9CF80B0006
:2046D000002827D1002129E0EA8340B1297F012600200129287406D1688CE88303E0F888D4
:2046F000401C0226F880A8892989814206D08842CED2081A41F2AB029042C9DA287C08B1F4
:20471000052901D0082100E03E212846BDE8F44F14F085BA9CF8090008B1022121754448EE
:204730009CF80F2001682868D30709D5DCF81020C26001F11400A97949010022425010E0B9
:20475000AA791431520189582161D9F80020A97902F108030EFB01F15A58C2600020E883C0
:204770002877344841690A78900703D59CF80E00802800D1812005F1740A8AF80000284653
:20479000FDF768F801284AD0012128460CF066FE284613F0C0FFFDF7E5FA01283FD001F056
:2047B000A5F8DFF89490D9F80000C0B3B9F80400AA7990421CBF4FF6FD7188422FD11F48A4
:2047D000007A15F0D9FA040029D02670A879608095F83910217195F8960160719AF90010E3
:2047F000A171A4F808807888608115F0B5FA050005D1FF204FF0FF312073216109E02878D7
:20481000207316F08FF80146A86816F05BF8800820612046D9F80010BDE8F44F0847BDE88C
:20483000F18F00BF684E00205C4D0020902E0020942E002074C801004C2E0020980C00202F
:204850002DE9F84F050046D0DFF8509299F80000092818BF0A2804D00B281CBF0C280D2801
:2048700001D1212018E1A878002108F049F9040008BF4220F6D0A8788949087004F1480700
:20489000F868417801F01201022902BF786900280C2012D0607AF0B1A07B012804D1B5F8A7
:2048B000030008B1812816DA6878402813DA20460AF024FDB86808B90720EDE0BD6128784A
:2048D00001281BD1A07B00281CBF0128042815D17448007808B91220DEE073494A78824233
:2048F00008BF0920F8D004F1220004F13801427F802006F02DFB08B10B20CDE0687808B9FA
:204910001120C9E02878694EDFF8A4A1DFF8A4B1012840F08980207A0021012821734FF0F5
:204930000A0811D19BF80000402112F0CBFBB5F8030008FB00F1402013F0EAFF0100E0D115
:20495000B96968794871A6E001202072E17261730AF032F86060DAF800008047564A0146C7
:20497000106802E06268426000680028FAD1084631688847616851484861F8684178C8065E
:2049900005D5204601F016FF01000BD084E00020608415F0B9F984F821002046FDF728FEA9
:2049B000010079D1F8684178C8071CD504F14206B18800291CBF3868002814D032788A4227
:2049D00011D20F2014F08EFC68B1F86801788DF80010B088ADF801000F2031788DF8031052
:2049F000694614F033FA99F80000002853D13449087800281EBFF868417811F0030F1CBFE1
:204A1000304813F0FFFD112089F8000001212172B5F8030008FB00F1402013F079FF010028
:204A30003AD100F063FF36E0207AA8B3DAF80000804705469BF80000402112F043FB0020C6
:204A5000207215F0D7FA012804D015F085F96168884217D11C4A1D481368006853F8384F63
:204A70000021A04740F2014015F058FF18491948086001219BF8000007F018FC316828465E
:204A9000884708E0204613F07FFA316828468847204614F0FBFE0020BDE8F28F6F4F002010
:204AB000F82E00207B4F0020684E0020E40A0020E00A00206E4F0020AC2E0020895F000009
:204AD000784E0020CC470020F04E0020EC4E0020204F0020A56100002DE9F04F8246DAF871
:204AF0000070DAF804600C465FEA0208ADF11C0D14BF00214FF0FF31DFF84092484615F0F5
:204B10001CF8002818BF0B2040F0158100258F488C4905708A48FC60524615F07DFB317B4C
:204B3000272015F07BFBB8F1010F07D06570022012F07CFE062012F079FE01E0012060702F
:204B50002078012840F2AA80801E012868D9801E012833D9801E012800F2DE8015F04CFBEA
:204B700083464FF0805000F5EE77D0F8DC01A378466A009321782846062908BF0120019041
:204B900001200290A068228AE1686368B0478146584615F09BFEB9F1000F40F0BF80B8F1BF
:204BB000000F02D014F08CFD02E0504612F0C8FB002800F0A3803868806A2AE015F01CFB4F
:204BD00083464FF0805000F5EE77D0F8DC01012306680093A168A27860682478AC46042C20
:204BF00008BF9C466346B0478146584615F06EFEB9F1000F40F09280B8F1000F02D014F0FD
:204C10005FFD02E0504612F09BFB002876D03868406880474C49C1F8B0510D6081467DE0BB
:204C300015F0EAFA83464FF0805000F5EE77D0F8DC01E38A86690093E0680190208B02909F
:204C5000A0780390207D04900121059122782846022A08BF081CE1786268A368B0478146A5
:204C7000584615F033FEB9F1000F57D1B8F1000F02D014F025FD02E0504612F061FB0028C1
:204C90003CD03868006A80475FEA000946D1E078A168E28A23690BF0A5FDBFE715F0ACFA77
:204CB00083464FF0805000F5EE76D0F8DC01E38AC7680093E0680190208B0290A07803901E
:204CD000207D2946049001200590257805B9014608466268A368E178B8478146584615F0E7
:204CF000F5FDB9F1000F19D1B8F1000F02D014F0E7FC02E0504612F023FB08B914201AE017
:204D10003068406980475FEA000907D1306802692169E078904781E74FF0FF39B8F1010FFD
:204D300005D0022012F08AFA062012F087FA034815F086FA484607B0BDE8F08FA807002035
:204D5000E0070020A582010050450240EE2E0020F0B5804D80492846ADF1440D0FF05AFE12
:204D70007E4C0021204615F0A9FD7D487E4904607C4800221523009010200CF003F87B499E
:204D90001020002202230BF0FDFF012600248DF83C600FA88DF83D60754F8DF83E404FF446
:204DB00080628DF83F6033460090394610200BF0E9FF0DF13D0040F2024233463946009009
:204DD00010200BF0DFFF0DF13E0040F2034233463946009010200BF0D5FF0DF13F0040F211
:204DF000064233463946009010200BF0CBFF614910204FF0FF320BF0C5FF5F4910204FF0BE
:204E1000FF320BF0BFFF13F099FC28780FF0A0FA5A4814F0A1FD05A8214628220CF0A9FA86
:204E30003046142105AA0DF0BBF80220142105AA0DF0B6F85249534A10200BF0A3FF297801
:204E5000502013F04FFA5049024610200BF09AFF2978502013F046FA4C49024610200BF085
:204E700091FF4B491020FB2240F648030BF08AFF484910200BF086FF4FF6FD7013F0AAFA12
:204E90002978502013F02EFA27460346424900970422102001970BF075FF404910200B22AB
:204EB0000BF070FF07F0C4FF3D4D102087223346404900950BF066FF3A4C20B92878401C09
:204ED000C1B2217000E020783749287087223346102000950BF056FF374D28690090E86802
:204EF00040F21F3101903246029713A303970EA0049709F075F9314869682F680068AB6822
:204F1000EA68B1FBF0F16960B7FBF0F1274F2960B3FBF0F1264BA96050431E70B0FBF7F08B
:204F3000206111B0F0BDC0467065726970686572616C2E6300C046C02A6261745469636BFD
:204F50003A25642C202A73656E736F725469636B3A256400D42D0020D82D0020F02D00209D
:204F7000DC2D00202C0B0020093A010085730100B5630000418A01003D8F0100000D002086
:204F900051910100F80C0020518801103181011021B10010A5FE0000817E000081B3001085
:204FB000D42E00209C2D002033910100008793038C0C00201D8A0100B02D002030BA0100AC
:204FD0002DE9F04781460E4699F80000904D7071688800123072A878707299F800008D4CFA
:204FF000B07068880012F070A87817461822ADF1500D04F16001387105A80AF031F9182263
:205010000BA804F118010AF02BF999F800000FF2C81A5C21012200900020019072A30290A5
:20503000804603905046CDF8108009F0D9F899F8003063B35B1E11D02878B0716878F0711F
:20505000228963891721384614F07AFAA07DB87620880012F8762078387743E0287AB071DB
:20507000287B04F178011822F07105A80AF0F8F80BA804F1300118220AF0F2F8A28A6388CF
:205090003846172114F05CFAA288E38826E0A8880012B071287904F190011822F07105A883
:2050B0000AF0DEF80BA804F1480118220AF0D8F8B4F84C0045460090652101950122029532
:2050D0004EA303955046049509F08AF8A289E3893846172114F034FA228A638A38461A21BC
:2050F00014F02EFABDF82020BDF8223030460A2114F026FABDF82420BDF8263030460D210B
:2051100014F01EFABDF82820BDF816303046102114F016FABDF81820BDF81A30304613211A
:2051300014F00EFABDF81C20BDF81E303046162114F006FA9DF82A009DF81440BDF81450ED
:205150000521BDF838207076BDF83A30F4762812B076384614F0F4F9BDF83C20BDF83E309A
:205170003846082114F0ECF9BDF84020BDF82E3038460B2114F0E4F9BDF83020BDF83230C0
:2051900038460E2114F0DCF9BDF83420BDF836303846112114F0D4F99DF842009DF82C40FC
:2051B000BDF82C5012A9324638753B46BC752812787511A80FF096FD9DF8440030779DF895
:2051D000485075779DF845407C779DF84930BB7714B0BDE8F087C0464461746150726F63FA
:2051F0006573732E6300C046616476446174617374617475733A256400C046C0636F6D623A
:20521000696E6564446174615B335D3A256400C09C2D0020242800202DE9F24F054684B0CB
:205230002868D0F80490D9F8080015F043FB002805F59A7B40F0058128680169049815F0CE
:2052500041FB05F1820680463078002805F12E0440F6C41A00F0878070882989401E80B281
:2052700015F078FB0746307802280CBFBBF83000A088784300902868016900980AFB0011BE
:20529000049815F017FB002868D07F1C03973078009F039A02280CBFBBF83000A088C719F2
:2052B00000230AFB07F0029201930090296809694118049815F0FEFA90B100983189A8EBEC
:2052D00000080AFB01F0B8FBF0F200FB1288B8F1000F18BF521C51430191039952180292D9
:2052F0002989029841186981F18801983278CF19C719012A48D105F18601284613F0B6FDA6
:205310007089688400212977E983E88969894118A9813289A188B0898A4204BF2389984253
:2053300002BF7189E388994207D0000900907389A9795208002015F015FBA088ABF8300044
:20535000317921703089A0807189E180B0892081284613F0D5FF0220307015E03178012925
:2053700018BF13F053FDA08829890AFB00F0B8FBF0F700FB1788B8F1000F18BF7F1C791835
:205390006981BFB2A08847432968344A08690AFB0700C9F808000B78802B10D1C860D2F89A
:2053B0003080A388D8F8000043436420B3FBF0F3D9F814000AFB03F3A3F5966343610B78FF
:2053D000402B36D1AF614FF4C873688A4743B7FBF3F0401C6861D9F80830181AC9F8080083
:2053F0006B69DBF8000000EB4300D9F8143058611B4833780068022B0CD1AB795B0100F109
:20541000140656F803C026780AFB06CC00F1140646F803C0AB79126B00EB4316A388106848
:2054300043436420B3FBF0F30AFB03F0A0F59660F061D9F8080088602846E17AA17211F04F
:205450001FF86989A88915F085FAE989814238BF0120ABF82E0005B0BDE8F08F74C801004A
:20547000942E00202DE9FE4F8A4C617811B9002013F0CCFC15F056FA06464FF0000806F68F
:20549000C4160027844DDFF8149211E0384614F0E5FA417951B12A68817902F8081008F108
:2054B00001015FFA81F83146FFF7B6FE7F1CFFB299F800008742E9DB6178884505D00020E2
:2054D00013F0A4FC8220FBF767FD6078012840F0C380002701E07F1CFFB299F800008742FF
:2054F00080F2B480384614F0B9FA064670790028F1D02968B0790A7890421CBF002013F097
:2055100085FCB079A0E0286810F8090014F0A6FA00684268DAF808109068814204BF3E460E
:2055300009F1010900F0A680A8E0286890F800B001224FF4D0710FE0636803F5B176835C92
:2055500001FB03F901FB0BFE36F809C036F80E60B44538BF9B46521CFBB29A42ECDB4FF6D7
:20557000FF700BF0F3FF0646584614F077FA4C490068D0F804A00868D94630F8192060683F
:205590004FF4D07300F10E0103FB09F3C85AB2EBD00F52D2720840F6C410424300920027F7
:2055B000404A0190029217E0584614F057FA01680A78802A03D1DAF81430009A5A610978ED
:2055D000402908D1029980790A6802EB4011009800F5A060C8617F1C47452EDA2868C05DA3
:2055F0008345F8D001464FF4D073594363685A1803F5B173D289595A53088B4202D2521AD3
:205610009045E8DA14F02AFA01684A68019B9168DAF808207008A1F6C41103FB002015F00A
:2056300049F90028C0D01E48006830F81910491C20F81910286810F807B019480268002160
:205650005B4622F813105846BDE8FE8F002013F0DDFB8220FBF7A0FC617828680DF00BFBF5
:205670002868007814F0FAF900260068D0F804A04FF00109771CC145FFF645AFF6B2002E80
:205690001CBFF8B200287FF450AF286890F800B065E700BF684E0020004F00207B4F0020D9
:2056B000A42E0020942E00202DE9FE4F8648DFF81C920278002A41D0D21F012A4ED90A3A14
:2056D00040F0FA80824C2078002107F019FA04001EBF606D407810F00C0F2FD0C00603D561
:2056F000216D886D026802E0206DC16E0A6802F108050622A91C684614F042F8287800F034
:205710000F0105291AD16946C0F3801015F0FAF8002813D04946684612F062FA05464946E7
:2057300004F1380012F05CFA85420DD0606D4178C80604D440F2014015F0F0F8C2E0607B27
:2057500040F002006073BDE01E20454309EB050006226946C01D14F013F8B3E0DFF874B186
:205770009BF80200FF28F8D014F078F9804608F16C06706815F09AF800900179032907D172
:205790008068047814F0030403D1706815F08AF898E04578032C00F1020A08F2171706D1F7
:2057B00098F8940000284AD0042D11DD1CE0A5B1307868B108F1F400017801290DD1424A47
:2057D0001178072904D0082904BFC078012804D13D2179700120387074E03F490A78012A69
:2057F00070D098F8940050B32D1FEDB253462A46214640460AF09CF938B93D20787001216A
:205810003970484612F003FA5CE0344801688847814698F80610DBF804204FF4D0704143E7
:205830005018002280F8412108F59E700168807949080CF0A9FE2A490A68484690470099B0
:205850000020032C886016D0264841690878820707D5C0074CBF0320002040191AF800009E
:2058700000E08120307223469BF802002A46514603F0B2FE18E09AF800001A2803D21A4A48
:20589000115C8D4205D0B870072140460CF06EFD07E00D480178082903D051464046FAF7E3
:2058B000C5FB50460EF0CEFE706814F0FBFF0099404611F0B7FA05E0002013F0A7FA8620C2
:2058D000FBF76AFBBDE8F78F6F4F0020DC250020F72E0020684E0020794F0020E00A00202A
:2058F000E40A002074C80100ACC801002DE9F84F894E716884B0009121B905B0BDE8F04F93
:2059100014F0CCBF0978DFF81492DFF81482854FDFF814B201291CBF0229042941F64C5AD2
:2059300004D0402918BF802970D0EBE014F062FB0028FAD00098007804F02AFD054614F0C2
:20595000B5FA04469BF80100002841D0FFF78AFD14F084F80290016800914968019194B160
:20597000009928460CF0DAFD02280CD029780129DBD118B914F0D6FF5044A0600120B07041
:2059900011213970B8E00098017880290BD108203870019998F800204869012A0BD0D9F84C
:2059B00028100A780DE007203870019998F800204869012A02D10121C17203E0D9F8281027
:2059D0004A78C2720298817900988BF8021094E0002DAAD000992878A94208D1012802D1EC
:2059F000002C03D194E0002013F010FA84E001289BD1002CF6D014F095FF00F5C241A06873
:205A1000A83114F057FF002872D16DE09BF80100002859D0FFF726FD14F020F8044620689F
:205A3000019045689BF8020014F018F8039014F0E7FA10F0070F21D0B07804F0A9FC00909F
:205A500014F034FA0290C8B1019900980CF066FD022813D000990A78012A0CD128B914F053
:205A700061FF82440298C0F808A0112139700120B070009841E0002013F0C8F90398A042C0
:205A900020D00199087880280DD10821397098F800206869012A02D10121C1720FE0D9F800
:205AB00028100A780AE00720387098F80010686901290EBF0122D9F828104A78C272A079C0
:205AD0008BF80200019818E014F09AFA10F0070F1ED0B07804F05CFC054614F0E7F9044617
:205AF0002878012814D19CB114F01CFF5044A060112038700121B170284605B0BDE8F04FC5
:205B10000AF010BA05B0BDE8F04F002013F07EB905B0BDE8F08F00BF142E002074C8010087
:205B3000734F00206F4F0020684E00202DE9FE4F05467B48002400680094C00905D37948CC
:205B5000007810B9202011F0CBFC012D40F0E280DFF80092D9F8DC00012840F0D880022043
:205B7000C9F8DC0013F040FD012011F0B9FC5FEA000805D00120C9F8DC0013F041FDCBE091
:205B900014F066FBA34602906748684DC0F800B0A86A016801208847012804D158460CF046
:205BB000D7FA012000906248624FC0F800B03868112014F0BFF900B10124102014F0BAF946
:205BD00008B144F002040F2014F0B4F908B144F004040B2014F0AEF920B12868564E016BA6
:205BF000308888470A2014F0A5F920B12868534E016B3088884752480126066028688169AC
:205C100044F0200088474F48066014F08DF900F001010191400814D2286A81684A4888473C
:205C30008246BAF1040FF7D0BAF1010F04D1286A42684548032190474449086820F00300A3
:205C50000860584600F088F82B683868986B8047019801280CD0BAF1010F04D1286A426857
:205C70003948314690473949086840F0030008602F48066028684169204688470B2014F03D
:205C900059F920B128682C4BC16A188888470A2014F050F920B12868284BC16A188888474B
:205CB000274806600322C9F8DC20264BC3F800B02868416B204688470128F9D13868042019
:205CD00011F00EFC0446184806603868144800688009FBD30098012802D130460CF038FAA6
:205CF00014F010F9082011F0FBFB07460298C9F8DC6014F0CFFD164800880BF093FF13F03E
:205D10007FFC57EA040018BF4FF0FF3804E06FF0040801E06FF001084046BDE8FE8FC04610
:205D300014100940340500200C400940B8010010000222432C200940D6B40100D2B4010021
:205D5000282008608001044300400340242208406CB801004C0400202DE9F84FDFF804B22B
:205D70000746ABF13500DFF8F0810068800880F0E28075480068006880477E490831D1F8CE
:205D9000009000254FEA29715FEA995201F101010AD2C0F13E0210F10A0F4FEAE202D8BFA8
:205DB00008229142B8BF111C684BD3F87C21C2F30462162AA8BF203A1B68C3F30443162B3A
:205DD000A8BF203B9A465218162A05DA12F10A0FB8BF6FF0090200E015225D4B5D4E02F02F
:205DF0001F0141F4F8511980316811F0030F18BF0125C90828BF45F002050FB145F00405C1
:205E1000434693F90710411A052904DA9979A94208BF99886FD0DFF844E10F28A0F10F08E0
:205E300029DB08EB0011A1F1F0084FEA28210091072984BF07210091062988BF06215EF88E
:205E500021600424774604EB81043C594FEA950CA41BEE0804F0FF0124BFC4F30726314404
:205E70006F08AE0824BFC4F3074631446E0828BF01EB146104E000214FEA950C6F080091E4
:205E9000009C5EF824E05FEA5C060EF0FF0424BFCEF3072634447E0824BFCEF30746344418
:205EB0006E0828BF04EB1E64009E89B2A8EB06267143803104EB1124AAEB02010029D8BF8B
:205ED0000121342209F0FF074A4391B24FF6FF727943B1FBF4F18A4238BF111C802889B295
:205EF000998005DA10F1800FB8BF6FF07F0000E07F20D8719D711A4800681F2918604FF016
:205F1000000008D340F2FF128A4206D24908401C8A42FBD301E01F219980134F0F39090972
:205F300040EAC10047EA0001CBF8FB1F0026CBF8FF6FBDE8F88F0D490D4F434608200F6002
:205F50009B1D1870BDE8F88FEC0100103C1100506E620840242208405C2E00209C130050DC
:205F7000082009403500094000E7A48030100940FDFDA400AC3F00502DE9F84F824A8346C3
:205F90001078002106F0BCFD9BF80010044601291CBF002012F03AFF14B9002012F036FF28
:205FB00004F14C064FF47A67B0684178D6F804A0C8064FF00B0841F64C592CD50AF17800B3
:205FD000002101808170C17001714171C18001818172C172C160A07B01281BD014F0A2FCEE
:205FF0000AF108054844296814F064FC002811D014F098FC4844286014F048FC0B2290FB53
:20601000F2F2296808FB12081FFA88F007FB00172F60276183E00AF174010020088400227C
:206030000AF19600027042708270C2708280C28002724272CAF8A0200AF1080514F072FC0F
:206050002968484414F036FC88B114F06BFC4844286014F01BFC0B2290FBF2F2296808FBDA
:2060700012081FFA88F007FB00172F6027610AF14007607DC1064FD5287AA27D521CC0F349
:206090008001002392B200F0030010F035FCA0831E20A28B02F5FA731E2193FBF0F001FB49
:2060B0001030C0B208B1C0F11E009BB28C46801893FBFCFC00F5FA7002F5FA7201FB1C314E
:2060D0006083A283C9B209B1C1F11E018A18A28380B2E17D491E92B202FB01026283608BD0
:2060F0002A68C03002EB800139620220F877618B02EB81022A63287A18B9397809B120325B
:206110002A63A18C286BC03100EB8100CAF8740002208AF8730002E000213962F9776168A1
:2061300070681A4A8A614860B2685078C3065CBF102088615078830703D5886940F4002032
:2061500088615078430704D5886940F40000886188610F4B187800281CBF507810F0030F9D
:2061700003D0886940F4802088610020B1683070087E10F0300F04D05846BDE8F24F0FF099
:206190003DBABDE8F18F00BFF72E002002000080784E00202DE9F84FDFF8F4A19AF800000C
:2061B000002106F0ADFC040004F1500602D112F02DFEDEE0207A30B9204611F0E5FE2046CF
:2061D00013F064FB1EE0207BDFF8C881401C20730121E17230694079C0B1217B814215D128
:2061F00098F80000402110F06DFF00202072204611F0CAFE204613F049FBFF2243212046B9
:206210000DF09AFEBDE8F14FFFF770BB04F14509002089F8070014F039FBD6F804C027698E
:206230000146DCF803004FF00B0E20F07F4040F6C41391FBFEFE0B2203FB007702FB1E11A6
:2062500089B24FF47A604143306889B200F10805C9192960216104F122079CF80110CA0601
:2062700018D5A17B01290AD100202072204611F08BFE98F80000022106F018F865E090F8D8
:20629000731001F0E00141F0860180F87310424941675AE080460020A8F8020008F1600B8D
:2062B000217EA971607DC10606D5618B2868C03100EB8100CBF8000008F18800217D01706A
:2062D0000021627D4270C17081603888401C388080B213F019FD84F821000022617D01F03D
:2062F000FE01204606F0DAFC0020E882E17D6984688508F13E0094F8211001F03F01017005
:206310002A68618B02EB81022A630022028299F800108183726851788A0709D5B98879805B
:206330000121A27F02F03F0242F08002A2778183E07FC10609D57988286BC03100EB810011
:20635000CBF8140002208BF813001449087880B1387F022818BF03280BD1114F07F10D006C
:2063700014F0D4FA28B90622F91D04F1300013F007FAFFF7BBFA4CB17068017E480605D5CC
:206390005146BDE8F44F032012F060BDBDE8F18FF72E00206E4F002000204E00784E002091
:2063B000DC2500207FB5804D03461446084600261946A1F58062132A04D9183A33D0921E9E
:2063D00022D015E0DFE812F0E4001400DD00D600CE00C500BE00B9001400AE00140014005E
:2063F0009D009200140014006B0052004B003700092907DA022805D10846218810F0BAFF34
:206410000646CDE00226CBE0002840F0C88014F099FA30B90CF0EEF80646502013F076F871
:20643000BEE00C3587E0012840F0B980002C00F0B6800D3584E0602800D13CB9012840F0D5
:20645000AE80002C00F0AB80093579E005F178002146602213F094F901206872A0E0012895
:2064700040F09D80207814F00DFA99E0012840F096802078022800F39280002800F08F8046
:206490002B4603F1080108702078022818BF301C02D11020D871012014F0F0F980E0072838
:2064B0007DD1611C01A8062212F090FF33460093217801A803AA07F031F8A8B914F042FAE3
:2064D00050B99DF80C0005F097F90646502013F01DF80EF089FD63E09DF80C002A460121AF
:2064F00002F1200529545BE0342659E0012856D1A87A21780028A97252D1207801284FD1D7
:20651000E7E7297A01284AD1022904D02078072801DB102804DD022941D1207810283ED1DF
:20653000E8713DE000283AD114F00CFA10B913F0A2F9CAE70B3501211AE001282FD1AD1D31
:20655000217815E001282AD12178022927DA6D1D0EE0102823D1284621461022383013F09E
:206570000FF91DE001281AD12178022917DA2D1D297015E0012812D1217804290FDCED1C9F
:20659000F6E701280BD12178022908DAAD1CEFE7012804D121780229D8BF6D1CE8DD1826DF
:2065B000304600907FBDC04660050020F8B57F4F04463868C16E0025002940F0F380102049
:2065D00013F0D2FB39680028C86600F0E9808E6E1022214613F0D4F839680878002840F0AE
:2065F0009080C86E00F10C02D6F8980092F800C000F001030CF0010C634518BF00234008AF
:2066100043EA4000C6F89800C0F34003D2F800C0CCF3400C634506BF430803F0010300234A
:2066300020F0020040EA4300C6F89800C0F38003D2F800C0CCF3800C634506BF830803F07F
:206650000103002320F0040040EA8300C6F89800C0F3C003D2F800C0CCF3C00C634506BFF4
:20667000C30803F00103002320F0080040EAC300C6F89800C0F30023D2F800C0CCF3002C7F
:20669000634506BF030A03F00103002320F4807040EA0320C6F89800C0F34023D2F800C00F
:2066B000CCF3402C634506BF430A03F00103002320F4007040EA4320C6F89800C0F380230E
:2066D000D2F800C0CCF3802C634506BF830A03F00103002320F4806040EA8320C6F898008A
:2066F000C0F3C0231268C2F3C022934206BFC20A02F00102002220F4006040EAC220C6F828
:2067100098008A6E92F89500030718D5C86E4368C3F3C00098B1C87840F00800C870D6F8A5
:20673000981023480140C6F898103A68D06EC16821F48071C16049084900C16003E092F837
:20675000330001282AD0607800281CBF7178002908D13968CA78130708D5002804BF707860
:20677000002803D03868052101711CE06068C0F3800040B996F8950010F0040002D10120CB
:20679000087110E00AD00878002819BF307821783178207814F06EF8054604E0182502E0EC
:2067B000132500E011252846F2BD00BF304F0020FEFEFFFF2DE9F0475FEA000A04BF002083
:2067D00012F024FB0AF1500700243E68DFF8C881DFF8C89179684A7A18206043012335182B
:2067F000A3401A420AD09AF80E1039F811002880002118F80420AA73E97302E040F60100EF
:2068100028800021698005F118006860287B00F0EF00287340F0800028739AF80E1001299E
:206830000ED141F28830A860297B01F0F00141F005012973687B00F0F00040F0020017E031
:20685000002C0CBF0221002100F0F0000843287324B914F067F800F57A6000E00020A86010
:20687000022C697B0CBF0120022001F0F00108436873641C06F15800286106F17801022CEA
:206890006961A7DD9AF80E0001280EBF766300207063B068CAF8100011F04AFBB06540486B
:2068B00081690878C2074CBF1022002281074CBF2023002341074CBF4024002400074CBF50
:2068D000802000201A43224306F15C01024342F00F020A70002048707A68907C00F0030017
:2068F00048700AF13E004B78027862F382034B701A46407860F3C3024A7042F01000002277
:206910008A70CA704A608A6048700AF138020A619AF80E00012818BF042813D0B86830B197
:20693000B0F803008870BA68D2F805004860F86830B1B0F80300C870FA68D2F805008860CE
:20695000184808610AF13002C87D174BCA6000F0EF00C87540F08000C87500F0F00040F047
:206970000600C875114A8A61187838B148780A7840F0400002F0FE0248700A700C4A9378CE
:2069900048785A064CBF40F0200000F0DF0048700020BDE8F08700BF409A0110109A011044
:2069B00074C80100D0470020784E002000204E00742D00202DE9FE4F0E468246307AC1064E
:2069D00093461F464FF000090CD5584613F04EFF030000F0E8800A223146504698475FEA96
:2069F00000094DD130780C9D0D9CDDF8388002281AD170680178407801EB002189B24FF430
:206A10002052891A012910D9891E3AD0491E14D0FD397AD0491E00F08180491E6DD0491E5F
:206A300073D0491E00F09580ABE0002C2AD1F068017829800278416887E0002C22D10120A1
:206A50002880F1680A783A7000217089401C80B213F008FF298860B10278921C511829804B
:206A7000418979704289120ABA7041680278F81C6CE0091D298004220021781C13F0FEFB19
:206A900093E0002C66D1F0680688042129803E70320A7A700DF10201304613F0E3FE040029
:206AB00021D0D4F80C80BDF802204FF6FF766B46314613F0D3FE40B9237862683C480221EB
:206AD00013F0C8FE08B9ADF8006098F8000002280BD1D8F804100222381D12F051FE288823
:206AF000801C288001E0ADF80060BDF80000B870BDF80010090AF97057E0002C2AD1F06888
:206B10000168504613F040F802E01CBBF0680088022129803870000A787046E0F06813F0AB
:206B3000B1FB80B2A042B8BF4FF007093DDB844208BF002205D008EB04028242B4BF42466B
:206B5000021B2A8092B2F0680119384612F018FE2BE014B14FF00B0927E0F06807212980BF
:206B700002783A7043787B704188B9704288120AFA7001793971C2887A71C088000AB87125
:206B900013E0584613F062FE5FEA00090BD00F980290CDF8048000942B463A4631465046B0
:206BB000C847814601E04FF00E094846BDE8FE8F64BA01002DE9F84F7A4DDFF8EC812878D1
:206BD0000E46F10BC90328D1A869F1080FD2300938BF0020C0F0E480A87B012804D1414699
:206BF000087808B909F0C6F886F00806D7E088B112F04EFB071C0DD0F87A58B9384613F0CA
:206C1000C7FA7A68B97A388903F0C4F8786808B113F0BAF886F00406C1E00BF0ABF8071CEE
:206C300000F0BB80044620784FF0010BB0380FD0401E03D01F3800F09E80A0E0207900284E
:206C500040F09D807888F9883A890CF0EFFDA1E02079401E40D0083802D074387DD084E0B4
:206C700060781A2875D06088804612F09FF8801E18D0401E79D1208901280AD1608903286F
:206C900007D1E1688A78404604210CF0A1FD024600E018226869002867D04368002B64D0E0
:206CB000042116E0218960885A460129804609D16189032906D1E1688B781BB910210CF073
:206CD00087FD0246686900284FD04368002B4CD005214046984748E0217A608804F1080A91
:206CF0000829814635D112F061F8801E0ED0401E2FD16089042100220CF06AFD02466869A5
:206D100038B343682BB36089042121E0BAF80200102100220CF05CFD009048460FF012FA5B
:206D300070B141460B784BB94179831D5A4601F001010846194612F0A4FB01E05846A8733F
:206D5000686930B1436823B1BAF80200009A0521984760880EF09EFB07E06588284612F0DC
:206D700025F8014628460DF09BFB217904F1080013F068FD03E03846FBF72CFA8346BBF1B1
:206D9000000F07D109480078FF2806D0214612F0BDF802E0204612F0A9F886F40046B0B20B
:206DB000BDE8F88F600500205A4F00208B0C00202DE9B04307460D460020ADF1180D0FF205
:206DD0000C19032243A3009704460195804602904A2103944846CDF8108007F001FA38464F
:206DF00048A3801E08D0801E56D0401E47D0401E38D0401E29D01BE0012D0CD000940194FE
:206E1000484602945D2103940322049407F0E8F95E213FA34CE00094019448460294582141
:206E300003940322049407F0DBF959213DA33FE00094019448460294752103940322049473
:206E500007F0CEF976213DA332E000940194484602946F2103940322049407F0C1F9702168
:206E70003CA325E00094019448460294692103940322049407F0B4F96A213BA318E000945A
:206E9000019448460294632103940322049407F0A7F9642139A30BE0009401944846029421
:206EB000502103940322049407F09AF9512137A30094404601900290039003220490484610
:206ED00007F08EF906B0BDE8B083C0466D61696E2E6300C03E3E3E535441434B2041535363
:206EF00045525420436175736520307825303278207375624361757365203078253032789D
:206F100000C046C02A2A2A4552524F522A2A2A003E3E20494E5445524E414C204552524FC4
:206F3000522100C03E3E20494E5445524E414C204657204552524F522100C0463E3E2044A7
:206F5000454641554C54205350494E4C4F434B2100C046C03E3E2057524F4E4720415049D3
:206F70002043414C4C2100C03E3E204943414C4C2054494D454F55542100C0463E3E204990
:206F900043414C4C2041424F525421003E3E204F5554204F46204D454D4F525921007047F2
:206FB0002DE9FE4F704E3078002804D0401E03280CD9801F012840F2D5800A3840F0CC8081
:206FD0006A4B1878002105F09BFD0546686D4178C80603D5296D886D026802E0286DC16E94
:206FF0000A68DFF88C91634F02F108040622A11C684612F0C5FB22781E2402F00F0103290B
:20701000C2F3801A26D16946504613F07BFC002813D0686D807C012818BF032819D13946EB
:20703000684610F0DDFDFF2807D04443781C3A5D011948460DF036F906287DD03C446A4689
:20705000E11D48460BF046FF06226946E01D12F097FB71E002F00F0005286DD14FEA52188C
:207070006946504613F04EFC40F2014B68B33946684610F0B5FD0646FF2E1DD0584613F0EF
:207090004DFC686D807C7443022818BF032807D1781C3A5D011948460DF004F906284BD0F5
:2070B0003C446A46E11D48460BF014FF06226946E01D12F065FB20E0686D4178C80645D54A
:2070D000697B41F00201697317E03078022833D16A46514638460BF001FEFF282CD0444376
:2070F0003819407F012805D007F10D01081913F00DFC08B3584613F011FC686D4178C8067A
:2071100024D51D498878410606D55FEAC87003D4286D41F20A4102E0286D41F204414180C3
:20713000418341861548164A01801648164911600121007805F0BAF8686D4178C80605D5D1
:20715000286D826D1368002119710BE0296DCA6E13680020187105E0002011F057FE862097
:20717000F9F71AFFBDE8F78F6F4F0020F72E0020CC470020DC250020742D0020504F0020D4
:20719000204F00206E4F0020A90800002DE9F04F1E46ADF1340D00904FEA960926F00304A5
:2071B0006848019105680292710809F1020221F001010834091D05EB82000390901805EBF3
:2071D00080000490501805EB80038018059305EB80000690101905EB800340180793801854
:2071F00005EB80000890C6F39C008000083002EB400005EB800341180993831805EB8303C4
:20721000001905EB800B4F480A9305EB8103891800680B9305EB8107C6F3990189000A011C
:20723000002180320AF0A5F84749DFF8208109682846A8F1880290478246D14518BF6FF0DF
:2072500001007BD128464546514605F1680290470198314611F006FF002818BF01206DD196
:207270000298314611F0FEFE002818BF022065D1039E01993046A84704980299A84700983B
:20729000DDF8148081684046A847314B3846424631469846C047012803D14FEA8A057E599D
:2072B0000EB103204AE03846002122460AF061F80499059A3846C047012801D17E590EB106
:2072D00004203BE0244B069D224E0399984628463246C047079804993246C047089E2946A6
:2072F0000A463046C047099831462A46C0470A981A4A2946C0473846002128220AF039F892
:20731000174B09990A9A38461D46A847154A38460146A84707990B9D0A462846C047584627
:20733000002122460AF025F85FFA8AF23946284611F0B8F9012814BF052000200DB0BDE886
:20735000F08FC046884F00208C4F0020B9DB0010C9DE0010400A0020F9E0001038B7010008
:20737000C9E6001058B701002DE9F041734D2B681878002840F0E0805E78D3F86880DF6E76
:20739000062E2FD1D8F89810C80704D53A7BD00748BF072631D4C1F3400000281EBFF8686B
:2073B000C0F34000002808D0092613F0C7FA01462868C08813F042FA10E0C1F3800000282D
:2073D0001EBFF868C0F3800000280BD00B2613F0B1FA01462868C08813F02CFA072E4BD1B2
:2073F00008208BE0F01F0428F8D8DFE800F0062E05370400F2E7EAE7D7E7986D20B91C2032
:2074100012F0B2FC296888652868846D002CE5D013F00CFAA07610220021204612F02EFFC5
:20743000A17E21B11029DCBF204613F0FBF912F0EBFB2082082104F1120013F0F3F92868E1
:20745000C088214613F0EAF9C8E7986DB0B1018A00F11202D88813F0DDF90FE013F066FA57
:207470000446012010F05AFA02462868C08804F0010113F0CBF914E0082E0CD1D8F89800F1
:20749000C0F3400000281EBFF868C0F34000002807D0092032E0092E08BF0A202ED00A2EF9
:2074B0000BD1D8F89800C0F3800000281FBFF868C0F3800000280B2020D1D8F89810C1F33C
:2074D000002000281FBFF868C0F3002000280C2014D1C1F3402000281FBFF868C0F340207D
:2074F00000280E200AD1C1F3802000281EBFF868C0F38020002814BF102012202968487099
:2075100028684178072918BF082904D009291CBF0A290B2910D1C0880EF014FE00281ABF58
:20753000808A00EB50024FF4FA72BDE8F0410448007802210EF0F2B8BDE8F081304F00202B
:207550007C4F00202DE9F0430546880FADF1140DC0F0D2806A4C201D006840688768C66824
:20757000406800B18047002F08BF002E08D012F039FA07B1B84706B1B047624810F002FF9A
:20759000614812F05DFB012003F0D3FA5F4A40F60A0CA2F800C000205080117B00F00F032A
:2075B00021F00F010B4313735060517B4FF0010808F00F0721F00F0147EA01035373AB68C5
:2075D0006E7C58801988A1F60201C9B141F21E07C91B15D041F6E677C91B012920D8597E92
:2075F000012E60F38201597606D0198B21F47C7141F43471198313E0198B60F30911F9E7D1
:20761000597C012E60F38201597405D0198A21F47C7141F4347102E0198A60F309111982D2
:20763000D5F80890687461464E4600E03E46776817B13B889942F9D17260737B00F00F0785
:2076500023F00F031F437773E76E3FB1FB681B88CF1F9F4224D0891F994221D02F8C07B3B2
:20767000686205F12003588095F82C1000F00F0721F00F010F4385F82C7095F82D1008F022
:207690000F0721F00F010F4385F82D705360517B00F00F0721F00F0147EA0100507300E0BC
:2076B000A0604846694611F011FB684612F0A4FA12F098F916486061607F80B91548006893
:2076D00001684046884701280FD0707B08F00F0120F00F00014371730F4F676105E00EF091
:2076F00011FC0028FBD012F0A3FD484612F0A8FA4946404611F07CF805B0BDE8F083C04649
:20771000D01200200100070601010E04242D0020E9420000E0010010393D01002DE9F04FDC
:207730004FF000080E468146ADF12C0DCDF8008099F8061043460DF1260205F0EFFEDFF8AC
:20775000ACA1E0B97069002837D09DF82610480004AA00EB810023301021C0B211F056F9B8
:2077700058BB04A8FF21102211F0A9FE28BB99F80600494600F0010013F044F81DE0504674
:207790000627D346454600F148042046FF21062211F095FE78B97F1E04F1080405F10105BE
:2077B000F3D19BF80D00002804BF06208DF8260007D09BF826508DF826509DF826000628D5
:2077D00001DB15208FE09DF82600450008214A4605EB800505F12000C0B211F0A2FC9DF82F
:2077F00026000DF00FFE04A8FF21102212F046FD9DF82600102104AA7030C0B211F091FCCC
:207810009DF82600494608220AEBC000483011F0B7FF726954467AB1107C02F11101434646
:2078300000F0010012F0EAFF72692AB105F123001021C0B211F075FCB2682AB105F121006C
:207850001C21C0B211F06DFC32692AB105F122001C21C0B211F065FCF26862B105F12400D9
:207870001021C0B211F05DFCF26825350421E8B2103211F056FCA07A08B110F017FBE169C4
:20789000B58861B904F11000194A00904FF6FF710223012012F0AEFF0146E16111B308A8E2
:2078B0000090CDF8048002270297FF260396228A0DF122032846FFF77DF858B99DF82310DE
:2078D0009DF82220E06912EB012204D0418928460BF0ACFFE069228A4FF6FF71434612F071
:2078F000BDFFE06140460BB0BDE8F08F600500200DB901002DE9F843DFF8AC916B4999F820
:2079100000000A78904200F0CC80D9F80420002600E0761C654801788E4280F2BF804FF450
:20793000D0717143114408790028F2D1F0B212F095F8002104460120A6716171616204F123
:2079500061062071012104F1680071710171012200210023016083602274218104F19002E2
:20797000618184F83910A1612177E1831170837604F5927100270F758023037387730023FB
:20799000FF27C374077604F20D1004F1EC08037043708370C37004F5897004F5C67503800C
:2079B00043804371137104F1E70213705370C8F80030C8F8043088F80A3088F80C3088F8BE
:2079D000083088F80D30038143818381C38147F2305088610B600F73CB810B774B778F77ED
:2079F0000120A8720222EA72AB73002230482A7303786B73AA7104F5B3708A720A714A71A5
:207A10008A71CA710A724A7202702A70294B1988294BC18029490A8802811988284A4180B7
:207A30004FF4A471138883801B22C181018242818281C18201834282828241838183C183DD
:207A50000184418481846A8001212971FF22042104F1770009F08AFC1F2030713770777082
:207A7000B770F7700021174A2046531844185B7884F8FD30491C0829F7DB134929610022CD
:207A900088F8102099F80010491C89F80010C9B2012907D1817989F8021003E0002011F081
:207AB000B5F90020BDE8F283684E00207B4F0020F52E0020464F0020444F00204E4F0020A6
:207AD0004C4F0020742D0020D33B01002DE9F04FADF1140D10F0BEFD039020B10BF02CFAB7
:207AF0004FF0FF3003906D4C04F10800006800B18047624807780025029736E00098E16801
:207B100010F8062CA0F10C07032A2CD0029E9DF8053056B1606A2946401E10F8012F934239
:207B300005D0761E01F10101F7D1FF2600E0CEB253480068FF2E00F1080011D038790FF0D1
:207B500051FAB979012904D0022904BF0099887001E0009908700099304611F0D7F904E065
:207B70000068804701E001B1884745480068C3690DF105016A4601A898470028BED0414AC6
:207B9000029E1168AE42304604DC6B1C3746DBB29F4201DD761B00E0012690466F00CB5B23
:207BB000DFF8E4B0DFF8E49023B96D1C761EEDB2F4D121E0A8421FDD5E4630688047D8F8E8
:207BD0000010002231F807A0CA53D9F8001088472F4850F825202570514628469047054606
:207BF000FF20207030688047D8F800107A5A15437D52D9F80010884710F02CFD07460398CB
:207C1000B8421DD007B9234FA069B84238BF071C5E4630688047824619480068016AE069D6
:207C30008847226A16481C49521C00682262C56804F11C033846A8474846016850468847B2
:207C50000F48616802682069243291B9029ED8F800100025AE420EDD31F8150030B1084872
:207C70000068416A20698847D8F800106D1CEDB2F0E71168884705B0BDE8F08FFBB50100D8
:207C9000AC0D0020D82E0020E00A0020E40A002050B601008EC2F5282D700100D4090020AE
:207CB0002DE9F04F684C2078ADF1440D30B943F6982012F077FE20780028F8D0DFF88CB137
:207CD0000024634DDBF80000ADF83C4040B9082011F060FACBF80000082011F061FC28607F
:207CF000DFF870815C4EDFF87891A2465D480078002875D15C480078002871D150465749F3
:207D100089F800000EF03EF83060B8B950465746009055462C2101970122029539A3CDF8FF
:207D30000CA034A0CDF810A006F05AFA99F800004A490EF027F830600028E7D099F80000B3
:207D5000574655460090302101970122029533A3039428A0049706F043FA092505AC504630
:207D7000ADF83E003068214612F09CF958B9384A2088DBF80010126810F0FCFE0DEB4701A8
:207D90007B1CDFB20885D8F8000012F00BFEA41C6D1EE7D137B139460AA802220DF13E03C4
:207DB00009F0A6FA306812F078F9BDF83E000FA90DF070FA54469DF83C002C499DF83C70DC
:207DD000BDF83E500870012217A300974521019508A00294574603975546049506F000FACF
:207DF000D8F80010D8F8100001EBC101401A12F0D9FD7BE75461736B426174746572792ED5
:207E10006300C0466164633020696E697469616C697A6564206661696C65640041646374DA
:207E30007970653A256400C0626174746572795F6C6576656C3A307825782C6176675F7235
:207E50006561643A256400C08C0C0020900C0020940C0020B02D0020C02E0020742E002064
:207E7000FB2E0020FE2E00208D0C00209D2D00202DE9F0431F4615460E468046ADF1140DD8
:207E900012F08EF8022808BF122000F0CC80042D1EDA0224012D18BF032D1BD1C7B1012DD5
:207EB00018BF032D16D138460021052211F007FB18B1787910F03F0F0AD03846FF21062253
:207ED00011F0FDFA20B9787920F03F00C02801D00220A8E04046401E0FD0401E012809D9F2
:207EF000801E0AD0801E05D0801E012802D9001F03D097E0002C40F095800420012104AA17
:207F100010F084FD002831D19DF81000FF2803D09DF81000854218D19DF81000854225D150
:207F3000012D18BF032D21D168460021062209F020FA06206A46014610F068FDB0B9684667
:207F50003946062210F0C2FF80B9002140F209400A46FEF727FA0446002140F21A400A4627
:207F7000FEF720FA204318BF1E205CD12F48012D0570814618BF032D02D1384612F036FCD0
:207F90002B4C0620267011F0BFFBC0B200B920782849087040460AF003FD041C42D16846D6
:207FB0000021102209F0E5F999F8000030F001000DD012F0C3FCFF21102211F080FA012841
:207FD00009D1022010216A4610F020FD18B9002069460EF057F812F0ADFC0021102211F0AB
:207FF0006EFA01280FD1032010216A4610F00EFD48B96846FF21102211F061FA18B90120A2
:2080100069460EF03FF812F095FC002110F082FA12F094FC0FF06AFC05F03CFB0FF096FC88
:2080300010F0C8FFE0B205B0BDE8F083594F00208B0C0020A24500202DE9F04FADF1240D60
:20805000079002F079F85F48007810F087F95E4D0024012806D90C3804D0401E0ED0401EEE
:2080700009D006E011F0A8FA022804BF01210C1C06D0696805E005211F2401E00321072432
:208090006960524A1068C0F38150012806D152F80C0C0127020E07FA02F0044311F0C0FDDD
:2080B00005F1440AFF2253464018401E471C28607F1E03F8012BFBD1079A1268002602F04E
:2080D000FF03FE2B1DD0DDF81CC0964633460EF0FF07FF2F0ED0B84205D3B94203D8012297
:2080F000BA40144201D0022069E016430EF0FF020AF802305CF804EF5B1C0EF0FF07FE2F69
:20811000E7D1092005F0ACFD07980121A86005F128000FF09FFE00274FF0010BB94628466E
:20813000804600F198050BFA07F0044216D1064204BF07F0FF0141F4C04104D01AF807008D
:20815000079951F82010224802F05EFBF8B24FF0FF3110F03BFBC5F8009001E00420286018
:20817000D8F800007F1C2D1D8742DCD904A811F013FD184C184A2078102104AB059008F133
:208190000C000EF03FF9684611F062FDCDF80C906A4660681149029008F164000EF080FAE5
:2081B0000F4951F80D0C20F4F85040F4005041F80D0C0C4FC1F8FFBF4846C7F800B009B03B
:2081D000BDE8F08FFC2E002038030020B43F0050007FC767C4B90100F9910100D55E010099
:2081F0000D3009400800094070B54D4C4D4D2368286853F8186F00224FF0FF31B047226841
:20821000286852F8383F002198472268286852F8383F012198472268286852F8383F424DB7
:20823000022198474148424A416B4869417941481170002301680B8000244B800C7100264D
:2082500000683D4C437100200AF0C6F808F0ECF83A4811F07FF812F0C5FA0EE06068F1B2A1
:208270004FF4D072514342185379012B04D1F0B211F0F4FB03F038FB761C2978F0B2884257
:20829000ECD30EF05BFE2E482E4A017811700DF0D9F90EF0FFFD2C482C4A8078C1074CBF52
:2082B000072105211170000711784CBFFF20FB20084010700020264A264910700023264A30
:2082D0000B700120254910700B70254A254910700B704FF4A470244A244913700B70244A13
:2082F000244913801B23244A0B801080FB22234B234918804FF42960224B08801A8044F287
:2083100090202149214B0A80214A108018800AF04BFC10F04FF91F490020087070BD00BF35
:20833000F04E0020EC4E00207B4F002074C80100714F00209C2E0020684E0020CC4700207B
:208350006D4F00207A4F0020742D0020F52E0020734F0020744F0020754F0020764F0020B6
:20837000774F0020784F0020794F0020F62E0020524F0020444F0020464F0020E22D00209C
:20839000E82E0020484F00204C4F00204E4F00204A4F00206F4F00202DE9FE4F8046B8F1FF
:2083B000280F0FDA140018BF012C0DD0022C18BF032C09D0042C18BF052C05D0062C18BF75
:2083D000072C01D01220A3E0DFF848A19AF8000008B121209CE0504EDFF84091504FDFF850
:2083F00044B141F62A00308000227280D9F80020508900280CBF3046002070600020B06000
:20841000357B05F0600535730D465089717B00280CBF0220012001F0F001084370734FEA03
:2084300048006630B0738020F0737761C6F818B0012B50893880BD70FC702A4607D0022B00
:2084500007D1012030740023307C00210AE00020F8E7032B0CBF0220062030740023317CE1
:20847000890802200EF048FAF93040F27122B0FBF2F240F271217A6001FB120000B10120FE
:20849000821840F6C41042437A60002171742648416B486925490B78026803EB4303D01881
:2084B0000023B0F8011071820021387A00F0FE00387279720020F860F97A01F0F00141F089
:2084D0000101F972ABF80000D9F8001081F800800021D9F800205570D9F80000144A8470A8
:2084F000D9F800008180C180802101720920114C8AF80000CDE9002325680F4855F8088F9C
:2085100000680E4B02223146C0470D4908800020BDE8FE8F6F4F0020F02C0020982E0020B8
:20853000C44D0020944E002074C80100724F002002000080F04E0020EC4E00202D3C010036
:20855000424F00202DE9F04F0746ADF1140D0393002F02920E9801910F9C049000F0B58004
:20857000081C00F0B280101C00F0AF80181C00F0AC800498002800F0A880002C00F0AA80E8
:20859000206A002800F0A180554D666A2868002E00F09B80A16A12F021F940B2002808BFC5
:2085B0006FF0020700F08D8084F82C002078618800EB80000918143188B2216A884706466C
:2085D0004848066036B92846006812F003F94FF0FF3776E0834662882078DBF80030811820
:2085F0000546C91802EB400601F1040803EB020A05EB45018D18ED18091805F10C09891867
:208610002046C91801F11005F8F7CEFC2078C01C8010CAF800002078C01C8010C8F80000B9
:208630002078F6180836C01C801030602078C01C8010C9F800002078C01C8010286022785F
:2086500039460AF1040006F00BFE2278019908F1040006F005FE22780299301D06F000FEED
:208670002378204641463246FEF790FD071C12D100955046414632464B4612F0A7F847B20D
:208690002278039809F1040106F0EAFD22780498291D06F0E5FD21786288DBF8000001EB23
:2086B00081015218002108F064FE616ADBF8000088470B48006812F08DF8F8B2992808BF62
:2086D000002784F82C70384606E01CB16FF0010084F82C006FF0010005B0BDE8F08FC046D3
:2086F000802E0020884F00202DE9F043044658480E4601681F461546ADF12C0DB6B1ADB159
:2087100030784FF0010808FA00F001420ED0104600210AF017FB6660A56011F06DFD4D4DF3
:208730008146287820B1484612F0D0F800208CE001F002FD4849086840F00200086007A8D3
:2087500011F086FA454E4649707807AA099005F1D0000DF0A5FF434905F5827007AA0DF0A7
:208770009FFF07A811F018FA192107AB30783E4A089005F134000DF045FE3C4A05F150009F
:208790001A2107AB0DF03EFE3949002205F1880013460CF04FF83749002205F1AC00134648
:2087B0000CF048F8344A05F12000042100230FF025FEB078012802D10E2005F051FA05F1E7
:2087D000740011F0D3F805F16C0011F0CFF800262E772E74AE61072085F898016E77052359
:2087F000AE60264AEB602B781670581C287024496961484612F06AF81FB9684611F0E8F8DB
:208810006F46386841462060388A617460827868002806BF40F6C41021742674E0601948CC
:20883000A0616061F86800B1A061B86800B160615822314604F1200008F09BFD04F13800FF
:2088500031460FF007FB6C6020460BB0BDE8F083D4210840D01200200020094058B90100D1
:2088700041960100E1CB000085370100E12801005D8D010031920100154F0100FA2E002041
:2088900071C9000047BF00002DE9F8430D4600272878022814461E4660D1696808784978F2
:2088B000DDF8208000EB012080B25FEA08021CBFB0F5285F0B2054D14FF42851401A06D05F
:2088D000401E22D0C01E28D0C53841D046E0DDF82490E86811F0D6FC80B2A0EB08024A452C
:2088F000BCBFA0EB08001FFA80F909EB0800162809DAA6F800904A46E86800EB0801204643
:2089100010F03EFF2CE00D272AE0E8680088022131802070000A607022E0E868B0B10821CE
:2089300031800288227003881B0A63704188A1704288120AE270818821718288120A627131
:20895000C188A171C088000AE07109E0308007E001213180E8680278227001E0378001279A
:208970003846BDE8F2832DE9F0470F46814638780026022890461D4650D17868089C01788F
:208990004078DFF8A0A001EB002189B24FF42852891A04D0491E25D0C8393DD03EE0F86894
:2089B00011F070FC80B2A0421AD3291916291CDAFB682A464146181910F0E2FE2D19F868B1
:2089D000ADB2C5F116020021401911F057FCDAF8000000281CBF0268002A20D0002118E01A
:2089F00007261CE01CB9022D03D00D2617E00B2615E098F8000098F80110FA6800EB012078
:208A10001080DAF8000000281CBF0268002A06D001214846904702E0032600E00126304668
:208A3000BDE8F087B42E00202DE9F0410646574CDFF86481B0782278ADF1300D10B3401F57
:208A50000BD0401E00F09580401E00F08E80083800F08680801E7FD095E0707850B97089EA
:208A70000DF0A6FD012006211323494A0090301D07F078FB4749102008F084F9002840F061
:208A9000828079E0707800287DD1357AF7798DF82650B27A8DF82570B0798DF82A20F37A48
:208AB0008DF8240000258DF82B3008218DF82850777A8DF8275009AA8DF82970284602F0B4
:208AD000BBFC0127B01D06211323344A009707F049FB3349B1E84C1002A8A0E84C100EC957
:208AF00080E80E00102002AB2E492F4A009408F049F9C0B208B110F0F9FE1E202C4B0090EE
:208B10002A4E01932278314610202B4608F03AF9C0B208B110F0EAFE1F200090254B019376
:208B30002278314610203B4608F02CF9C0B208B110F0DCFE204922781020922308F022F946
:208B50002B46009322784146102008F01BF9C0B2C8B110F0CBFE16E030460CF0D7FE12E0C1
:208B70001649102008F00EF90DE030460BF01AFC09E0B0880DF058FD002300932278414699
:208B9000102008F0FFF80CB0BDE8F081E02D00204C2D00201561010089DE0000382D0020AB
:208BB000B8B70100D18B0000018701004DAC0000BF0A0020A00A002045500100DD670100C9
:208BD0002DE9F84FDFF888810E4698F8031011B198F8011009B1122078E05FEA00091CBF7D
:208BF000002E5FEA020A01D102206FE0B1686FF07F4081423ABF72688242182066D200247A
:208C100011F032FBE1B2814207D20021E0B203F077FF002818BF641CF2D191E0312011F0C6
:208C3000ABF8070008BF132050D03C7007F11905308878703188090AB9707068F8707168F0
:208C5000090A39717068000C7871B068B871B168090AF971B0683F49000C3872307B7872B8
:208C7000087811F098FAB8720022707BF872B17B3973F07B7873317CB973707CF873B17CA5
:208C90003974F07C7874317DB974707DF8740020B17D39757875F17DB975307EF875E6B253
:208CB000D8F8041001EBC6000021427139763846FAF7A8FE072835D050B14FF0020B287D50
:208CD00008F06EFD384611F05FF85846BDE8F28F2C704FF0FF0B85F801B0A870A5F80300BC
:208CF000C5F80500284611F059FAF8B96C7285F80AB0E8720021A981C5F80E0005F10900AB
:208D100011F04FFA90B9A8740121E9742C75A5F815000021E97505F11200FBF791FD07288C
:208D3000834602D14FF0130BC9E710B14FF01E0BC5E7D8F8040040F836908AF80040C4E766
:208D500011F092FAE1B28142FFF468AF1520BDE7100D0020594F00202DE9F843614C5A4D93
:208D70005A4EDFF870815E4F94F8E4100846401E0B2864D8DFE800F07B2C430623430623F5
:208D900043067664042907D001220A2945F8212C14BF0220032004E0202045F8210C0120F5
:208DB000024684F8E200002045F8390C0827C5F8FF7FC5F8F37F45F8392CBDE8F8830529D2
:208DD00014BF09200620002784F8E400376075E094F8E170383D0120002FC5F81B0004BFB1
:208DF0000620002102D00021F160032084F8E400032045F8010C3160306880085ED294F87B
:208E1000E4103348012703290ED00068456800216022052300914046A84794F8E40006281D
:208E300014BF0A200720CFE700684568002160220523022000904046A8470420C4E7FEE78D
:208E50002548264F0026012506600E203D6004F0C3FB02200EF0F2F984F8E45084F8E36077
:208E7000BDE8F883002038600C25786024E04FF08059D9F8A0010168202088472C3D0F2063
:208E900045F8010C41F61D56C5F80360D9F8A401466800214FF4C072072302254046009588
:208EB000B047D9F8A401C66800214FF4C07207234046B0470120386084F8E45004F17800F4
:208ED00011F08CF9BDE8F88339400C4038600C40A401001000A00C402C500C4004800C40FA
:208EF00034600C404C0400202DE9F24F044686B06088594DDFF86491DFF864A111F062FCA6
:208F1000074604A80090237B6189208904F10D0211F070FC002680460597B8F1000FB7B26D
:208F300000F08480BDF810206088414608F0B2FE002883467CD120790599D9F80030039028
:208F50008A1F92B2002002920190CDF800A0BDF8102060884146FDF72DFD0028834667D1CF
:208F7000B0B200284DD1608800234FF6FF72112111F024FC002868603DD0BAF80000001D59
:208F90006880761C6968B8F80A00C855B2B2B8F80A006968000A8854BDF8102061890DF1FD
:208FB0001203404611F05AFC771C80467E1CB8F1000FBFB207D16968FF20C855B3B2686879
:208FD000FF22C25409E06968BDF81200C855B2B2BDF812006968000A8854761C6868BAF8B6
:208FF0000020D9F80010B3B2184410F0C9FBBAF800108E1991E70699B8F80A0008801120E8
:2090100011E0BAF800006988021D914218D10599891FC0198142B4DA12E0069A0100218924
:20903000118008BF0A2007B0BDE8F08F002004E0069AB8F80A1011805846B6B2002EECD0D4
:20905000688897FBF0F028802946608811F0B2FB0028E8D01620E6E7FC4C0020E04E002058
:209070003E4F0020F0B50546564CEB8CA62130A2ADF1140D204610F056FA204610F016FDA3
:209090002E680719B0B20FF071FF4AA20CCA02F05FF84AA20CCA02F05BF80CF063FB26A205
:2090B0000090E11B330CA631384610F03CFA204610F0FCFCAF8C0019BF1E04D07F1E14BF77
:2090D00021A22AA200E032A2A96800916B68271A07F1A60110F027FA204610F0E7FC3A4EF6
:2090F00031680019021B0846214610F0F4FF68690090A8690190E8690290286A0390EA688C
:209110002B69A621204610F00EFA204610F0CEFC0A270D210019356800F8011B214600F8BE
:20913000017B021B284610F0D6FF05B0F0BDC04623253036752000C05B2025642E2530331E
:2091500075205D2000C046C01B5B33323B316D494E464F3A201B5B33303B316D2825733A41
:20917000256429201B5B306D00C046C01B5B33313B316D4552524F523A201B5B33303B3158
:209190006D2825733A256429201B5B306D00C0461B5B33333B316D5741524E494E473A2048
:2091B0001B5B33303B316D2825733A256429201B5B306D00000000000000F03E00000000E0
:2091D00000408F4078270020D40C00202DE9FF4104466668A7680D4611F00EF83178012907
:2091F00003D111F073FB00208EE00121317011F06DFB287870706878B07068687060A86832
:20921000B060E868F06028693061287D3075687D7075A87DB075A869B061287F3077687FB7
:209230007077A87F4FF0000843461D4686F82851B07786F82951C6F8208033637562756324
:20925000B562B56386F82C5086F82D50786804F007FD204606F0ECF8204606F035F960B91F
:2092700038680FF043FD786804F0B6F910F0C4FF357011F02BFB2C4645E0684610F08CFC20
:209290000094387B224A0190B9686B4606F17C000DF0B8F8684610F0DBFC00941D49386968
:2092B0006A46029006F198000DF0FAF9B07830B906F1CC0029460EF0CDFD174830617078FA
:2092D00030B906F1E80029460EF0C4FD1348F060684610F0ECFE01958DF8005010490294EB
:2092F00006F582700A226B460BF0A4FAB969FA6906F13C0010F018FC0A4A06F16800042157
:2093100023460FF07BF820460090BDE8FF81C046219B0000F93401004FA1010047A101007D
:2093300005580100299E01002DE9F0430D4687B02978002479B9697801290CD0A9781B29E1
:2093500018BF1D29804617463ED1DFF8309199F80000FF2801D106208DE01D2912D140464A
:209370000EF024FB04001CBFA27A002A0AD010062ED4A978404611F019FAA07A40F0800024
:20939000A07225E001A80090AB88AA686978287811F008FA002806466CD101A80090002298
:2093B000AB7899F80000414611F0F8F90028064660D1029808B100213970A8781D2859D11F
:2093D000002C57D0A07255E00EF0F0FA040001D1002050E0A87801281CD1A988A86801AAB3
:2093F00011F0D8F9060045D1A078052818BF072808D009281CBF0D28112803D0172815D1DA
:20941000206998B1AA7801AB2146404602F0CCFB38702FE0A178884206D1636823B1A988B5
:20943000A86801AA9847DDE7042623E01449607A0A7890420FD001AB00930022AB7841461C
:2094500011F0ACF9064630B9A97801A811F09EF908B100203870A178032908D1A189BDF841
:209470000400814288BF014640460EF04BFD204607F044FB304607B0BDE8F0839F0D00200E
:209490005F4F002038B5444DE87910F06DFC4349002808607BD0424C21782878891C484348
:2094B00080B210F061FC3F49002888606FD02078002866D06988484380B210F055FC3A4ABD
:2094D0000028506063D0394821780078484310F04BFC374A0028106059D0002509E0E8B223
:2094F00010F022FC0021418081600180022303716D1C2078E9B28142F1D310F035FC2D4977
:209510000028086043D02078400010F02DFC2A49002808603BD0082010F026FC274D0028A3
:20953000286034D0062010F01FFC2968002808602DD0002048601C212078484310F014FCF8
:209550001F4A0028106022D02078400110F00CFC1C490860D8B12078000110F005FC1A49D4
:209570000860A0B12078000110F0FEFB1749086068B120783021484310F0F6FB144A10607C
:2095900028B1062010F0F0FB1249086008B9072032BD002032BD00BF980C0020982E0020BF
:2095B0007B4F0020142E0020684E0020CA0D0020A82E0020004F0020A42E0020B02E00202D
:2095D000902E0020942E0020884E00208C4E0020904E00209C2E00202DE9FC4706460C46EC
:2095F00015469A46C0B210F039FA8146F0B210F09BFB0646494F3079DFF82481012802D078
:20961000022843D082E0BAF1020F0AD100207080308002223271B0680BF014F80020B0602E
:2096300037E0308871882A1891420BDA00207080308002223271B0680BF004F80020B06092
:209650008B2061E0B3682A462146184410F098F830882D183580ADB27288954256D199F896
:209670007410802917BF81297F2198F80000091A49B200915346B168B878D2B211F082F86D
:20969000002070803080022232713FE0BAF1020F3CD1042DB8BF8C2036DB20786178001D58
:2096B00040EA01201F49708083B20A789A4238BF8A2029D381B2A94238BF8B2024D380B2DE
:2096D00011F05CF8B060F0B12A46214610F058F87288954211D199F87410802917BF81295C
:2096F0007F2198F80000091A49B200910223B168B878D2B211F046F808E030882D183580B0
:209710000121317102E0812007F038FD24B12046BDE8F6470AF096BFBDE8F387684E002065
:20973000704F00206B4F00202DE9F8434E480278012A1CBF032A112A40F09380DFF82C81CA
:2097500098F80000002103F0DBF9040037D004F1500568684078810740F183802E68C0068C
:2097700004D5B16D086800F1080724E0F06E016801F108074FF49669387C03280FD8DFE8D7
:2097900000F002050B084FF4EE690BE04FF4C46908E040F6E86905E041F6F03902E0002004
:2097B0000FF034FBB06B4844B06394F845000228A8BFA6F85A0006200FF094FD002850D059
:2097D0006868017EC8073FD50B2010F0D5FA040036D013202070062298F800106170B91C12
:2097F0003878C0F38010A070E01C0FF0C9FFF87B00F03F006072B97B802918BF81290FBFF3
:209810007F211B4A1078091AA172E11CA07811F079F890B1174F3946E01C0EF0E1F9FF28CD
:209830000BD01E214843791C3A5C42F00202A27001440622E01C0FF0A3FF2146062001E088
:2098500000210E200FF002FB68684178C80604D5B06D02680021117103E0F16E0A6800207F
:209870001071BDE8F18300BF6F4F0020F72E0020704F0020DC2500202DE9F041DFF840817D
:209890000E46002498F80010020004D1491C88F8001037786AE001280BD1481E88F80000F0
:2098B000C0B210B13778022565E0012010F062FFF8E705280CD1B778D8F8040000EBC70228
:2098D000537998075ED43046BDE8F04110F05CBA062817D177780A2010F046FA20250400C1
:2098F00021D0707820700622B1786170A01CF11C0FF046FF707A2072B17A6172304610F0D0
:2099100043FA12E00E2822D1002700E07F1C10F0ABFCF9B2814218D2D8F80410FAB251F865
:2099300032000028F2D04FF00045F8B2FF281FBFD8F80400FFB250F83730002B05D021462D
:209950002846BDE8F04100221847BDE8F081377860B10128A7D002280AD003280AD0052886
:2099700010D00628B7D00F281CD0DCE7012502E0042500E00825012010F0F6F90400D2D068
:209990002770D2E7062010F0EFF910250400CAD0B0782070B6F803106180707920717178C9
:2099B0006170ABE7042010F0DFF940250400BAD030782070B6F801106180F0786070B4E79A
:2099D000100D00202DE9F8430E4688B08146B07800241E28174614D1484610F0C7FE04006B
:2099F0001EBFA078FE28FF2822D0002000900022B378E078494610F0D1FE204610F0B2FE5A
:209A100016E0122804BF7078012813D0484610F0ADFE04001CBF2279002A0BD0100607D4A6
:209A3000B178484610F0C2FE207940F080002071002067E0354D2878FF2812D0B078811E6C
:209A500017290ED210F08AFE58B1B07810F082FE38B1307810B97078012804D1B0781228FB
:209A700001D006204EE0B07810F078FE844602A80090B388B26871783078E0470028804614
:209A90003FD1B07810F066FE024602A9484690478046D8B9B378042B33D002A800900022B2
:209AB0002878494610F07AFE804650BBB17802A810F06CFE08B100203870B078122804BF3B
:209AD000717801291DD0E4B120711AE07078C0B9B1788DF800108DF804806946B07804282B
:209AF00018BF0628BDF80800ADF80200484610F02DFE20B16A460121484607F003FA4FF0D0
:209B10000008404609B0BDE8F08300BFA54500202DE9F84F8046D8F808603068D8F80450F6
:209B3000076CDFF830B14764AB6B6A6C286C17F4F06F1946A0EB020934D1F8091ED27809E9
:209B500074D3B1B196F821205846801D845C601E814294BF1C1C641E404621460EF09CF895
:209B7000A86B001BA86361D105F19800012110F073FB404649460EF081FD57E00029F8D093
:209B900040460EF089F895F82D10A86311B900284CD101E00020A86305F19800012110F010
:209BB0005BFB43E0F80A20D24FF0000A544602E0AB6B5B1EAB6393B1404601210EF06CF878
:209BD0003068446814F00F04C0F804A0F0D0286B401E2863686B401E6863A86BE8B905F1DC
:209BF0009800012110F038FB13E0306844680022202904F00F044260CCBF4FF0200A9A4649
:209C1000404651460EF048F8CAF120008145C8BF8146494640460EF031FDEC7740460BF0C5
:209C30005EFB726A12B1404621469047B8090FD3A96A69B10F4640460EF045F8A86238B977
:209C500096F820205946895C4046C9190BF022F8BDE8F88F90B501002DE9F04FADF1140D9F
:209C700002921D460191DDF83CB00E9C009010F0C3FA474A6FF0010800264FF00109103AE1
:209C900092F898A1039009FA06F313EA0A0F71D0B5F1FF3F18BFAE426CD1F0B20FF0C0FEC4
:209CB000002867D0877A002F64D192F8981183F0FF030B4082F898314F468772009D4672B7
:209CD00092F89A110560491C82F89A11019B03722D4F4760017A074601291ED0022924D11C
:209CF00040F20361018290F90930C17C5B1D21F00F0103F00F030B43C3746379817C63F3EA
:209D1000C7018174C17CA37963F34611C174C17CE37963F30411C17407E00A20388297F9A7
:209D30000900401DB874A0687861BBF1000F13D097F909009BF800109BF80160134C4FF62E
:209D5000FC75401D000240EA411040EA860005EA000144EA010000E00020B861029800B175
:209D70007860506808B93868506009F00DFA97F9098002E0761C032E85D3039810F0A6FDDE
:209D9000404605B0BDE8F08F47BF000001000406E012002070B516460D460446ADF1A80DC0
:209DB0000CF0D0F9002808BF142000F0888068460021A42210F062FAADF80040434C279B8C
:209DD000414AE078E1791A408DF80400A0798DF8A01000F003030101134301F480721A4373
:209DF000384B1340227A00F0040001F4C06119430843022A27904FF0000008BF01208DF8A1
:209E1000370010F09FFC412809DB207A00280CBF002008209DF8991008438DF89900607ABD
:209E3000002804BF00208DF8380017D001208DF8380004F1780120220DF139000FF0A0FC03
:209E50000DF1590004F1980120220FF099FC0DF1790004F1B80120220FF092FC2079002882
:209E700004BF00208DF8050008D08DF8050004F1380110220DF106000FF082FC607938B160
:209E9000022D18BF032D03D1279941F002012791002100B10121A5789DF89900002D41EA65
:209EB00000018DF899100CBF002004209DF8991008438DF899003146684604F035F82AB08D
:209ED00070BDC046FBF9FFFFFCFEFFFF600500202DE9FC4705466E68D5F8088037780FB192
:209EF000B76B1FB14FF0FF30BDE8FC8731630024F477171C74631BD006F13C0910F07CF901
:209F10008246694648460CF09CFA00281ED4504610F0DCFC9DF80000316B0870306B736BF0
:209F30007F1E00F10100306303F101007063E5D17078726B316B0128A1EB0201316303D1F0
:209F5000F36828469847726B144659E0B763D8F80010086B40F400700863D8F80010886B8A
:209F700040F4FA608863504610F0B0FC06F594700FF044F8707806F5947768BB10F03CF996
:209F900096F82D1069B1716B59B1B16B49B1B46310F09CFC06F594700FF020F8706BBDE88B
:209FB000FC8710F093FC716806F1E80528460FF0C4FD0028F2D0B463284621460FF0BDFD05
:209FD0000028EBD038460FF009F81027716B306BF777401A3063E1E710F00EF996F82D106D
:209FF00061B1716B51B1B16B41B1B46310F06EFC06F19800012110F02FF901E010F066FCB6
:20A010002046BDE8FC877047FEB5282801DB1220FEBD3C4B1A780AB12120FEBD3A4A41F694
:20A030002905158000264400568096606634557B167B947305F0F00545F00205802406F055
:20A0500060065573D4730F271673304D304C5260556194612F71002655272E602F736F7312
:20A07000AF734FF0010C2B4EEF7BAE6007F0F007002647F00107012985F805C02E61EF73C1
:20A0900004D002290CBF0121022100E000211174567480215682A17126806680A680A6600E
:20A0B0001D490C682070FF240D686E70086884704FF6FF74086880218680C68001720A209A
:20A0D00018700C211548018041F2A403438044604FF40163124C1349CDE9004608610B804B
:20A0F0004E804A608E60CE604E6102220E4C0F482568006855F8086F0D4BB0470D49088052
:20A110000020FEBD6F4F0020F02C0020704D0020E04D002029417671982E0020444E002027
:20A1300002000080144D0020F04E0020EC4E00202D3C0100424F00202DE9FF47484C94F8BD
:20A15000E700002876D13E4E01273C48F57C84F8E770736884F8E6500068C4F81031C0F378
:20A17000801084F8E80068460FF0A1FF002504F10C0001956B468DF80050324902952A46CA
:20A190000AF058FB304904F130006B462A460AF051FB2E4904F154006B4681462A460AF0BB
:20A1B00049FBB16838468847DFF8B0802848327D08F104030078284E1868C0F3815A22B1F0
:20A1D000BAF1030F04D184F8E170BAF1030F17D0BAF1020F14D0BAF1010F0ED002200DF014
:20A1F00025FB1C480068016804208847012804D030683221B1FBF0F10DE00CF08DFA12E030
:20A2100002200DF013FBBAF1030F0CBF4FF47A7142F210713068B1FBF0F148460FF0DCFF09
:20A2300048460FF0DBFF40460068C00802D228460DF0FCFA00200090BDE8FF871410094074
:20A250005CB8010037F700006DEA0000151D0100FC2E0020E0010010B82E0020B03F0050A1
:20A270004C040020F8B505464248434E0378A9783068424F012408296FF0020202D00929C9
:20A290004FD074E0E97861B197F92C10914205D0002841D008228DF800204CE0C82208210D
:20A2B00050E0002838D0406F2022291D20300FF067FA3068324F436F202205F1240103F12B
:20A2D00040000FF05DFA387868B1002179702022291DB81C0FF054FA202205F1240107F107
:20A2F00022000FF04DFA31680878002804BF487814280ED12349086800281CBF0069002897
:20A3100036D08047010033D08DF800006946306812E0152048702BE01B49284603F0FDF8EC
:20A3300026E0E97891B197F92C10914208D0A8B108218DF800106946C08810F0FFF917E0F0
:20A35000C822102118460BF0E9F911E030B1406F2022291D60300FF013FA09E00B49087835
:20A3700030B100220A70284603F017F800E000242046F2BD7C4F0020304F00207C4B002056
:20A39000684A0020344F0020144C00207D4F00202DE9F041FF2807461ED10FF031FE10F0F4
:20A3B000070F16D004200CF0E5FD08B104200AE001200CF0DFFD08B1012004E002200CF0F3
:20A3D000D9FD20B10220BDE8F0410CF0EFBD0EF01DFD0020BDE8F0810CF0E8FD8046012F01
:20A3F000D8F80450334E04D0022F29D0042F3DD0EFE702200CF0BEFD80B102200CF0D6FD99
:20A41000074601207C680CF0B5FD28B1A0683118A86810F04FFA88B13846DBE704200CF010
:20A43000A9FD28B104200CF0C1FD0746012026E001200CF09FFD08B94FF000084046C9E744
:20A4500004200CF097FD28B104200CF0AFFD0746022014E001200CF08DFD28B101200CF093
:20A47000A5FD074602200AE00220E2E701200CF081FD88B101200CF099FD074604207C680A
:20A490000CF078FD0028C7D0A0683118A86810F011FA0028C0D1D1E702200CF06BFD30B138
:20A4B00002200CF083FD074604207C68E8E70420BFE700BF589EFFFF2DE9F84F5FEA00099E
:20A4D0001C46924600917CD0081C7AD0BAF1000F77D0002C7AD0206A002872D03D4D616A27
:20A4F000286800296DD0A16A10F078F940B2002808BF6FF002055FD084F82C00207861883B
:20A5100000EB400009180C3188B2216A884707463148AB46076037B9DBF8000010F05AF9DA
:20A530004FF0FF3548E0804666882178D8F800008F1906EB410385193F181E182046F6F7F8
:20A5500033FD2078C01C8010286020783F1DC01C8010386020780836C01C801030602278CB
:20A570004946281D04F07CFE28463A463346014610F0E0F845B2227800983B1D194604F02F
:20A590006FFE22785046311D04F06AFE21786288D8F8000001EB41015218002106F0E9FE7B
:20A5B000616AD8F800008847DBF8000010F012F9E8B2992808BF002584F82C502846BDE8F1
:20A5D000F88F1CB16FF0010084F82C006FF00100BDE8F88F802E0020884F00207CB5434DFD
:20A5F0000446002101222868ADF800108DF8022030B910F0A7F80FF0B7FB0028286071D0A7
:20A610003B4D1822002128460FF038FE2079461C022812D0062814D0082817D00A281BD057
:20A630000C281ED00E2821D0102824D0122827D016282CD0182831D051E020460BF082FED7
:20A6500030E06946204610F071F82BE06A460021204601F0BFF925E06946204606F00CFA5B
:20A6700020E06946204606F0C5F91BE06946204610F058F816E069462046FEF735FC11E07F
:20A690000DF102026946204606F0BAFA0AE00DF102026946204610F041F803E069462046B7
:20A6B00009F026FD01001AD016280ED06178142915D02179BDF80020287129706A80294672
:20A6D000608810F043F850B1012660882A46F1B206F018FC18B1F1B2284610F0B3F820462F
:20A6F00010F018F89DF8020076BD00BFE04E0020FC4C00202DE9FE4F0CF040FBDFF800B1D9
:20A71000DFF8009102900BF1020000880027001F84B2042C57DB4846FF254FF6FF7A000B50
:20A730005FFA80F8404621466A4604230CF046FABDF802C06146081D84420ADA00200EF02D
:20A7500065FB0AF02BFC02980EF094FD0020BDE8FE8FBDF80060B2452DD066B3F00BC3030A
:20A770002CD1B5422AD0381FF5B280B2042812DBB0F5805F0FDA00F188531B6801AA1360B8
:20A79000BDF80420954219D0BDF80620801A001F80B20428ECDA621A091D96B240468BB2AB
:20A7B00007F1885231460CF009FABDF80210C819001D87B202E0C80BC60300D1641A241F33
:20A7D000A4B2042CAEDA0AF0E9FB47B148464FF088513A46001D0FF06FFC0FF05DF90298E9
:20A7F0000EF048FD5A46507800281CBF0020011C03D1C7F58054391DA0B25180BDE8FE8F4F
:20A81000A40D002000D001002DE9F84F0E4607465FFA86F8300824BF3A484640DFF8F09037
:20A83000394C4FEA8805A9F10100405907EA0602144086EA00013940B843C1F3006307F445
:20A85000E0210443B1F5E02F01D1600E14D307F4E020184310D004F4E020B0F5A02007D05A
:20A87000B0F5803004BF24F4003444F4A02403E024F4803444F4C02424484FF0010A0AFAE3
:20A8900008FBC0F800B00FF0B7FC4946230A6D182B70220C6A70210EA97010F017F81D4CE7
:20A8B000524604F1D00ADAF80010002002FA08F50D4218BF101C5FEA000905D1F80D24BFC4
:20A8D000C6F3805004F80800380E0DD30FF094FC310E34BF0021291CDAF80020AA4311435B
:20A8F000CAF800100FF0F2FFB9F1000F05D0F80D24BFC6F3805004F808000448C0F800B0CF
:20A91000BDE8F88F006000A0007F077FE020026001100840002002402DE9FE430D884A881B
:20A93000AA4201D32A0001D1012074E000230024ADF8043002944FF6FF7881460F4627E041
:20A950000294287802283AD1BDF8006001218DF80610B608287802285FD1688904F8010BF9
:20A9700002226989090A04F8011B204669680EF007FFA41CBDF80400401CADF80400B1B26A
:20A99000BDF80400884248D26D89454545D06D1C00200090002379880022A8B20FF02AFF74
:20A9B00005003AD0BDF8040008BB6B464246052148460FF003FF0400C2D111202BE0022019
:20A9D0008DF806001221BDF8000090FBF1F62A78102A22D1688904F8010B6989090A04F8B9
:20A9F000011B204669680EF0CBFE1034C2E79DF806000128EBD1ADE701A948460FF086FE71
:20AA100040B101AA0521484606F07CFA10B1029809F018FE0020BDE8FE83BDF804000028D9
:20AA3000EAD10A20F7E72DE9F843092986B0064617463FD196F8242039887888521C491E69
:20AA500086F824204143786889B2445C08444178307B04EB01240128A4B239D139887888D7
:20AA7000002548431FFA80F93D80A846C8452FDA7888D7F804C0B17C431FC4449BB20CF14F
:20AA9000050206F113000FF0E5FE70B1A84506D078687A8800EB080140190EF071FE788833
:20AAB00039884519491CADB23980788840445FFA80F8DBE738790A2818BF062802D196F88A
:20AAD000240090BB96F82400401C86F824007C884FF6FF70844218BF002C26D0308A844250
:20AAF00023DA307B641C0128F48112D1ADF800400222318AADF802108DF80420032128220B
:20AB10008DF805108DF80620694630880DF082FE04E0308806F10E010DF07CFE307A47F200
:20AB3000305107F031FD162000E0002007B0BDE8F083704703B42DE9F04F09AF3D4DB87825
:20AB50004FF000089A461646ADF10C0D85F80180834608F029F9071C19D04446AEB1364857
:20AB7000000B5FFA80F94846394601AA01230CF025F81AF804009DF80410884205D1641C14
:20AB90007F1CE4B2BFB2A642EDDCA6424BD0F61C4FF6FC7707EA06046E8840F6FC713019A8
:20ABB000814204DA0FF000F9FFF7A4FD6E88FF1C44F40040ADF800703319ADF80200694615
:20ABD00001229FB2384605F085FDBDF80200694601226FF3DF30ADF80200384605F07AFD71
:20ABF000A0105146C2B2304605F074FD4BF4004B69460122ADF800B0384605F06BFDBDF86D
:20AC10000000694601226FF3DF30ADF80000384605F060FD6878002818BF804603D1688803
:20AC30000019001D6880404603B0BDE8F04F02B07047C046A40D002000D001002DE9F0476B
:20AC50003F4F0D467978022904BFB978814290469A4681460BD07B68191D11F83910CA079C
:20AC700001D52A0003D089071BD5012D19D1FA78BAB1002101F044FF040008BF34205DD0DB
:20AC9000280002D0012D08D021E0606D417801F01201022905D0A06D06E0606D4178880711
:20ACB00001D412204AE0E06D03212A004170A0F80380C0F805A002D10FF070FA03E0012D42
:20ACD00002D10FF06EFA0646F0B2072801D1182034E0F6B266B97868011D11F83920500771
:20ACF00011D5206E01210170206EF9F7A9FD08B11E2023E07868011D001D11F8392002F0B0
:20AD1000FB0200F839207868011D11F83910CA0704D52A0008BF01F0FE0105D08A0706D5B9
:20AD3000012D04D101F0FD01001D00F83910787818B100217970FF20B8700020BDE8F0876D
:20AD5000100D00202DE9F04FADF1140DDDF838A01D469046894606460FF0D4FC0CF006FDC3
:20AD70004FF0000B0746CDF800B00FF085F930F0010014BF002F6FF0040063D066B1B6F1C3
:20AD9000FF3F06D0304601A90CF0D8FC30B1064657E04FF0FF3000E0584601900FF0FEFDC4
:20ADB000044601980126241800E001937868019B59464FF000520FF0A1FC00283AD00DF151
:20ADD0000E000DF10F0102AA0BF014FF28BB9DF80E0003A90CF0D0FFB0B9BDF80C009DF8D1
:20ADF0000F10029AC84778B1B8F1000F1CBFBDF80C00A8F8000015B19DF80F0028700298C0
:20AE10005E46CAF8000015E0029968460CF09EFF78684FF000510FF06DFC0198B0F1FF3F95
:20AE3000C4D00028C2D00FF0B9FD231A02D001989842BAD20EF0A0F9009907F108000DF0C4
:20AE500079FA304605B0BDE8F08F2DE9F04391460A68D9F800401678804600271D46384621
:20AE7000ADF1140D242E02F101020A6058D11678521C4C2E0A600ED1AA68E41C24F003043C
:20AE9000241D54F8040C414608F0FEFA2968EF600127091A2960462E1AD1E41C24F0030460
:20AEB000241D54F8040CE41C029024F00304241D54F8040C002741460390AA68ADF804702F
:20AED00001A802F027FF2968EF600127091A2960532E25D1E41C24F00304241D54F8040CBE
:20AEF000E861C9F80040288B0090A968EA69D8F800004B46F8F7E2F8D8F80040002744B1FB
:20AF1000A9688142D8BF481ED8F800100918C8F80010D9F800402968EF600127091A2960BA
:20AF3000662E0BD1298B012904D0E41D24F00704083403E0E41C24F00304241D1FB9E9691A
:20AF50000E700127EF60C9F8004005B0BDE8F0832DE9F04780460F46924680281EBF4028F1
:20AF700000200DF053FF37494878002866D036480078002101F0C4FD040004BF00200DF007
:20AF900045FFB8F1800F59D1616D4878C20604D5A27B012A18BF042A03D000F01402042A78
:20AFB00001D1012412E0C20606D5A07B20B9887C022818BF032808D0487810F0140F3DD108
:20AFD000887C022818BF032838D100240025DFF87C901F4E3178E8B288422FD20EF03EFD48
:20AFF0000146487940B30A681078404524D101F594718A79DCB1524502BF08783A789042EB
:20B010001AD148787A78904202BF8878BA78904212D1C878FA78904202BF08793A799042BE
:20B0300002BF48797979884206D1012007E0484609F038F90528F8DD6D1CCBE70020BDE829
:20B05000F08700BF684E0020F82E0020CC4700207B4F00202DE9F043ADF1140D0AF0B2FFBE
:20B07000384E30460EF00CFE002401277471364837713146306020460AF0C4FF334D0FF2BA
:20B090007C082860A8B9A146CDF80090CDF8049040464621CDF808903A46CDF80C901AA3B6
:20B0B000CDF8109003F09CF8314620460AF0AAFF28604FF4FA610FF018F8064600964A2192
:20B0D00001943A46029416A303944046049403F087F87EB1286831460FF00CF800962046A0
:20B0F00001944E2102903A46039012A30490404603F076F805B0BDE8F083C04644726976FF
:20B1100065722E6300C046C07761746368646F6748616E646C65206661696C65642E00C0E1
:20B13000484872656C6F616456616C75653A256400C046C072656C6F616456616C756531CD
:20B150003A256400382E0020E56A0100E42E00202DE9FC4191EA03084CBF4FF000484FF06A
:20B1700000084FEAC32545EA52554FEAC2264FEA43077F0D11BF45F0004500210020BDE860
:20B19000FC815FF4E06E1EF1FF0E774555D04FEAC12343EA50534FEAC0224FEA4104640D8D
:20B1B00011BF43F0004300210020BDE8FC81744543D0E419A3FB0501A3FB06E7A2FB0663D8
:20B1D0001EEB030E57F1000751F10001A2FB05631EEB060E57F1000751F10001FF1851F1A6
:20B1F0000001C01951F100014CBF4FF4806E4FF4007E10EB0E0051F1000148BF641C01D47D
:20B21000400049415FF44077FF37E41BDEBF00210020BDE8FC8117F58067BC420DD24FEA0C
:20B23000D02040EA41504FEA41014FEA113141EA045141EA0801BDE8FC810020FF21C9007E
:20B25000C91D090551EA0801BDE8FC81F8B588B007460D4616461022002168460FF00EF89D
:20B27000374C2068002848D0C288BA4204BF0178002942D14178062927D1C1780A0733D484
:20B2900000F1480200F1280104AB08300FF02EFA002832D138460AF055FF04002DD0E06AF9
:20B2B00018B91C200EF060FDE062E06A28B30FF0BDFAE16A887604A9E06A827E68460EF00D
:20B2D0005FFAE06A102269462DE0806DA8B1112913D1028A96420DD100F11201082228468B
:20B2F0000DF0F4FD012805D10FF0A0FA02462068816D17E032200FF0F5F938460AF022FF2B
:20B3100004001CBFE06A002814D0018A8E4211D100F11201082228460DF0D8FD012809D13A
:20B33000E16A8A7E68460EF02BFA694638460FF0D5F902E038460FF0CDF9012009B0F0BD33
:20B35000304F00202DE9F84F804691460A9DDDF82CB00C9E0D9C9A4648460AF0F3FEF0B19F
:20B37000B8F1000F1BD101795FEA0A724CBF41F0200101F0DF01002D08BFBBF1000F03D129
:20B39000002E08BF002C51D041F00401017134B1216981621022214618300EF0F1F9254F24
:20B3B0003868002840D085B1D0F8A40028B91C200EF0DAFC3968C1F8A4003868D0F8A40008
:20B3D00018B11C2229460EF0DBF98EB13968D1F8A80028B917200EF0C7FC3968C1F8A800E9
:20B3F0003868D0F8A80018B1172231460EF0C8F98CB13968D1F8AC0028B914200EF0B4FCDF
:20B410003968C1F8AC003868D0F8AC0018B1142221460EF0B5F95B4652464946404601B0F1
:20B43000BDE8F04F00F0F8BDBDE8F18F01F0FB010171B4E7A44E00202DE9F04108289046F5
:20B450000D464FF0000654D8DFE800F04A3C3834302C281005C0072D44D12F4811468F79F7
:20B4700087718A8882800968016043E028460EF0DBFE071C10D0294C20482168884202D071
:20B4900020680AF0BFFC2A463846414603F0E8FE2760234805702DE013262BE0142D21DC1B
:20B4B000174C12E0142D1DDC164C0EE0142D19DC154C0AE0142D15DC144C06E0142D11DC76
:20B4D000134C02E0142D0DDC124C20463146152205F04FFF2A462046414603F0C1FE09E044
:20B4F000082D01D0182605E00E4811464A684260B9E702263046BDE8F081C0466C0C002020
:20B510006B0B0020AA0B0020560B0020410B0020950B0020800B0020980D0020840C0020E3
:20B53000880C0020080D00202DE9F843384C143C606F656F04F17409002866D00646F068D6
:20B5500040F603020827531C02E040687F1EFFB260B15FB101888A4218BF8B42F5D13169B0
:20B570004CC820314CC189C881E8890005F1280090E80C00002705F12806B84686E880012C
:20B59000A96879B138464FF0E24100EA020611EA03070EBF002E02400B40AE682869B5F9AC
:20B5B0003C10B0470EF028FE0646B4F986004746401C6FF31F30A4F88600484685F83F701F
:20B5D0000DF0B6FA30460FF081F9B4F984106068B4F986300246994217D192F87010002915
:20B5F0000CBF0068381C82F8707060B1B0F1FF3F0BD008490968AC34B0FBF1F120460EF0FC
:20B6100019F9BDE8F8830DF00BFEBDE8F883C046E4120020B82E00202DE9F84FDFF8DC9000
:20B630000446D9F800008047354EDFF8D8A006F10802116809191160DAF8001088473068F0
:20B65000002859D000250746B0460095D9F800008047009E1FFAA4F3834683B95FFA94F3C1
:20B670006BB93979E0B2884204DD79682046884209D20AE03879E1B2401A387108E07968C1
:20B690002046884201D3314601E07968091A7960B88878B9FB8853B9FB6843B13B8933B162
:20B6B000B87A194600F002FEF8687860B88808B9FB880BB13B895BB9002D04BF3868C8F859
:20B6D000000002D03868286038683E46074601E03D463F68DAF800105846884756B1B38853
:20B6F0002BB9F3881BB9B07A318900F0DFFD30460EF04AFB002FA9D1BDE8F88FE00A0020BF
:20B71000E42D0020E40A0020F8B5071C68D03D68E8788DF800002E798DF8016068460EF00F
:20B73000D5FFA86808B130490160E86808B12F4901602F4CAB782878A3706E782070BA68B7
:20B75000667093681178A3605668E170B86866604369636102692261C168E1606B692E6954
:20B7700023637868E6620168A1612B6A8668AA69A363626326B900200DF048FB786800E040
:20B790002662C66826B900200DF040FB786800E06662066926B900200DF038FB786800E0C6
:20B7B000A662406818B900200DF030FB00E0E0612869FE68E062B068006801210EF044F979
:20B7D000F968C86820B900200DF020FBF96802E0C868084A1060086849680EF041FCF8BD71
:20B7F00000200DF013FBF8BD917E0100B9960100D0080020AC0D0020F0B505466C00ADF12E
:20B81000440D082104EB85046A4604F12000C6B204F12000C0B20DF0F9F8002860D168466D
:20B83000FF2106220DF04BFE002859D102A8FF211C220EF023FD09A8FF2110220EF01EFDD6
:20B8500004F1230010210DAAC0B207460DF0DEF860B90DA8FF2110220DF031FE30B99DF87C
:20B870000600694600F001000EF0CCFF6846FF2108220EF003FD304608216A460DF051FCBA
:20B8900006461C2102AA04F12100C0B20DF049FC1C2102AA064304F12200C0B20DF041FCA4
:20B8B000102102AA064338460DF03BFC102102AA064304F12400C0B20DF033FC04F12507A2
:20B8D000042102AA0643F8B20DF02BFC7035102109AA40EA0604E8B20DF023FC204300E0BA
:20B8F000002011B0F0BD70472DE9FC41050004BF00200DF08BFA3249324F0868804780463D
:20B9100095F8420108F04AF8A86E40B30BE0017A032905D04079C10602D53878401C387092
:20B93000A86E0EF0CFFEA86E0EF0C0FF0028EED1A86E0EF0C3FE04460CE0207A032805D0B7
:20B950006079C10602D53878401C3870204608F079FE2468002CF0D1A86EF5F721FB1A48DE
:20B970001A4A01781170286F78B10EF09FFF04462646B06818B108F065FE0020B06036683D
:20B99000A642F6D1286FF5F70BFB387860B1AA79ADF80020ADF802000DF10202694601203D
:20B9B0000EF088FE0020387028460BF065FD284607F00AFD06490A6840469047BDE8F381BD
:20B9D000E00A0020744F00206D4F00207A4F0020E40A00202DE9F04F064685B070888946FA
:20B9F00092460EF0EFFE871EBFB2DFF8C8B0DFF8C880324D2989B81E88424CDB5FEA0900A6
:20BA100049D104A80090337B7189308906F10D020EF0F0FE04003ED0608930812146BDF8A5
:20BA30001020708806F036F95FEA000933D13079B91E0022039089B201920291CDF8008078
:20BA5000DBF80030BDF8102070882146FAF7B2FF5FEA00091FD16389B8F80020DBF800100C
:20BA700070880EF023FE5FEA000914D130894FF6FF7188421CBF401C3081BBD10BE05FEA88
:20BA900009003089AAF8000008BF4FF00A09484605B0BDE8F08F28890028F0D0698890FB9D
:20BAB000F1F02880294670880EF0FCFD0028EFD01620EDE7E04E00203E4F0020FC4C00203B
:20BAD000F8B50EF019FA06F09BFE0EF02DFA054605F00C000C2854D0E80826D20CF004FB5D
:20BAF0002A4E37680446012001460DF0D9FA31686143884219D22649F020B0FBF7F0241A5C
:20BB1000887C18B1C868A04238BF041C214D214628460EF0C3FD28460EF0BCFD0120FAF7E7
:20BB300005F828460EF0B2FD2DE0280929D21A4CA4F1200620688168184888470746042F63
:20BB5000F8D01748690905D227B101460A6822F0010203E001460A6842F001020A609831BB
:20BB70000A6842F003020A6030688169202088470C4C37682068B86B80470120206020687F
:20BB900001E00EF01DFB0EF0BDF9F8BD30BA01005CB8010058040020D8010010004003404D
:20BBB0008C2108402C2009402DE9F8430E468046B078052817461D464FF001090AD0072819
:20BBD0000ED0092812D00D2816D011281AD017281FD034E02A463946304605F0B1FF16E0E4
:20BBF0002A463946304607F04FFE10E02A4639463046FEF718FF0AE02A463946304608F0E4
:20BC1000F7FC04E02A463946304606F043FB04460DE0307B01282A463946304602D102F06F
:20BC300083FD01E004F0BAFB0446012C2BD1002C08BF012F04D128790A2806D115E00124BB
:20BC5000092F04BF288800280ED000953B46707A002241460EF0A2FD30B9394628460EF009
:20BC700095FD08B14FF0000944B9002000901A22B378707A41460EF091FD01E0162C02D01B
:20BC9000304604F03BFF4846BDE8F2837CB505000E4627D0300018BF012E23D128780021DC
:20BCB00000F02EFF040001D1422076BD6878FF2804D1002E14BFE565A56557E0032813D076
:20BCD00004280FD1207A68B1D5F80500002804BFA06D002806D0606D4178CA0602D4B5F8F4
:20BCF000030008B1122076BD616D4A78B5F80300D10621D5202823DA022168460EF0F2FD03
:20BD1000B4F84000BDF80010C1F30B01C0F30B029142F1D000F47040A4F84000BDF8001009
:20BD3000C1F30B010843A4F84000B5F8030086B9002808BF00250AE040F22D118842DBD337
:20BD50000020A5F80300C5F80500072076BDA56502E000B90025E565A06D002804BFE06D9E
:20BD7000002803D0607D40F018006075002076BD2DE9F04F364D8DB0804628688946924659
:20BD900008B9122061E0C0880AF0DCF9040008BF14205AD009A80EF075FC29680878F8B145
:20BDB00009AA0192C96E00910EF0C0FD070018BF012700200BF0B2FD8346607981070AD5D1
:20BDD0000622002104F10C000DF079FB18B9012504F10C0624E0657905F00105A61D1FE0FB
:20BDF000C96E019109AA00920EF0A0FD050018BF012500200BF092FD0646607981070AD552
:20BE10000622002104F10C000DF059FB18B9012704F10C0B04E0677907F0010704F1060BA9
:20BE3000009807A90EF02AFC019805A90EF022FCCDF810A003960295CDF804B0009705ABBE
:20BE500007AA494640460EF011FC0DB0BDE8F08F304F00202DE9F04707467D68BE68904606
:20BE70008A460EF0C9F981463068006B00F48071287800B119B148460EF028FD57E005F576
:20BE900082700EF0ADF90024EC77C5F820A06C623168086B40F48070086348460EF016FDF0
:20BEB00005F229100DF0AAF8414638460BF00BFF05F22919A862A8B93846414608F0EAFE10
:20BED000A878D0B9A96805F1CC000DF036FEE8B1AC621020E8773146284605F093F805F213
:20BEF000291022E00EF088F93268916B41F0200191630EF0EBFCA87810B12046BDE8F08754
:20BF1000A96805F1CC000DF018FE10B9686ABDE8F0873846414608F0BDFE1020AC62314607
:20BF3000E877284605F06EF848460DF057F84FF0FF30BDE8F08770472DE9F0410C460146CE
:20BF5000164698462046ADF1300D00240AAA2346009401F0E3FA012500284ED19DF8280089
:20BF70000CF034FF0746B8F1080F08BF251C9DF82810434630463A4605F0D8FB01A8214649
:20BF900014220EF07BF99DF82800102101AA440004EB800404F12400C0B20CF037FD88B99D
:20BFB00001A8FF2110220DF08AFA58B9253405AA0421E0B20CF02AFD304607F0010101AAE8
:20BFD0000EF050FB9DF82800102106AA7030C0B20CF01CFD68B906A80DF071F8042405AF32
:20BFF00037F8041F19B1BA7830460CF0AFFF641EF6D19DF8280009F005FA0648401C0078A3
:20C01000022804D1012D02D1304608F0B3FC0CB0BDE8F081600500202DE9F8430646894630
:20C0300090461C4648460AF08DF800281EBF2F4F3868002858D000F1A4021821106800B13F
:20C050003421906800B1143104B11C31506800B1173188B20CF092FC050045D018220021A1
:20C070000EF00CF90A21D0202870A970A5F8049085F806806E7005F118063968D1F8A400AD
:20C0900040B1AE603046D1F8A41000F11C061C220DF076FB3968D1F8AC0040B1EE60304614
:20C0B000D1F8AC1000F1140614220DF069FB3CB12E61304600F11C061C2221460DF060FB47
:20C0D0003968D1F8A80030B16E611722D1F8A81030460DF055FB0648007829460CF016FFCB
:20C0F000BDE8F1430EF0BABABDE8F183A44E0020A24500203EB505460124A87801280146C0
:20C1100005D0032807D0062811D00A285BD1294604F0F8FD58E0A8882A460BF045F9044618
:20C130002B896A89E988A8880DF0C0F84CE0A888012240210EF08EFA00200DF0E5FAC0B21E
:20C15000022821D110200CF019FC010016D0D02008701120EA784A708870AA888A80E88832
:20C17000C8802A890A81688948810020AA898A818873164A10780CF0C9FE25E0A888002214
:20C1900040210EF067FA1FE0A988ADF80010012803D100208DF80B0011E080B9E888ADF8FE
:20C1B000020000212889ADF804006889ADF80600A889ADF808008DF80A108DF80B4068465B
:20C1D00001F04CF900E0002420463EBDA24500202DE9F041054631480E46C17988069046B0
:20C1F0005AD52F490A78100656D52E4F3978F9B144200CF0C3FB04004ED0942020703E210A
:20C2100008226170A270E5705DB920223146201D0DF0B6FA2022414604F124000DF0B0FA6A
:20C2300004E040220021201D0EF028F8387829E04D200CF0A3FB040029D001202070FF219E
:20C25000617004F108006060042101703E224223082142708370C1700571471D5DB92022B4
:20C27000314638460DF08CFA2022414607F120000DF086FA04E04022002138460DF0FEFFF9
:20C29000094800782146BDE8F0410CF03FBEBDE8F041072004F072BFBDE8F0811C4E0020CD
:20C2B000144E0020F22E0020EF2E00202DE9F047DFF8BCA0DFF8C080DFF8C09005460C4614
:20C2D00035F07F001BD152461078A84214DD2C4800688047274909682A4F31F81520144311
:20C2F00021F81540396888474046006849461031426A0868904738E00320BDE8F087042024
:20C310000CF03CFB071C08BF04202FD04FF6FF7038807C800DF098FE49464C78A7F10C06D5
:20C33000FF2804D052464B6A127812189C5CFF2C09D138460CF0DAFD404600688068804706
:20C350000120BDE8F08728460CF03CFB45460146FF20B0722868056800223B462046A847E7
:20C3700018B138460CF0C2FDEAE70020BDE8F087FBB50100D82E0020AC0D0020D4090020F1
:20C39000E00A0020E40A00202DE9F04784684568DFF8B8A0687C884620B150464FF0FF31D8
:20C3B0000DF0CBFB02200BF041FADFF8A490D9F8000001280BD002200AF040FF687C10B172
:20C3D00050460DF03DFF4FF0FF30BDE8F0872148617800680BF028FD0DF0F6FBE07808B923
:20C3F0000BF0F4F920796179A27901F0CBFA1A48002707600DF0F0FB184986B2086800F42C
:20C410009060086130200DF0EFFE04F097F80120C9F8000002200AF011FF687C10B15046AD
:20C430000DF00EFFA07860B120790CF0B3FE054620790DF0B5F80246294630460CF09AFB27
:20C4500086B2A8F800603846BDE8F087240A002008800C408C0000101C900C4028500C4080
:20C470002DE9F04180460D4640F67B40891F164681423CBFB11F81421F4611D2AE420FD3EC
:20C49000B7F5FA7F0CDA069CA4F10A0140F6774291423FBF781C71004843B0EBC40F01D3AD
:20C4B000122045E040460AF0CDFF010040D15FFA88F00DF0D3FA00F17702117929B11178C5
:20C4D00000291CBF0F29102902D0D17A012901D13A202DE001680A78402A0BD115494A7806
:20C4F000910758BF112023D590F8FD108A0758BF1A201DD500F5A4710D804E808F80CC802B
:20C5100000F1840102228A7000238B80828ECE80D21D0A800F814C81012180F8431190F89F
:20C53000FD20910754BF00210F2105F01FFF0020BDE8F081742D00202DE9F8430027002828
:20C5500018BF012880460C4691461E4628D1B9F1000F01D024B301E014BB0EB3012009F093
:20C5700007FB00B10127284D7EB11022314605F10D000DF005F9102105F10D00F4F774F9F9
:20C59000E91D05F10D000EF0B9F9B9F1000F38D0B8F1010F06D1607900F0C000C02801D03F
:20C5B00012202FE001201E2141436A5CFF2A04D0401C0728F7DB072024E005F801806E18F7
:20C5D00006222146701C0DF0DBF81022494606F10D000DF0D5F806F10D000EF097F948B93E
:20C5F000102106F10D00F4F73FF9F11D06F10D000EF084F9002070771FB10449304608F0B4
:20C61000F0F80020BDE8F283DC250020CC47002030B591B0044600218DF80010A0680578E9
:20C630006A1E0D2A4ED8DFE802F007070E12161A1E22262A2E32363A01A900F0BFF8122803
:20C6500030D106203FE001A90EF000F82AE001A90DF0F8FF26E001A90DF0F0FF22E001A9F4
:20C670000DF0E8FF1EE001A90DF0E0FF1AE001A90DF0D8FF16E001A90DF0D0FF12E001A9C2
:20C690000DF0C8FF0EE001A90DF0C0FF0AE001A90DF0B8FF06E001A90DF0B0FF02E001A962
:20C6B0000DF0A8FF30B9608801AA29460DF09EFF8DF800009DF8000040B1608869460EF0A1
:20C6D0003DF80CE007208DF80000F6E70B2D1EBF0449086800281CBF60880BF097FC11B094
:20C6F00030BD00BF304F00202DE9F8430446994690460E1C44BF0020011C5AD40DF0A8FD55
:20C710000546802130460AF0B3FD071C04D097F83F1031F07F0106D128460EF0BBF802206F
:20C730000021BDE8F8834FF0E0400A2107F1200640EA090941EA080896E8030008EA000016
:20C7500019EA010608BF00281CD028460EF0A2F807F1200003C804F1680604F1680508EA44
:20C77000000809EA010986E8000395E80C0007F1200696E8030007F120059943904385E8D2
:20C79000030013E00C48B968884202D0B9682166B86004F1580080E8000328460EF07AF82C
:20C7B00004F138004FF0FF310DF0C7F9683494E80300BDE8F883C046793B010038B5050028
:20C7D0000C4618BF002C01D1022032BD68782070201DAA786270E97808F036FD2879E268F9
:20C7F000207222F48072687900F0010142EA0122430822F4007203F0010342EA4322810889
:20C8100022F4806201F0010142EA8122C10822F4784201F0010142EAC122000942EA00324C
:20C83000E2605208A97901F0010040EA42024B0822F0020203F0010342EA4302880822F057
:20C85000040200F0010042EA8002C80822F0F80200F0010042EAC002090942EA0112E260D5
:20C8700004200CF051FF217A814205D305200CF04BFF217A884201D2122032BD207804287A
:20C89000DCBF6078012801DD182032BD002032BD2DE9F04F0D46814609AFDFF8BCA02878DE
:20C8B0003E881C464FF0FF08ADF1140D02284FF00007029205D16868008842F602118142FB
:20C8D0002ED0284608F006F80390401E012888BF0A203DD8142E12DA06EB040BBBF1140F49
:20C8F0000BDCE86802992246801902F0B9FC1B48DDF80C80A0F800B002E00D2700E007277E
:20C91000B8F1FF0F0AD05046006838B105682DB10399029BA4194846A2B2A847384617E008
:20C930000096032029460190484607F065FC0646504607685EB957B1786840B1284607F0A2
:20C95000C9FF2246029B7C6801464846A047F0B205B0BDE8F08FC046C80C0020D00C0020E9
:20C9700038B52A4C0D46A8083FD2E8084CD32F4854380068006B8047A060E06E00280EBF41
:20C99000606800696060406821490078086002200AF04CFF112001F063F901201D4D2074A0
:20C9B000287810B90E2001F05BF960684168886808B9C86810B118480DF042F91749184D1B
:20C9D000072000230860296816482B606A686B60154B2A68636140EA02011A2029600DF0DB
:20C9F0000DFC19200DF00AFC38BDFEF79DFD204600F17401096811B906F0C6FB38BDD030AB
:20CA100045F002010DF028FC38BDC046D0120020D02108405AB901005100070600000460A1
:20CA3000141004400200004055750000E00100102DE9FE4F894605460CAF97E803001E4663
:20CA50000191904600900DF0D7FB2C4F6FF0010A834608203F1F07F5D07494F83F3033F06D
:20CA70007F033ED107F1AC000DF0BAFBB7F98400401C6FF31F30A7F88400C4F80C9084F887
:20CA90003E80A660B7F88400009AA0870198022320211343002242EA0006174825613140CF
:20CAB00004F118061840134686E8030004F1200686E80C006363214623634FF0FF36A6636C
:20CAD000802284F83F2007F16C0085F870300CF040F8F86E844201D106F056FBB4F93CA046
:20CAF00003E0401E04F14004B7D158460DF0EEFE5046BDE8FE8FC046FFEFFF9FD41200203D
:20CB10002DE9F84381462D482D4F2E4E0D46016888473C68804644B100E00446616D0A781C
:20CB3000914545D020680028F7D125B1002009F01FF8062804D331684046884700203BE04E
:20CB500021480079002C04D00DF00EF92060044603E00DF009F904463C604CB300202060AE
:20CB70000021002204F148006160E26201608260C16001614261816104F14200A1756175B2
:20CB900084F82010E1776184017042708170C1708280217204F140000C490A7862850221AC
:20CBB0000DF0A0FEB4F84000C0F30B00A4F840004046316888472046BDE8F283E00A0020CC
:20CBD000AC2E0020E40A0020980C0020C90D00202DE9FE4FDFF8C08098F8990100284FD098
:20CBF000002501212C4698F8992101FA04F0104203D1641C032CF6D342E098F899211020F9
:20CC1000A040104218BF0D1C0DF0F6FA98F899211121A1408A4388F899210DF057FEE0B29D
:20CC30000CF0FEFE60B3877A57B390F9099019490768012D446851F82960019710D0017A3C
:20CC500002290DD100F1100191E8000C00274FF0805317EA0B0703EA0A0108BF002901D12E
:20CC700004F010FA012D04D0009600224FF0006303E000224FF00073009201984946A047F2
:20CC900098F8990120B108F5827000210DF0E4FABDE8FE8F94300440D01200202DE9F84311
:20CCB000814609F1480716460D46BA68A80702F1A40409F12A0818D5F968487810F0030FED
:20CCD00004BFB8F81C1000290FD1386868B992F88A0000F0FD0082F88A000622FB6803F157
:20CCF0000C0120460CF04CFDA41D280708D5B8F8161004F8011BB8F81600000A04F8010BD9
:20CD1000E90609F1210018D5B8F80020332AFA680778937DB4BF012100215A1E07F03F0783
:20CD300047EA8117D2B2C6F30C06277046EA423666703604360EA670E41C69060DD5084A7F
:20CD5000516B4A69007A1368064A00EB40001956136893F9040041182170BDE8F18300BFA8
:20CD700074C801009C2E00202DE9F0411646884604460DF041FA07462A488325B8F1080F62
:20CD900032D8DFE808F0463F3C313725150533C00446207CD0B9E06EC0B9316804F1D000CB
:20CDB0000DF05CFA316804F582700DF057FA32E00446207C50B9E06E40B9316819200DF027
:20CDD0002DFA31681A200DF029FA24E0002522E0306828B1012807D180200AF063FA1AE09B
:20CDF00080200CF039FA16E0032514E030780E49087010E00D4831680C3001600BE03088AD
:20CE1000608208E00120E668607406F16000E06001E03068206038460DF058FD2846BDE882
:20CE3000F081C046D012002068140020D012002010B52C4CADF1200D8522022305A82146E3
:20CE50000090102003F09EFF40B99DF814109DF81500284B40EA0120991C088006A80090DD
:20CE7000214686220223102003F08CFF1F4A48B99DF818001C499DF8194001FB00F3104611
:20CE9000614302E010460369C168194A1268B3FBF2F30361B1FBF2F1C1600024009306A030
:20CEB00001910122029408A303944FF41071049401F096F908B010BD706572697068657215
:20CED000616C2E6300C046C06261745469636B3A2025642C2073656E736F725469636B3ACE
:20CEF000202564001D8A010000879303B02D002030BA01009C2D00202D482DE9F843914646
:20CF1000884608AF1E46D8F80420BC883D88007851781378002703EB012342F623215B1A25
:20CF300032D05B1E052B1AD99B1F0CD0B3F1260038D1072D34D8C5F10700A04294BF82B274
:20CF5000221C1C4829E0A8422ADB401BA042D4BF82B2221C18483280006845190FE0D8F84E
:20CF70000C000CF0A3FD80B2A84219DB401BA042D4BF82B2221C3280D8F80C104D19484615
:20CF9000294602F06DF90FE0082D09D8C5F10800A04294BF82B2221C084832802D18EEE734
:20CFB000072701E037800A273846BDE8F883C046880C0020980D0020840C0020080D002068
:20CFD00010B52448006808B10CF0DEFE2248806808B10CF0D9FE2148406808B10CF0D4FEA1
:20CFF0001F48006808B10CF0CFFE1E48006808B10CF0CAFE1C48006808B10CF0C5FE1B4CDA
:20D010002068006808B10CF0BFFE206808B10CF0BBFE1748006808B10CF0B6FE15480068B3
:20D0300008B10CF0B1FE1448006808B10CF0ACFE1248006808B10CF0A7FE1148006808B1C3
:20D050000CF0A2FE0F48006818B1BDE810400CF09BBE10BD982E0020142E0020684E002067
:20D07000A82E0020004F0020A42E0020B02E0020902E0020942E0020884E00208C4E00209B
:20D09000904E00209C2E0020F8B52E4E0446306800280D4649D0C188A14246D141780629CE
:20D0B00036D1017819B3816ED1F89830C26ED90705D5177BF90702D5072242701EE0C3F3B2
:20D0D000400100291FBFD168C1F340010029092109D1C3F3800100291EBFD168C1F38001F2
:20D0F000002902D00B21417008E0174800E01748006800281EBF40680028804729462046E9
:20D1100004F0AAFC30684178122918D1002009E011290ED1280018BF32252946204604F0AF
:20D130009BFC28460DF0DEFA09E02946204604F093FC2146284608F0C5FF0DF053FA0120C8
:20D15000F2BD00BF304F0020384F0020344F00202DE9F047DFF8AC80DFF8ACA040465146D8
:20D17000ADF1180D01F01CFD284C0FF260092060A0B900252E462F460095019648462B2107
:20D1900002960122039714A3049701F029F84046514601F005FD20600028EDD000252E46B8
:20D1B0002F460BE000950196484630210296012203970EA3049701F013F8206814490CF076
:20D1D000ADFE0028EED106B0BDE8F0874472697665722E6300C046C070696E48616E646CEA
:20D1F00065206661696C65642E00C04650494E5F7265676973746572206661696C65642EA3
:20D2100000C046C0202E0020FC0B0020D02E00200D430100F8B52F4F0D4639680646C88879
:20D2300008F090FF040001D11420F2BD3968087830B300200AF072FB0146062230460CF032
:20D250009FFA0DF073FB00B10120B071607981070DD50622002104F10C000CF030F930B92C
:20D27000062204F10C0128460CF08AFA2EE00622A11D28460CF084FA607900F0010026E0DA
:20D29000607981070ED50622002104F10C000CF016F938B9062204F10C0130460CF070FAEE
:20D2B000012007E00622A11D30460CF069FA607900F00100B07100200AF030FB01460622FC
:20D2D00028460CF05DFA0DF031FB00B10120A8710020F2BD304F0020F8B5044604F14205C8
:20D2F000002004F14806E870A8806870A870306094F82030C3F1FE032B70607DC1064BD5CB
:20D310000120E870F7687878C10702D410F0030F01D1326902E080073ED57269002A1FBFB9
:20D33000D2F805100029B2F80300002834D03160B2F80300A880A88870B3797811F0110F31
:20D350002AD1E17FDBB2834232BF41F0180101F0EF0141F00801E177E07F0AF08EF984F806
:20D370002000C0F1FE00A9880A46C4B292FBF4F3287004FB132404B10124E318DCB2012C05
:20D3900008BF08466870EB7068780FBF0246DBB25B1E00FB1322AA70F1BD70472A4A2DE900
:20D3B000F04180460124A2F13000046023480768002FFCD02749224DC0200B1F2860186854
:20D3D000800806D253F8040C1E4B000C40F0F0001870002010601D48D0F8D4311A080FD2A0
:20D3F00000681B4ADF0E80F0C000107007F00C0040F0C00082F811014FF40036C2F813608E
:20D410004FF08057D7F8F0010E68016830468847D7F8F0014268314640469047D7F8F00104
:20D43000816830468847D7F8A001C1680220884740202860084E3460BDE8F0819402224341
:20D4500000600C4056620840401009403811005031A00C40B43F00509404604238B504460D
:20D4700084B0208840210DF0B9F8002852D02389E288A18860880DF0ADF8002518B1E17A55
:20D4900029B1012103E0E07A002100B10225A07A10BB2288ADF80420D1B191213E228DF8D9
:20D4B00000108DF80120062100228DF802108DF80320A088ADF808006088ADF80600E0884E
:20D4D000ADF80A002189ADF80C108DF80320012168460DF07BF816E081F00101ADF80C1010
:20D4F00003AAA17A20880DF06DF8BDF80C0050B900210291019022890092E388A288618880
:20D5100020880DF05BF82088002240210DF0A2F8284600E0122005B030BD70472DE9F04F13
:20D53000ADF1140DDDF838A0994615460F465FEA000808BF022049D0022FA8BF182045DA9E
:20D550002448002400F1480B5E463046414606220BF0BCFC10B1B079B84234D0012F18D16A
:20D5700098F8050020F03F00402812D1600010216A4600EB84002330C0B20BF047FA68460D
:20D590001021F3F771F9404669460DF013F8012805D0641C0836062CD7DB342016E005B119
:20D5B0002C70B9F1000F04D00BEBC400807989F80000BAF1000F08D00BEBC40150460622F3
:20D5D0000CF0DEF801E005B12C70002005B0BDE8F08FC046600500202DE9B04304460CF063
:20D5F0000BFE81462748221892F8F010491ECFB2002F82F8F0703FD1254901EB84014A8866
:20D610000C78904634F07F0718D1E1090FD24FF0805000F5DC75D0F8B8018169104688475D
:20D630002868416B404688470228F9D11EE000EB8800D0F804110020884717E04FF080550D
:20D65000D5F8B801016A10468847D5F8B801816A40468847D5F8B801016B404688470A4944
:20D6700001200860094908688008FCD304F03F00132801DAFFF7B0FF48460DF027F900203F
:20D69000BDE8B0834C0400202820086028200840A8B4010038B52B48017811F0050F01D1D5
:20D6B000122032BD0CF0E0FDC0000CF05DFB264C002860603FD000250BE0606800EBC5015A
:20D6D0000022001D0A60032300F835306D1C4A71EDB20CF0C9FD8542EFDB1C4D29460020E0
:20D6F00004F098F810BB2946012004F093F8E8B92946022004F08EF8C0B92946032004F011
:20D7100089F898B92946052004F084F870B92946062004F07FF848B929460E2004F07AF8F6
:20D7300020B929460F2004F075F830B160680CF02BFB1E2032BD132032BD0120E070002056
:20D7500032BD00BF584F0020100D002089980000F8B5054629480E46C17988064CD52849CF
:20D770004878C20748D5274F3978C9B124200BF005F9040040D0942020703E210922617062
:20D79000A270E5702DB920223146201D0BF0F8FF04E020220021201D0CF070FD387821E0A6
:20D7B0002D200BF0EBF8040021D001202070FF21617004F108006060042101703E2222239F
:20D7D000092142708370C1700571401D25B9202231460BF0D5FF03E0202200210CF04EFD73
:20D7F000094800782146BDE8F4400BF08FBBBDE8F240072003F0C2BCF1BD00BF1C4E002065
:20D81000144E0020F22E0020EF2E00202DE9F041294CE579AC064DD5284D6C78250749D568
:20D83000274D88462978044617461E46C1B108200BF0A4F800283DD0912101703E220C23D2
:20D85000042F08BF0327042E42708370C470A0F80480877108BF0326C6710146287825E062
:20D8700011200BF08BF828B301210170FF22427000F10801416004220A703E230C22CA70A4
:20D8900006254B708D700C7181F805804FEA18228A71CA1D511C042F08BF0327042E17707B
:20D8B00008BF03260E70014606480078BDE8F0410BF02CBBBDE8F0811C4E0020144E002003
:20D8D000F12E0020EF2E00202DE9F84304462068017840294CD1E08B002849D02549087800
:20D8F000012845D124490868804781460DF01AF8658E40F6C416AD1C06FB05051F4A206897
:20D91000A1799378476899422AD1B86829460CF0D1FF38B30CF020FA804640F201400CF0BC
:20D93000FDFFD8F8101028460CF0CCFF618E7143B0FBF1F120890818608189B22268608E29
:20D950001369414306FB013604F13800BE6041780170204608F094FD404602F0E3FA01E0E5
:20D970000069B860484606490A68BDE8F2431047BDE8F183774F0020E00A0020684E0020B7
:20D99000E40A00202DE9F0410D4640F001011646CCB218B9062D38BF44F040040CF0ACFAAE
:20D9B000002700B9012739461F4F38680028FCD0DFF8788088F8024001243C6009B10CF0C6
:20D9D000A1FA1B490C6008688008FCD3002E08BF40F6011003D01848066041F6016015493A
:20D9F00008600CF089FAEE00F5B2002600B92646314638680028FCD088F800503C6009B11F
:20DA10000CF080FA0CF078FA002600B92646314638680028FCD0032088F800003C6009B1C3
:20DA30000CF070FABDE8F08100800C4018B00C4030600C4010900C40003708402DE9FE43DC
:20DA5000F7F786F94FF6FF760025274CDFF89C90DFF89C80D9F8000029464FF040424FF0C1
:20DA7000FF330CF04BFE0028F4D0009501A80DF106016A4609F0B6FD30BBBDF804000127C8
:20DA900010281CD198F800009DF80610884216D100990888864212D0087891380CD01F3816
:20DAB00005D020380BD10846FAF7BEFF07E008460CF031F8074602E0084609F0ACFD009840
:20DAD00010B10FB10CF04FFB20680CF06FFD0028C0D120680BF0B6FC071CF5D001F03AFA84
:20DAF000384608F08FF9EFE7DC2D0020D82D0020D42D0020FEB5244A107808B12120FEBD75
:20DB1000002322494B8041F60A000B7B088003F0E00343F085030B7380244B7BCC7303F0A2
:20DB3000F00343F002034B7340F6C41066238B734960174B174C88604B618C6101251D80A9
:20DB500058602526DD7A187A9E7005F0F005124E002700F0FE0045F00105CDE90067DF70B5
:20DB700018725F72DF60DD7227800D240B480C4B147002220B4C2568006855F8086FB0477B
:20DB9000094908800020FEBD6F4F0020F02C0020C44D0020944E002001000080EC4E002098
:20DBB0002D3C0100F04E0020424F00202DE9F04F09AFADF11C0D91460391D7F8088097F8B7
:20DBD00004A0049339880290059130B1039820B1181C18BFB8F1000F01D102203BE01F488B
:20DBF00001780026354633E0029C04EB850427884FF6FF70B84227D094F802B0BBF1000F85
:20DC100022D005990498039A0BF0A8FA0690D8B15FEA5B000AD3CDF800A0CDF80480069B9F
:20DC300038464A46012102F0EDF80643A07880080AD3CDF800A0CDF804802088069B0221ED
:20DC50004A4602F0DFF80643044801786D1CEDB2A942C9DC304607B0BDE8F08F694F00206C
:20DC7000F8B506460CF0C8FA264D0746711991F8F000421C002881F8F0203ED1224C04EB9F
:20DC90008604267806F03F00132801DAFFF7E8FF648836F07F0018D1F0090FD24FF08050C1
:20DCB00000F5DC75D0F8B8014169204688472868416B204688470128F9D11EE005EB8405D3
:20DCD000D5F804110120884717E04FF08055D5F8B801C16920468847D5F8B801416A2046DB
:20DCF0008847D5F8B801C16A20468847074901200860074908688008FCD338460CF0E6FD12
:20DD10000020F8BD4C040020A8B4010028200860282008402DE9F047002A8A46074604D4A5
:20DD3000B2F5004FB8BF95B201DB47F6FF75002F08BF00203AD03888002808BF002403D0CC
:20DD50002A4603F0C3FE84B2291B88B200282CD0388828B1504616A207F070FF001984B21B
:20DD7000B86810B3D7F80480A5EB04091FFA89F6B8F1000F0FD040460BF098FE401DB0422B
:20DD900009D84346494650460AA207F057FF001984B2281B86B2122E07DBBB68291B504602
:20DDB00006A207F04BFF001984B22046BDE8F0873A2000C0222573222C2000C06C696E65EF
:20DDD0002025643A2000704710B501460879012844D123484B79264C0268B3F1B00031D04E
:20DDF000224B401E29D0401E1ED01E4A0E3812D0401E0DD0401E04D0401E2FD11046001D35
:20DE100000E010468A799101A1EB8201016010BD10460830F6E7104640F2924181601E2401
:20DE300004600523436010BD88790F490C3408605843B0FBF2F020600EE08979184610349B
:20DE50004843F6E70B4881080023B1FBF2F1E160002104F035F820610AF0BFFE10BDC0462E
:20DE700030BA01002C2E0020AC2D002000879303B02D002000A493D670B51646284A0D46C7
:20DE9000D17841B3517831BB032D46DA290006D0310042D0022D02D1B6F5807F3DDA00210A
:20DEB000FEF72EFE040001D1342070BD207A012801D1112070BD636D587810F00C0F1EBF4F
:20DED00018480068002808D0026832B1D97A03F10C00904708B9122070BD216E01200870AB
:20DEF0000122206E2900427004D1206E0021A0F8031005E0012D05D1206EA0F803600021C4
:20DF1000417106E0022D04D1206E0021A0F803104671206EF6F794FC00B1182070BD00BF64
:20DF3000100D0020882E0020F8B506000C4601D10220F2BD308808F005F9050001D114205D
:20DF5000F2BD2879010601D51C20F2BD1F480078022818BF012803D0A87C082802D10CB1D9
:20DF70001220F2BD1A4F386808B11120F2BDB0200BF0FAFE386008B91320F2BDB02200211D
:20DF90000CF07CF9386831884180A022311D001D0BF0F6FB396802200870AA7C3968082A99
:20DFB00032880C4E0CBF012000200B1D317802F049F806461CB1214628460CF0F3FA300026
:20DFD00018BF0CF04BFB3046F2BD00BF584F0020A44E00205D4F00202DE9F84F04460BF0ED
:20DFF0003DFD3025814600276543DFF89080244E4FF00C0A30680AFB07FB28445844002176
:20E010000171022032682A445A4450713168B9F87A214819D8F814104B789A1800EB0B034D
:20E03000921DDA807A1C531002EB93739B10A2EB83020AFB02F2024440F80B20B9F87A0150
:20E0500049780818001D80B20CF098FB3168294401EB0B02906008B1801E90607F1C042FED
:20E07000C8DB084802682401101900230832016043601151C360BDE8F28F00BF74C80100DD
:20E09000904E0020884E00201D4838B50468B4F1FF3F08BF00240BF0E6FE2448244B194AD3
:20E0B000002501211038056003F15C00164B016018681160806C80471448006820B11448B5
:20E0D00000682046FFF76AF9124813490560134C0A686FF35B4244EA0200086010490868BD
:20E0F000C0F30130012806D10A680E48104040F400320A6008600C4908680028FCD138BD2D
:20E110001C13005008220443F001001080012843000120438C2108404820034000003901D4
:20E1300004000940FFFFFCFC0C0068429404604200600C402DE9F84F1F468B46161C14BF58
:20E150004FF080484FF000580CF056F8DFF884A0002503248146BBF1FF3F06D15046C36F30
:20E17000002B0CBFC06EC06F03E05846294609F07FF840B390F83F4034F07F0422D05446AF
:20E19000E16F81420DD001463A4606F035F9C8B1207C012814D004F1D00002210CF05CF83A
:20E1B0000EE043462A4608F05DFA002E14BF0A480A480AF0E7F81FB1E16E3A4606F01CF9F1
:20E1D000832400E0042448460CF080FB2046BDE8F88FC046D01200200100020401000104D4
:20E1F0002DE9F0471D4616460F4681460CF0D6F923498246884698F80000C40004EB401483
:20E21000204824181B480068C06A80472060C4F80490A760A6841849E5600888E084401C97
:20E230000880089820610998174A60610A981678A0610B9841460027E0610C980F4B20621F
:20E250002EB908781C78844208BF012700E00878401CC0B220281CBF0870002402D100241A
:20E270000C70204607B11870147050460CF02EFBBDE8F0878C010010DC0C0020D80C002068
:20E29000D90C0020D00D0020DA0C00202DE9FF478146284888460178012916469A4609D14C
:20E2B000F10701D41B2E03DB1B2E03DB1E2E01D016200AE00C9C5CB917200CF06BF901257C
:20E2D000040006D14FF01308404604B0BDE8F087002520460127B8F1000F00F8016B02D002
:20E2F0005146C047471C30060ED5102148460CF075F9E0B9B8B222184B46B9B2204600F03C
:20E31000C6F8804668B90C370421ADF800100194ADF80870694648460CF038F90028804621
:20E33000D2D0002DD0D0204606F08CF9CCE74FF01908F6E7E12D00202DE9FC410C000746B3
:20E3500090461E4603D0300018BF012E01D012203DE020480178914204D28A2002F00EFF17
:20E37000302034E0384609F06DF801002FD1F8B20BF074FB184D0746287820B901200CF0F0
:20E3900001F9072023E01548016888472A781449531E2B70D1F800C0E047B7F88E01424633
:20E3B000904209D22146384604F032FC01000ED1204606F047F906E0102000903346214697
:20E3D000384603F087F83846FFF77EFA0020BDE8F68100BF6B4F00207A4F0020E00A002089
:20E3F000E40A00202DE9F04104468846A8F11600012802D9801E02D046E0032500E0052525
:20E4100028460CF0BBF800283ED0A0F1090694F89400002814BF281D2846401CC0B2F080ED
:20E43000002106F108033160317171710320A8F116071870012F03F8018F04F5CA7202D968
:20E45000BF1E05D020E0D0785870D17899700DE0D0785870D1789970108810B12189081826
:20E4700010801088D8701188090A197194F8940020B12A460321204605F0E2FDA06E3146A2
:20E4900003F03EFF012000E00020BDE8F0812DE9F04F050087B08A46984601D0140001D10F
:20E4B000022046E00AF104091FFA89F00BF05CFC06003BD0404607F045FE08B9142038E039
:20E4D000876A52462946301D0AF080FFF7703D0A4FEA174AB57086F801A04FEA176B86F8A9
:20E4F00000B00CF027FA0146102203A80AF06EFF0820009001AB1FFA89F2314603A80CF09E
:20E5100039F8814670B92770657084F802A084F803B0082201A9201D0AF058FF791C404694
:20E530000AF0AEF930460BF02FFC01E04FF01309484607B0BDE8F08FBCB5284C241F04F1CC
:20E550006C05E16F28680029074644D100283DD0684605F0E1F828B1009818B1082008F0C4
:20E57000A1FEBCBD08200AF077FE28460AF0E0FAE06707F1180003C81749C4430B1F1C606B
:20E590001A681042FBD10A6810430860F869C04341F80C0CF86951F8082C104341F8080C6B
:20E5B000F868044609F0EEFE2088A0F6020040B141F21E01401A04D041F6E671401A0128FA
:20E5D00009D8012021460AF013F9BCBD04F1D00002210BF041FEBCBD14100440D41200203A
:20E5F0002DE9F047DFF894A0DFF89480002501244FF002091126E8B20BF012FA071C38D031
:20E61000B87A012835D197F90900AAF10401113004FA00F0C2430A604A681043486097F975
:20E63000090004FA00F0C0B20AF016FE07F11000002109F0E3FB0146812909D1B86918B19E
:20E65000002109F0DBFB0146812908BF87F80A9081290ED0404600F2991297F9091013780A
:20E6700006FA01F100F582701943117000210BF0F3FD6D1C032DBED3BDE8F0870C10044002
:20E69000D01200202DE9FE4F804625480CAF1E4601923D78006800918047DFF87890B8F123
:20E6B000000F029006D148460168029888470220BDE8FE8F1B4800274FF00F0B4FF0010AF1
:20E6D000041F54F8080FD8B9012D0CBF124B134B1448019A008897FBFBF140180AFA07F10E
:20E6F000C0B2984760B90098C4F80080606006B1377048460168029888470020BDE8FE8FFC
:20E710007F1C0F2FDDDB48460168029888470820BDE8FE8FE40A0020816901002D57010020
:20E73000E00A0020C8060020FEB5044617290D46104647F2305632D1627D21690C277A43D0
:20E750008B1801881A888A4202BF5A8841888A4202BF82889988914221D1816898680AF043
:20E77000B5FBE0B1607D227D401CC1B29142607511D22169C0B24743C81982680092838884
:20E7900042880188208807F059F840B9207A314603F0FAFE16E0A17D8DF8041002E0002280
:20E7B0008DF8042001A920880AF072FF012D01D10120FEBD207A314603F0E6FE192002499B
:20E7D000A07061601620FEBD1160011038B5044618200BF0D3FE002849D0A0F1090594F83E
:20E7F0009400002814BF1D201920E880002105F10803296029716971032018700F2104F5A9
:20E81000A47003F8011F02885A700188090A99704188D9704288120A1A7181885971828860
:20E83000120A9A71C188D9710021C0885972000A18729972FF20187358739873D8731874E4
:20E8500058749874D874187558759875D875D97294F8940020B118220321204605F0F0FBF0
:20E87000A06E294603F04CFD0020E083012032BD38B5044618200BF081FE002849D0A0F181
:20E89000090594F89400002814BF1D201920E880002105F108032960297169710320187097
:20E8B000102104F5A47003F8011F02885A700188090A99704188D9704288120A1A7181886A
:20E8D00059718288120A9A71C188D9710021C0885972000A18729972FF2018735873987347
:20E8F000D873187458749874D874187558759875D875D97294F8940020B118220321204659
:20E9100005F09EFBA06E294603F0FAFC0020E083012032BD72B587B001F003048DF81C4029
:20E930000025204C21688DF802108DF8005007A9039104240121ADF818108DF80340029389
:20E950009C18194D2968ADF816200223019004948DF814300A6890470646144A1448D36A7E
:20E970000168187800280CBF20311C3111480A6800686946904710B100200AF047FA04988C
:20E990000178217004984178617004988178A1700498C178E17030462A6852F8041F884727
:20E9B00008B070BD2C4F0020A02E002074C80100F84E0020284F0020F8B5264E264C317863
:20E9D00005462078891C8842A4BF00200AF01EFA3278921C1C23012D0ED1A168002003FB75
:20E9F00000F64F1CBF5D012F04BF8F5D012F19D0401CC0B29042F2DB0026A16803FB06F7FB
:20EA10003944487828B90F78FF2F0DD0606881420AD1761CF6B29642EFDB00200AF0F6F9EB
:20EA30000020F2BD8819F2BD0020486048610D700120487020786278401C20702A43C0B2A3
:20EA500001281CBF802D402D627000D161600846F2BD00BF7B4F0020142E00202DE9F041D5
:20EA70000BF0CAFB244D214E804605F1E000007848B93446A168022088470746102008F0E8
:20EA90002FFD77B31BE00BF04FFAC0091BD21B483C380068C4681648342101220023A047D0
:20EAB00088B103F0B3FA34460020A16885F8E000022088470746102008F012FD8FB1A168AF
:20EAD000032088470DE00B4800683221B1FBF0F101B90121303528460BF07EFB28460BF020
:20EAF0007DFB40460BF0F2FEBDE8F0815CB8010000A00C40B82E00204C040020E00100109F
:20EB1000D0B5041D14F003001CBF241A241D09F027FE02461F4E1E483768102C026084BF25
:20EB30001D480768386800231E46010823D226B9844209D93B46012620E0196809188C422D
:20EB500019601BD81F460846EFB114490B68001B042807D238681B1A0B603868394640F067
:20EB7000004005E0385144F0004038600868001B08603F1D07E080F0004000263F183868C8
:20EB90000028D2D1002710460AF049FE3846D0BD082E00200C2E0020102E0020E80A0020B1
:20EBB0002DE9F0410E46071C14BF002E002040D0224C4FF0FF3104F1280080460AF0BDFFE0
:20EBD0003078FE2811D022680021FF2808D082422AD31F2828DA04EB8000D0F898501DBBCB
:20EBF000491C16F82100FE28EFD1002038607860B8603078FE2818D00125FF280FD01F28BA
:20EC10000DDA7B6804EB800105FA00F0C1F898701843094978603268384608F023F816F83C
:20EC3000040FFE28E9D100E0002740460BF008FB3846BDE8F081C046007FC76738030020A4
:20EC5000F0B520480127F84201D006F081F9204D204F214EBD4206D203CD0478A400345955
:20EC7000401CA047F6E71D48002800D08047164D164FBD4202D210CDA047FAE7F0BD03252B
:20EC90001BE0416808300A1C2A400BD11A1C2A40AB4305D0046804300C600431043BF9D16F
:20ECB000131C05D0047801300C700131013BF9D1021C2A4001D0A84304300368002BE0D120
:20ECD0007047C046FFFFFFFF0000000000000000ACEC010014ED010068EC010015C4011091
:20ECF000B0B505460F4614466800ADF1180D082100EB85006A462030C0B209F087FE0028C9
:20ED100029D16846FF2106220AF0D9FB18BB7035E8B2102102AA054609F078FE00282CD157
:20ED300002A80AF0CCF95FB902A8002110220AF0C6FB10BB02A8002110220BF09FFA14E03A
:20ED5000384602A90AF0C8FC40B924B1002002A90AF0C2FC08B9002010E0078081788C424C
:20ED70000BD084700CB90021018002A80AF0A7F92846102102AA0AF0D4F9012006B0B0BDB3
:20ED90001C48F8B540F292411B4A81601E21016005214160194850601A4810618308D360FE
:20EDB000174B194893600026C160184C06704CF2503313600F210161FF22427018214280D8
:20EDD00063228280032282603246204602F0D1FA0F4D0727183521461822A5F1180000F0E4
:20EDF0003FFA7F1EF6D10B4806700B4F7E703E70F8BDC0462C2E0020B02D002040420F00E4
:20EE1000C0C62D0000A493D69C2D00200C2D002024280020FE2E0020EC2E00201D482DE973
:20EE3000F0410178012933D001211B4B1E4E1B4F1B4A017023F00303B04600203B601D468A
:20EE5000D21A3968174C31603768226002E045F8040B22689E18AE42F9D89210E82601EB35
:20EE7000820242F8040C114D3E60226822F00302EC3AC1F8E820E8312960FFF741FE0C4904
:20EE9000D8F80070266808600A4B2F60301F1860BDE8F081F40A0020032F0020EC0A0020E5
:20EEB00000400020BC2E0020F00A00200C2E0020102E0020E80A002030B5054622480278E0
:20EED0002878ADF1140DA0B12049401E08D0002410200094234601F055FF40F655110FE0B2
:20EEF000002410200094234601F04CFF40F6511106E01749102001F045FF002440F64D117A
:20EF10002878009001940122029409A3039404A00494FFF765F9284606F074FF05B030BD17
:20EF30007065726970686572616C2E6300C046C0737769746368446174612D3E737461740B
:20EF500075733A20256400C0E02D002089DE0000DD6701001CB5044621786068C1B1491FE7
:20EF70000B2937D8DFE801F03431062D3636272A2421361C1B49102001F004FF50BB0023E4
:20EF90001948009319490278102001F0FBFE21E0018841F230128A421CD1FEF715FF19E0BD
:20EFB00008200021F7F704FF14E005F05BFD11E004F08AF80EE0FFF77FFF606809F0A6FE98
:20EFD00008E0008801F0A4F904E00AF031FE01E00AF018F9606820B12178092901D006F0FF
:20EFF00011FF1CBD15610100E02D002089DE00002DE9F84F81460020C9F80000684604F066
:20F010008BFB204FDFF880A000264FF0FF354FF0190B34468046E0B20AF002FDB8B1837AC7
:20F03000ABB1017A0126022915D079684A8A4069C968891897F89A210BFB021108F0C8FE61
:20F0500051460968B0FBF1F0854288BF051C641C032CE0D300E00025B8F1000F04D0012EBB
:20F0700005D0B8F1010F05D0012E04D005E00098854200D9009DC9F8005046EA0806F0B26F
:20F09000BDE8F88FD0120020B82E0020FEB5044666680F460BF0B0F83178012904BF0024AF
:20F0B000021C32D0012535700BF010FC787970723879307268460AF06FFD3968009411B11D
:20F0D00002200BF0A1F8A0686668416809F0FAF907460BF091F802460E490F480860086860
:20F0F0000128FCD00D480760337A0D48012B1ABF002343604560777A002F0CBF2B1C002388
:20F11000084E3360856005600D6010460BF0DEFB2046FEBD000C084051E5CC1A000008403C
:20F13000000100432083004338B5204C2078092818BF0A2801D0212032BD40F201400BF0FB
:20F15000EDFB207809280DD1194A1A481368018819489980007804F047FF002100200BF0DF
:20F17000C9FB20E00A281ED11148144B02681D88598898884D19451995805988D1809979B5
:20F19000802918BF81290FBF7F210D4D95F90000091A1172012118880BF0ACFB002003F0C2
:20F1B0001BF901F041F90020207032BD6F4F0020982E0020944E0020714F0020E04D00206E
:20F1D000704F00202DE9F0470C468146E00BC00318BF84F4004439D1002C08BF002036D076
:20F1F0001C480068804782461B480188002501262F4606FA07F2224203D17F1C0F2FF8DB1A
:20F210001FE04D46EA01FB00001DA2EBC502CD01A5EBC1018D1AED189B1A5B18C158BE40EA
:20F2300005EB0008B5B211B11B18586888474846294608F06FF920B90020C8F80000C8F805
:20F25000040006480168504688476C40A0B2BDE8F087C046E00A0020C8060020E40A002058
:20F27000002A4AD05FEA000C8B071CD1830722D1102A08D370B4103A78C978C0103AFBD2D6
:20F2900070BC103238D0042A2CD3082A05D30C2A24BF08C908C008C908C008C908C0920734
:20F2B0002AD0920F22E00B780370491C401C521E22D08B07F7D1C30714D18307D8D0121F1C
:20F2D00012D308C903801B0C4380001D121FF8D20AE008C903701B0A43701B0A83701B0AA0
:20F2F000C370001D121FF4D2121D05D00B780370491C401C521EF9D16046704738B504462E
:20F31000216D49B9BC200AF02FFD0028206541D0BC2200210AF0B2FF616D4A78206DD106EF
:20F3300016D500F11802426000F130010022C161426300F1580100F15802016182620164DA
:20F3500000F1780200F178014261C162426420E0011D00F11C020A6000F15C0300F19402EE
:20F370000B614A614A6400F1300300F13002CB61CA6400F14C0500F16C0300F18802886210
:20F390000D630B640A664A678A6700F1A401C0F88C10206531BD70472DE9F04180461C46E9
:20F3B00020482768006815460E46ADF1280D1FBB0C20FFF7A5FB071C17D0684600212422A1
:20F3D00008230BF0D3F80023069741466A46ADF81030154805930BF0C5F83860386838B97A
:20F3F0000AF012FA384606F00DFD6FF0030015E07E60BD60276009E08047044638680BF00B
:20F4100045F90A480168BD6020468847386841460BF044F938680BF03DF900200AB0BDE8E2
:20F43000F081C046E00A0020E59E0100E40A0020FEB584684668206809F058FC2168204896
:20F450008A6B1040886340F2F27120681D4D416494F82000295C94F82100401980790843C5
:20F470002168486368460AF0AFFE317F05EB81012068B2690B6A717F05EB81018969194309
:20F49000B37F05EB83052B6B0B43019909F083FB2168C86A40F01000C8622168086B40F06C
:20F4B00001000863A07D0027FF2802D0E07DFF2800D11FB1086B40F440400863FEBDC0461B
:20F4D0000DF8FFFF84B50100B0B5456884682349607DA27DADF1180D40F000400090207D19
:20F4F0000027FF2A41EA000001904FF0020002D0E27DFF2A00D13FB1E37DA07D1943039127
:20F5100040F0004002900420FE214DF8201005F154006946FFF744FB2866002808BF381C22
:20F530001AD0617D0F2208F069F9286E217D102208F064F9A17D3846FF2902D0E27DFF2A8F
:20F5500000D140B1286E112208F058F9286EE17D122208F053F9012006B0B0BD0000C0A0B7
:20F570002DE9F843814600255FEA090018BFB9F1010F884602D1B8F1000F01D1122016E008
:20F59000012006F0F5FA00B101250126184F1E247443385D484506D13B1906224146581C87
:20F5B00009F094FC28B9761C062EF0DD0220BDE8F283FF203855CDB10E4D4A4641462846F8
:20F5D00004F070FE062806D005EBC000417901F0EF0141710AE04A464146284607F0AAF9AF
:20F5F00020B105EBC000001D09F0A6FE0020DEE7DC250020CC4700202DE9F8432020EFF314
:20F61000118780F31188214CA06801210AF0A6FF4FF001094FF0000865692168A4F81C90D1
:20F630006A1A2168A4F81E80461B401A904227D387F3118840462D18361A484629460AF0C7
:20F6500089FFB042F7D92021EFF3118781F31188E18B012903D1404629460AF07BFFB0F114
:20F67000FF3F06D0A169801B814238BF081C291801E0A06941190AF069FFA4F8209025602B
:20F69000A4F81C8087F31188BDE8F883780100208B4208BF824204D90B1C021C002100209B
:20F6B0007047002B08BF002A0BD10B1C021C00210020002B08BF002A1CBFC943C04302F00D
:20F6D00034B8F0B51C4615460B46024600200021B4FA84F6202E04BFB5FA85F62036B3FA8C
:20F6F00083F7202F04BFB2FA82F72037F61BB6F1200727BF05FA07F400257F42B4403EBF5C
:20F7100025FA07F73C43B540A34208BFAA4201D3521BA341404149416D0845EAC475640837
:20F73000761EF1D5F0BD70472DE9F041DFF8888004680E4617464FF0FF3140460AF0FDF9D3
:20F750004FF0FF35092E08D0217A0120B040084212D108433546207211E0237A0521012011
:20F7700000FA01F2134202D0491EF9D504E0227A88400D4610432072B5F1FF3F15D0A7B18F
:20F79000062008F053F82946384600F017F80746062007F053FD47B1217A0120A8404FF06F
:20F7B000FF3580F0FF000840207240460AF048FD2846BDE8F081C046A80700202DE9F04157
:20F7D00080461F4800680D46416927208847012404FA05F61B4DC5F80064C5F87C47032720
:20F7F000C5F8807718480460C5F88477D5F80404012818BFC5F80444C5F8FC631348046014
:20F81000C5F800801023AB6020460AF0AFFCD5F88C076FF39D000028F6D0D5F88C1720462F
:20F8300011F0404F09D1C5F884770021C5F8FC16D5F80024164218BF081CBDE8F081C04646
:20F85000B00100100440024000E0484200004842F8B514460F460AF0A1FE86B2204801685F
:20F87000097809B90AF037F8AFB1384608F0A9FC40B114B14FF0FF3020700820FDF7ACFE17
:20F89000002423E04FF08055D5F8CC017968BA680368386808E04FF08055D5F8CC01036874
:20F8B00001224FF48070014698470B49012008600A4905F5E67508684008FCD32868416877
:20F8D000022088470CB100212170044630460AF0FDFF2046F8BDC046A802504208800240DB
:20F8F00010B90100F8B50E460546307A810617461C461DD538460AF025FE0146012228468D
:20F9100004F04CFE30B1607A10B1207A012801D00820F2BD38460AF0A9FF030006D0314642
:20F93000284601B0BDE8F040122218470E20F2BD010609D538460AF005FE01462846BDE899
:20F95000F840002204F02ABE01070FD538460AF0F9FD01460122284604F020FE010009D043
:20F97000617A41B1217A012904D0F2BD800701D40320F2BD0020F2BDF8B51446214D08B137
:20F990002A78027011B1204842780A70002C37D0002600272978F8B2884231D207F052FD07
:20F9B00060BBF8B20AF05AF8F1B2761C6754711C02681378802BF6B214BF01220022A25552
:20F9D00000F59470CBB20278E2544E1C4178F2B2761CA154F3B28278E254761CC178F2B25F
:20F9F000761CA154F3B20279E254761C4179F2B2761CA154F2B28079A054761C7F1CC9E735
:20FA10000020F2BD7B4F0020684E00202DE9F34F81B092469B46084606F094FB08B1112048
:20FA30003BE04FF6FF7006F08DFB040034D05846129D119E109FDDF83C80DDF838900C99E3
:20FA50009DF804B060710622A01D09F099FE0622002104F10C000AF011FCBDF80800608019
:20FA700084F804A084F800B00021E16284F81290A4F81480E782268665860D9828B10146B3
:20FA9000062204F10C0009F07BFEBDF8080000210AF054FD002000E01520BDE8FE8F2DE915
:20FAB000F843044604F168052868016800293CD10D200AF063FDC0B3A0F1090600203060D6
:20FAD0003071707106F108070E20F08003213970042007F8010F04F1A00808224146781C0E
:20FAF00009F04EFE04F198090422494607F1090009F046FE2868314602F002FC0821404682
:20FB1000F0F7B2FE04214846F0F7AEFE002041422144221891F89F1082F8BF10401C0828A9
:20FB3000F5DBA88AE882012000E00020BDE8F2832DE9FE4388461746012405461E4639007F
:20FB500004BF002009F062F905F1C7000AF0F2FC28680078802805F1BA0902D14A460021CC
:20FB700003E0402806D14A460121D5F8F0000AF0DDFC02E0002009F049F901A80090334622
:20FB90003A464146484601F0F3FEF0199DF804100278914201BF01A94A7843789A4207D144
:20FBB0008A7883789A4202BFC978C078814200D00024D5F8F000401CC5F8F0002046BDE89A
:20FBD000FE83FEE72DE9F843DFF87C808946054617464FF0FF31404609F0AFFF1B4C04EB22
:20FBF000C504666825680AF007FB1949097801290CD12968002909D405DCB9F1000F09D0E1
:20FC10004FF0FF3108E0B9F1000F03D00AF05EFE002413E02968491C29600AF057FE286826
:20FC300002280BDA1FB968460AF06DFA6F4638686860C0272F727068FEF712F840460AF0C2
:20FC5000FFFA2046BDE8F883A8070020B4B90100D30C00202DE9F84F1D4C207830B943F659
:20FC700098200AF09FFE20780028F8D0194C00250126DFF864B0DFF864A0DFF86490DBF888
:20FC9000000069464FF0FF320AF04CFC9DF80000DAF800304000C7B2B3FBF7F87FB120684E
:20FCB0000321324606F0FAFF284606B90120064640460AF077FE7F1EFFB2002FEFD1206855
:20FCD0000321012206F0EAFF012689F80050D6E78C0C0020D02E0020C42E0020B82D00204C
:20FCF000ED2E0020F8B5224C0C380F4621D042F22601401A38D11D4808F01AFF051C33D0BC
:20FD1000A8680346008809F059FE061C01D009F0EDFD184606F076F8284606F073F8B8780B
:20FD30001A2821D1B000002100EBC6000019017217E0CFB1B88809F041FE011C01D009F09B
:20FD5000D5FDFE78880000EBC1000021001901720EB9FA794272FB79827A9A4208BF817276
:20FD700001D0C17A491CC172F8BDC0466C2E0020FC2D00207FB521480078002818BF0120DC
:20FD90003AD10AF0CBFB0AF0D9FD03460020014602460AF033FD1A4C002604F1480528465A
:20FDB000FF21062209F08BFB00BB700010216A4600EB8600233008F029FEB8B96846FF213E
:20FDD000102209F07CFB88B9A87929466A46002300F001000AF012FDE879400906D2A87930
:20FDF0002946012200F0010009F04BFB761C0835062ED4DB0020A07300907FBD5A4F0020B7
:20FE1000600500202DE9F0430E4691461D4607AF80461B214FF6FF72ADF11C0D06AB0AF096
:20FE3000CDFC024605925AB300200090BDF818000190FF2402947C680DF11203294640464A
:20FE5000A047041C17D16889ADF81000700824BFCDF800900D4907D23978502008F042FAC9
:20FE7000CDF800900A4901904246102004AB00F089FFC4B22CB104A81B210AF0E3FC00E066
:20FE90001524204607B0BDE8F083C04645000110CDFF00102DE9F0411D4EDFF87880307883
:20FEB0002825684309F060FFC8F8000008B913202CE00024FF27307884421DDAD8F8001093
:20FED00005FB04F28B18002C14BF4FF6FF704FF6FE7018800021002098705F7203F1240049
:20FEF000182247701F729972017003F10C000AF0C5F9641CE4B2DEE707480AF00BFB0748C3
:20FF10000AF03CF806480AF001FB0020BDE8F0815E4F00208C2E00203993000079940100A8
:20FF3000C5160100FEB5040031D01C4D1C491D4E1D4A4C6000212B68306853F84C7FB84770
:20FF50006068017B01F00F0102290CBF80680AF0E9FC6169A06009B120468847A069134B6F
:20FF70000021CDE90001022261682C68306854F8085F0F4CA8476FF001052080A84204BFD1
:20FF9000002008F043FFB4F90000A84204D1BDE8FE40002008F03ABFF7BD00BFF04E0020C6
:20FFB000142E0020EC4E0020000900202D3C0100424F0020F8B504000D4617461E4608BFA5
:20FFD00008F024FF15B9002008F020FF6078062801D10720F2BD3A462946204604F062F99F
:10FFF00006282DD1002104EBC1004279D30707D593
:020000040001F9
:20000000491C0529F7DD002008F008FF1F20F2BD42F0010242710021CBB215F8012B034466
:20002000491C9A71CAB2052AF6DD4179002F0CBF01F0FD0141F0020141716178491C61703A
:20004000002E41790CBF41F0040101F0FB0141710020F2BD2DE9F047214F064638688A46D0
:2000600090464FF00009002408B1112035E01D000DD0042009F050FB95F89C10814206D308
:20008000052009F049FB95F89C10884201D2022023E07C2009F070FE386008B913201CE078
:2000A0007C2200210AF0F2F839684C703A681670386880F802A03868A0F806808566C4668B
:2000C00004711EB10AF026FA81464C463968012048700CB10AF01AFA4846BDE8F08700BFBB
:2000E000304F00202DE9F8438146EFF31188202080F311881E4D1A4C184F012605F11C0011
:200100000660A4F114000660F86A016A14208847D9F81000810C14BF000C04202060386809
:2001200002682321002090470E480F4F0660386800280CBF311C03210C4807680FB141F048
:200140000401183C206820F4E02040EA014020602E6088F31188BDE8F883C0468401001062
:20016000182009408002244308BA01000CBA0100000024432DE9F0438846214914460546FE
:2001800007AF1E461122ADF1140D6846FFF770F83878A6F101095FFA89F6002808BF012707
:2001A00003D045444FF0FF376D1E32462046002101F0E7F83A2119E0B14503DD761E04F85A
:2001C000011BF6B2287800111DF8000004F8010B287800F00F001DF80000B61EA8F1010368
:2001E000F6B2ED195FFA83F804F8010BB8F1000F03D0042EE0DA06B1217005B0BDE8F083E9
:20020000CCB801002DE9F04106467468B56809F0FBFF8046A06A58B928688169090907D294
:20022000006B400A04D240460AF058FBBDE8F08104F5827009F0DCFF00274046A7620AF0DB
:200240004DFBA97D3846FF2902D0E97DFF2900D118B12046294600F0DDFE09F0D5FF2A6891
:20026000916B21F0200191632A68116B21F4807111630AF033FB04F2291008F0B7FE606A06
:20028000216A091A21622369626A30469847BDE8F08170472DE9B841044601201E4DDFF8F7
:2002A0007C8060712079D0B908F062FA844628460778002F04BF6FF00705644617D07F1EB9
:2002C000FFB207704FB9604609F0B1FA4046006807F004FC0020607119E0644614E008F03F
:2002E00047FA29780446FF2905D16FF00605204609F09DFA0CE0491CC8B20128287003D114
:200300004046006807F001FC204609F090FA00252846BDE8B881C046180D00201C0D00200D
:20032000F0B50646C820ADF1140DADF80C00ADF804600025ADF80A500C27ADF806702420B5
:20034000ADF80800304609F041FB011C01D009F0D5FA15488C0004EBC104241860680AF0F4
:20036000D1F8606805F056FD102001AA0C49656000F010FDC0B2112810D1384609F05CFF54
:200380000090071C0AD0022009F056FFB860B86820B106800348694608F0E3FB05B0F0BD9F
:2003A000D5050100542E0020FC2D0020FEB5172904460D4647F2305626D120880AF00AFA8B
:2003C000A28BA38A411F8A18A283618AA28B511A89B2994214DAA0F1050C5F1ABC45B4BF86
:2003E000431F5B1AA069084400909BB2218A208805F02CFA40B9207A314602F0CDF816E0CF
:2004000001218DF8041002E000228DF8042001A9208809F045F9012D01D10120FEBD207A75
:20042000314602F0B9F819200249A07061601620FEBD00BF11600110FEB50026CDE9006626
:20044000174D184E37682868174C57F8105F002302222146A847154AC2E900016188ADF84C
:200460000010BDF800000028F9D0B1F5A05F05D0002008F0D3FC8920F0F796FD0C480D4B96
:20048000C16818784A880C4C024322800978880643BF0A490868400A002009490870F7BDD6
:2004A000EC4E0020F04E0020CC2C0020504E002074C801006C4F0020544F002080130050F0
:2004C000704F00202DE9FC4106467568B7680C4609F09AFE80461C4A2B7C10882BB14046F2
:2004E0000AF0FCF90020BDE8FC8101212974237914466B7418B9201D07F0B4FC2088401C7E
:2005000080B220804FF08054D4F8A001016810208847D4F8A00101688020884740460AF05C
:20052000DDF93878FE246946019440F0204000902846FEF73DFBE860002812BF301C002067
:200540002874BDE8FC81C046200A0020F8B509F0DBFC002400B90124194E21463068002880
:20056000FCD01B4D492001241035A870346009B109F0D0FC09F0C8FC002700B927463946C0
:2005800030680028FCD0FB202870346009B109F0C1FC09F0B9FC002700B927463946306806
:2005A0000028FCD06C70346009B109F0B3FC05490C6000200860044F3860044E3060F8BDB1
:2005C00000800C400402924330600C4010900C4018B00C407FB504462389E288A1886088F3
:2005E0000AF000F808B9022031E02088012109F0FDFF08B914202AE02088164D09F0E4FC73
:20060000042806D128884FF6FF71884218BF11201DD100200290019022890092E388A2889D
:200620006188208809F0D2FF06000FD120882880208809F0C9FC042808D107486188018005
:20064000A2884280E18881802289C280304604B070BD00BF9C4500200C4E002070B5044657
:200660001C480D46C179880632D51B49887802072ED51A4E317871B1082008F087F938B3C6
:20068000912101703E22142342708370848085710146307818E00F2008F078F9C0B10121EF
:2006A0000170FF22427000F10801416004220A708A700C713E231422240A4B70CA704C71CD
:2006C0008D71014606480078BDE8704008F026BC70BD00BF1C4E0020144E0020F12E0020A9
:2006E000EF2E00202DE9FC4704461E480D4616462146000BC0B2074609F03AFD814617487E
:2007000000688047804606F041FB8246B2002946484609F0D9FC504608F0B4FD02E0241D0B
:200720002D1DA4B23046411ECEB288B1384621466A46042306F04AFA68462946042208F05A
:2007400013F90028EBD008480121801E417001700348016840468847BDE8FC87E00A00203D
:20076000E40A002000D00100A60D0020F8B504460D46092009F00AFF002839D0A0F1090681
:2007800094F89400002814BF0E200A20F080002106F108033160317171710320187004F59A
:2007A000B47703F8015F788858707988090A9970F888D870F988090A19713888587139889E
:2007C000090A9971B888D871B988090A197294F8940020B109220321204603F039FCA06EB8
:2007E000314601F095FD142D04BF1B20F8840120F2BD70472DE9F0431E4D044600279946B9
:200800000E46A2EB0408ADF1140DC5F8B071012009F0B4FC2868C00FF9D3286A0090686A65
:200820000190A86A0290E86A03903CB12346684610F8011B5B1E09F8011BF9D10320C5F836
:2008400038023D467CB142462046EC462B469918745C1CF8011B401E03F1010381EA0401A6
:2008600041EA0505F3D1002D14BF0420381C05B0BDE8F0835045024070B506467468B568F9
:20088000206E08F006FC29681A488A6B10408863002020703046FFF7B5FC304604F027FD52
:2008A0002968C86A20F01000C862296812480A6B104008636868FCF797FE04F17C0009F04E
:2008C0009DFC04F1980009F0C5FCA07818B904F1CC0009F0B7FC607818B904F1E80009F063
:2008E000B1FC04F5827009F075FC04F1680008F025FA70BD0DF8FFFFFEFCFFFF1D4810B530
:20090000ADF1180D09F02AFB06F038FC1A4C1B48E1680068086006F065FCE168486005F0AD
:2009200019FB0020014605F035FB09F01DFB00200090044601903721032202900AA3039428
:2009400007A00494FDF754FC07F0F2F905F0DEFD07F0D8F909F0D2FD204606B010BDC046E3
:200960006D61696E2E6300C0696E746F206D61696E00C046C16D00005C0C002030BA01005B
:200980002DE9F041074609F067FB16461C4A5478A6F10C05FF2804D0174B1B781B18506A55
:2009A000C45CDFF85880FF2C04D140460068806880471DE0084608F00DF801464346FF2094
:2009C000A8721D6837B92046EC6B00223346A04740B10AE0012F08D120462C6800223346D0
:2009E000A04710B90020BDE8F081304608F086FA0120BDE8F081C046FBB50100AC0D00205C
:200A0000D4090020F0B5064685B00D4630890DF1120109F02FFF04002ED0708804AB4FF681
:200A2000FF720D2109F0D2FE164F03007B6003D130892880112023E03079BDF81010BDF86F
:200A400012200390029121467089019000977088F5F7B8FF040006D17088394609F04AFD89
:200A600068B116200CE01628786808BF002403F0F1FD200001D102E0012430892880204691
:200A800005B0F0BDFC4C0020F0B5064685B00D4630890DF1120109F0EDFE04002ED070886B
:200AA00004AB4FF6FF720B2109F090FE164F03007B6003D130892880112023E03079BDF814
:200AC000101003900022019202910097BDF8122070882146F5F776FF040006D1708839468B
:200AE00009F004FD68B116200CE01628786808BF002403F0AFFD200001D102E00124308967
:200B00002880204605B0F0BDFC4C00207CB5044604F1080009F0E6FCA078172818BF19283B
:200B20001AD1207B012813D12069A8B1002508E00C2108306943405808B103F08BFD6D1CCD
:200B4000EDB2217D20698D42F2DB09F025F903E0A06908B103F07EFD0020FF2504F12406A6
:200B6000A070657230707078FF2806D0002100917D232188002209F019FE757004F10C00F6
:200B800002B0BDE870401822002109F07FBB2DE9F04385B0064689461546984606F05AFCA2
:200BA000010032D10C9CF0B208F060FF064606F5A47706F5AA7004904346798903912A46F6
:200BC000387A02903046318901910094494600F059FB08B112240CE0A7F800907D80A7F802
:200BE000048006F18A00FC8084800580A0F80280002430680178802907BFFC220021FC22D0
:200C00001021304600F000FB204605B0BDE8F083FEB505460E462889174602A909F02AFEE3
:200C200004002ED0207A81060BD5BDF8080009F025FE03000BD0688812222146984704008C
:200C400020D1687C002814BF5220287901E00E2418E00190002000906B89EA68298968887D
:200C600000F0B8FC040007D1687C68B9688809F035FC48B11620FEBD162803D100243C7009
:200C800002E0012429893180687C00B100242046FEBD7047B0B51E4C241FE06F04F16C0592
:200CA00070B32869806908F09BFC0746286900233A4605F0DFFCB80806D20FB328694FF489
:200CC0008041C4F8800017E02869104F8269396822F00202914339602969CA6957F8083CC9
:200CE00023EA020147F8081C296905F1080007F038FF00200221286104F1D00009F0B4FA8B
:200D0000FDF776FCFDF720FCB0BDC04614100440D41200202DE9F84187B080460C460026B8
:200D200094B3A0791A4D0028207D05900CBF08270427618A049104F10803208A0390E18946
:200D400002910197A0880090E2792978E07809F0C1FBE078C0B9208A0690B8F10A0F08BF0D
:200D600004F11B06618A05911722049204F10801E0890390029701960091E379A18828782D
:200D80000122FEF74BFEE07008B0BDE8F08100BFA24500200FB4F0B505AF0646ADF11C0DDF
:200DA00009F072F93C1D24F00304241D30F0010001D108F031FD05941420ADF8100000255A
:200DC0000295FF238DF812307A68069204F056F83146032205AB07F080FC2A4601A80C49AA
:200DE00001922B46009041F28830F9F7B3FF012805D020B9019820B109F0BDF901E008F009
:200E00000BFD0598006807B0BDE8F04004B070471DA0010070B506460C46A4F11B00154642
:200E2000E1283EBFA5F5A47044F24911884207D216480288A24222BF15490888A84201D273
:200E4000122070BD304606F005FB01001DD1F0B208F00CFE90F8FD108A0601D4112070BDDC
:200E600090F88C11CA0601D51A2070BD00F5B3710A78012A01D13A2070BD01224C80CD80E5
:200E80000A70142101F07AFA002070BD484F00204A4F00201CB5142008F06EFF1B4908604B
:200EA00008681422002109F0F1F90020F3F706F9012005F0CFFC022008F074FA032009F0FA
:200EC00005FB042009F0FEFA052009F0F7FA062009F0F0FA072002F09BF8082004F07AFFA4
:200EE000092009F059F80A4800684468002101AA6B461020A04700249DF80410204608F05A
:200F00003BFC641C0A2CF7DB1CBDC046D82E0020AC0D00202DE9F04106460F4614462420AE
:200F200008F02AFF050028D0DFF85480404609F08DF801280BD113480178FF291CBF124AAC
:200F400011701249124A0B780370012010702E81AF7234B11822214605F10C0008F018FC5E
:200F600005E01822002105F10C0009F08FF92946404608F08FFD002000E01320BDE8F081EC
:200F8000642E0020A8450020C80D0020604F0020E12D00201E482DE9F0470068ADF1280DB2
:200FA00050B3174C174DDFF86080184F012620E009F0FCFA2178CA0002EB41124244B2E870
:200FC00000566B46A3E80056B2E80052A3E8005292E80450491C01F01F0183E804503A78AB
:200FE00021708A4208BF2E7009F078FC6846F8F741F828780028DBD00AB0BDE8F087C0469D
:20100000D80C0020DA0C0020D00D0020D90C0020D40C002038B50C46054609F0F5F82268CA
:20102000916B21F02001916309F058FC286E217D012204F0CBF9286E217D012205F036FEB2
:20104000286E217D002206F0E1FB286EA17D002206F0DCFBA878012806D005F1CC004FF0A5
:20106000FF3108F072FD03E0216888690009FCD2286E217D102206F0C9FBA17D0020FF291F
:2010800002D0E27DFF2A00D118B1286E112206F0BDFB38BDF8B5074609F0B6F804467FB3D3
:2010A000B87A68B397F9092007F068FE012303FA02F1CDB248B1144E113203FA02F0326813
:2010C00082433260C34346F8043C0020B8610346BB723B7207F110063B60024686E80C006E
:2010E0000A4A7B6002F5CC7003781943017092F89A0110B1401E82F89A01284606F0DAF8B7
:20110000204609F0EBFBF8BD0C100440D01200202DE9F04188B00E46044690461D4601A973
:2011200007F028FA074658BB5FEA080013D03088ADF8080002227188ADF80A108DF80C2010
:2011400003218DF80D1028228DF80E2002A9204607F068FB03E03146204607F063FB070045
:201160000ED1162231460DF10A0008F011FB0198054B8DF808800095092202A905F0CFFCB4
:20118000384608B0BDE8F0812D5E011038B50446194841780A062DD5184D287870B1184A7C
:2011A000117859B9032007F0F1FB010022D09120087010224A708C70287817E00C2007F0D0
:2011C000E5FBB8B101210170FF2200F108034270436004211970102341684B7001224168B0
:2011E0008A70014642680748D4700078BDE8344007F094BE31BD00BF1C4E0020F12E002021
:20120000624F0020EF2E0020F8B504000D46164608BF07F003FE194908688047FF2E07468E
:2012200004F1760105D148794D70A0B90120487111E0002004F17702135CB34219D0401C93
:201240000428F9DB042805D14879421C04F177034A711D5408B90020087049790429A4BF27
:20126000002007F0DBFD06490A683846BDE8F240104704F177031D54E4E700BFE00A00209E
:20128000E40A0020FEB50C46154640F67B41A21F8A423CBFAE1F8E422ED2A5422CD3B3F53B
:2012A000FA7F29DA0899A1F10A0640F67747BE423FBF5B1C6E005E43B6EBC10F1CD290F810
:2012C000941041B1D0F83C110A26B1FBF6F6F6006B439E4210D3294604F074FC01280BD05D
:2012E0000C990B98019100900A9B099A2946204609F0DCF8012801D10120FEBD0020FEBDE8
:20130000F8B5944605469E4699B10B460022881A401E002809DD2E4677883488A742BCBFB9
:2013200037807480B61C401EF6D15B1E02F10102EDD1480808D221F001002A5A401930F89D
:20134000020C8018431002E0481035F810300020024669B135F8026BF41A24B2002CB8BF4A
:201360006442A44502DD401C9219C0B2491EF1D1B2FBF0F0AEF80000F8BD002213460A46AA
:20138000194671B510F0030F0BD0002A82BF00F8011BB2F1010210F0030FF6D1002A08BFEC
:2013A00071BD11F0FF0141EA0121042A18D341EA0141082A0FD30E46102A08D30C460D4609
:2013C000B2F10F0312F00F0272C0103BFCD812F0080F18BF42C012F0040F18BF40F8041BBF
:2013E00012F0020F18BF20F8021B12F0010F18BF017071BD2DE9FE43194D06460F46287848
:201400009146082106F08EF808B1162026E0154C20884FF6FF78404505D0B04206BF2978E4
:20142000894511201AD1FB88BA887988388809F0D9F890B10020042102900091CDF8049070
:201440003A46094B1221304609F02CF8010004BF2188414502D1268000E01820BDE8FE8348
:201460005D4F00209C4500202D500110F8B505460E46184F184CA86E09F020FA217888B1FF
:201480000279032A0ED1027A032A07D04079C20604D5491C21703878401C3870A86E09F032
:2014A00019F9E8E7A9B10D480278914204D2012E0FD10B4A107860B1AA79ADF80020ADF8EF
:2014C00002100DF102026946012009F0FBF800202070F1BD7A4F0020744F0020754F00202E
:2014E000764F0020F8B50446084616461F46092107F0A4F8054605F10803002F06980CBF60
:201500000221012103F8011B00222A6000272F716871EE8094F86620012A0FD1721CEA80A0
:2015200094F8940028B1121DEA802046324602F08FFDA06E294600F0EBFE0DE0A06E09F073
:20154000C5F8010003D1A06EC56005E0014608680028FBD10D6028600020F2BD2DE9F0412B
:2015600004461A4841784FF6FF78464611B9002007F054FC0025164F0DE0488EB04209D86D
:20158000064607E00028F8D001F182000189B14298BF0E466D1C3978E8B288420FD208F015
:2015A00065FA014648790028F4D001F1820246451078E7D100280CBF4E8E1689EAE7B44262
:2015C00088BF3446A0B2BDE8F08100BF684E00207B4F00202DE9FE438146884616461F46B6
:2015E00002A9404609F046F904002BD0BDF8080008F054FF844618B30A980B9D00903B468B
:201600000195324621464846E0470746D8B9FE2D19D02078022816D160680178407801EB20
:20162000002142F6021289B291420CD13078717800EB012082B24146484605F0BFF902E0DD
:201640000E2700E001273846BDE8FE83F8B50B4601464C69601E024218BF221C651E1846F7
:2016600010EA05071CBF2044C01B834213D8CF6801F10C0C7FB1531E796803EA070613EAE0
:20168000070518BF561B84198C4206D9BC46DCF80070002FF0D10020F8BD091ABA198D1B03
:2016A0003EB98E4204BF3868674608D03968674602E07E6025B13968101801604560386030
:2016C0001046F8BD7CB54FF6FE729042054633D00B004FF6FF7608D106F070F960BB30466B
:2016E00006F06CF940B3058073BD012905D106F065F9040020D026800AE002291CD10121D5
:2017000008F074FFC0B9284606F058F9040013D0207AFF280ED0FE2807D0002000901422C7
:20172000A378607A294609F041F82046FFF7EEF9FF2020720021A17273BD7047F0B5064613
:201740001A481338007815460024ADF1240D022808BF0124082B01D1280905D30846410063
:2017600001EB8001213104E00846410001EB80012231CFB201A81C22002108F087FD1C2135
:2017800001AA384607F04AF970B99DF81E0007280ADB102808DC0094304605F00101C5F321
:2017A000C00201AB08F076FE09B0F0BD7405002070B5064618480168884705461748016834
:2017C0000C4601E021462468FCB1626D1378B342F8D1227A124E012A04D13168284688474C
:2017E0000C2070BD22680A6001688C4204BF23680360206D08B108F0CFFA204608F0CCFA89
:20180000316828468847002070BD05490A6828469047422070BD00BFE00A0020AC2E00204E
:20182000E40A002010B5FF281A4A0CD1002005E0131D0021C4B243F82410401C1378C1B2D8
:201840009942F5D324E0030018BF01281DD0022818BF032819D0042818BF052815D0062899
:2018600018BF072811D0082818BF09280DD00A2818BF0B2809D00C2818BF0D2805D00E280C
:2018800018BF0F2801D0122010BD121D42F82010002010BD9C2B002070B50446A07905F080
:2018A000D9FD60BB16480168884704F59E7605467079012809D1A07908F0E8FD3079012895
:2018C0000BD0002007F0AAFA07E0307928B9012131712046122100F051FD7079326880F073
:2018E0000100707104F5A17352082146054808F0A7FB2846BDE8704003490A68104770BD4C
:20190000E00A002099180100E40A002038B50546062008F03BFE80B3A0F1090495F894007C
:20192000002814BF0B200720E080002104F10803216021716171032018700C210F4803F8CA
:20194000011F02785A70418899704288120ADA70818819718088000A587195F8940020B1C1
:2019600006220321284602F073FB55F8680F214600F0CEFCA88AE882012032BD604E0020EE
:2019800072B501F00305121D87B002268DF81C500293ADF8162007AB124D134A29680C9C91
:2019A0008DF8021003930121ADF81810042511680E4BDA6A0E4B01908DF800608DF8035025
:2019C00004948DF81460107800280CBF20311C310A6818686946904710B1002007F01EFAF5
:2019E00008B070BD2C4F0020F84E002074C80100284F0020B0B5154604460F1C08BF052408
:201A00002AD034F07F0003D0154800688068804714480078A042D8BF032407DD57F80C0C23
:201A200018B917F8020CFF2804D00524384607F065FA11E0012D094807F8024C03D03946B1
:201A400005F010FB02E0394606F0B2FF20464FF40041FAF733FC00242046B0BDD80900207C
:201A6000AC0D0020FBB50100002900D0704738B504F070FB04002DD02079174D40F01000A2
:201A80002071296831B38A6D5AB1087810B1C878020706D5E06A08B108F07EF92868806DEA
:201AA0000AE0C86D70B1097801290BD1E06A08B108F072F92868C06D1C2107F081FCE06249
:201AC000286838B12968C878410703D5207940F00200207131BD00BF304F00207FB5034677
:201AE00017480D46018817480088144611A6984216DA994210DA0095002C48BF47F6FF74AC
:201B0000114E00201149ADF804406A46346802901846A04702980AE0184607F08DFC08B9BD
:201B2000324600E042682146284604F08FF800907FBDC0467B6D6F64756C652325647D0057
:201B400068BA01006ABA010040BA01007D81010010B5052904462AD194F82400401C84F883
:201B600024009078012805D15068118800EB8102111F06E051681288122042438818A0F12A
:201B8000120108784978E28900EB012081B2914215D2401CA08104F10C01208807F068FD0A
:201BA000207A47F2305100F0F7FC162010BD10790A2802D194F8240008B9012010BD0020DE
:201BC00010BD70472DE9F0410F460446ADF1400D08F058FC054617B3103C684600213C22D6
:201BE000082308F04BFC10346068A668E268069069460896236805920D480493002208F00C
:201C000039FC061C0FD006F0B3FD8046304602F0E1FE40B1404607F00AFE7F1EDDD12846AC
:201C200008F024FC01E008F025FB10B0BDE8F081C99B0100B0B51A4C0546241D2068000475
:201C4000070C27D01448006800688047134991F90720824205DD10F1800FB8BF6FF07F00EF
:201C6000C871BD422CBF01277F1B8D88BD4210D80A68D4F8D40F801A801C1F2888BF1F205F
:201C80007F1B4008C7404FF6FF70EF19B84238BF071C8F80B0BDC046EC0100105C2E002062
:201CA0003010094070B50D460446287A4107164604D5304608F04EFC012205E0410609D5D5
:201CC000304608F047FC002201462046BDE8704002F06CBCC10617D5304608F03BFC014676
:201CE0000122204602F062FC60B9304608F0C6FD030005D029462046BDE870400A22184734
:201D00000E2070BD082070BDC00701D4022070BD002070BD174810B50068016804208847F3
:201D2000022821D003281FD001281AD012480068C0F38150032805D002280CBF41F2883233
:201D4000322201E04FF47A720C490D4C09684C342046B2FBF1F108F047FA204608F046FAB4
:201D600010BD04F0E1FC10BD04F0DEFC022005F06DFA10BDE0010010B43F0050B82E0020A5
:201D8000540400202DE9F0410646174800688047164C8046606800273D4690B110F8021CA9
:201DA0008E4208D135B160B130464FF40041FAF785FA0BE0054605B9074650F80C0C002850
:201DC000ECD130464FF4004104F084FA25B1201D29463A4604F09EFA054801684046884741
:201DE0002846BDE8F081C046E00A0020D4090020E40A002010B5024601241078912804D0FD
:201E0000A2281CD0D02821D028E0517805290AD00E2904D00F290AD03E290CD01EE0104696
:201E200005F0B4FD10E0104600F0F8FF17E0104601F042FA08E01046FAF764F904E050880D
:201E40004FF6FF7105F0B8FA044608E09078132805D15168D07807F053FC00E0002420462A
:201E600010BD7CB506460D46002409E0BDF8002001463046FFF716FF01001DD1641CA4B256
:201E8000A888844222DA286810F81420401C694610F8143002EB032290B208F0EBFC0028D2
:201EA000E4D1286810F8141001702868421C12F814104170012076BD296811F814200A70D7
:201EC00029684B1C13F814204A7076BD002076BD002B08BF002A0FD10B1C021C002908BF5A
:201EE000002807BF0020002100204FF00041C4BFC043C943FFF721BC10B55C0894EA6104A2
:201F000004D55FF0000E40426EEB010113F0004F04D05FF0000E52426EEB0303FDF7C0FB89
:201F2000241C04D55FF0000E52426EEB0303640004D55FF0000E40426EEB010110BD70473D
:201F40002DE9F8430024002B16460F468046254606D5002FC3F1000302D57F42761E2D25C0
:201F600099463846494604F015FA0CA0405CB7FBF9F7002F04F1010408F8010DF1D1A642A7
:201F800005DD3021301B401E08F8011DFBD10DB108F8015D4046BDE8F883C04630313233ED
:201FA0003435363738396162636465660000FEE72DE9FF410C461146124A1568401E002644
:201FC000012888BF022019D80F480778142CC8BF182612DCDFF8348022464046FDF748F907
:201FE0000D480621048032460A4B094C00912846019741460294FBF7E1FD30460090BDE890
:20200000FF81C0467C2E0020CC0C0020D30B00209548010044070020D00C002038B54FF009
:202020008055D5F8E001016801208847012822D0D5F8A401C4681148342101220023A04730
:20204000002808BF002017D0D5F8800006F006FAD5F88C01C06A80470A4A094C93681168DF
:20206000D060C01AA1EB910104FB00F3180C884228BF011C1160012038BDC04600A00C40DB
:2020800040420F00882D002098B5164C94F8E100002710B91448007860B108F0B5F894F8B8
:2020A000E310002906BF012184F8E310012708F015FC0FB1002098BD022005F0BFFB0E2049
:2020C000FBF7D6FD094A106848B909494020C86008600127D761002084F8E20098BD0120D9
:2020E00098BDC0464C04002071B8010004800C402C500C40F8B50C46054608F085F8064648
:20210000E0B207F095FC8024071C1FD0B87AE8B111480078022806D03846FEF7BBFF01F035
:202120003BF8812412E097F909100C4C4FF4A060002200EB012000F47F4044EA0001284613
:2021400005F0D2F804463846FEF7A4FF304608F0C5FB2046F8BDC046E012002001000804F2
:20216000012898B527D116480068016801208847012820D006F020FB134C012104F1D8005A
:20218000017007F0D9FE800917D20E4800683222B2FBF0F707B90F46083C04F1300008F072
:2021A00027F804F13000394608F01EF804F1300008F01CF801E003F08FFB002098BDC04644
:2021C000E0010010B82E0020540400207CB5174D2978FF29064627D00C2006F0D7FB0400F7
:2021E00022D0D0202070002111486670A1700078104E002818BF022806D1062206F1100106
:20220000A01D07F0C5FA07E0684606F077FB06226946A01D07F0BCFAF08AA080317EE17073
:202220002146287806F07AFE73BD00BFA2450020594F0020504C00201CB50446002061799A
:20224000122902D0132908D016BDADF800006A462179608808F006F91BE0012007F05CFA53
:2022600002460D480078082103F060FA10B10A2006F0D4FD208960B10848094CC18883886E
:20228000428800913B20218808F0E8F84FF6FF702080012016BD00BF5D4F00200C4E0020BA
:2022A0009C45002010B51129044616D194F82430118850885B1C491E84F8243041435068B2
:2022C00089B201444FF6FF738878C97800EB012082B29A420AD1002010BD10790A2803D113
:2022E00094F824000028F6D1012010BD401CA08180B2E2898242EED3208804F10C0106F012
:20230000A3FA207A47F2305100F046F9162010BDFEB5044615480D4601688847A168064660
:2023200011B9A56004E0014608680028FBD10D600F4A00202860052113680E48ADF8001025
:2023400001940295006853F8247F6946B847812806D0206800280EBF2560606805606560DA
:20236000304605490A689047F7BD00BFE00A0020F04E0020EC4E0020E40A002070B50400E4
:202380000D4608BF06F04AFD94F87B000428A4BF002006F043FD12480168884706460020FC
:2023A00005E004F177018B5CAB4213D0401C94F87B10C2B28A42F4D304F17700455494F809
:2023C0007B00401C84F87B00C0B20428A4BF002006F024FD3046BDE8704002490A68104718
:2023E000E00A0020E40A002030B5010018BF012803D002281CBF062800201249124C887305
:202400004FF4C1520A80002301224A734B804B608B600B73CB730D4A0D4813880B82406B3D
:2024200042692578136805EB45055A19B2F801304B8242684A6183688B61C268CA6100699A
:20244000086230BDCC2C0020714F0020544F002074C8010070B50446092008F097F860B3FB
:20246000A0F1090594F89400002814BF0E200A20E880002105F1080629602971697103209D
:202480000E4906F8010B0A78082A0CBF08200E203070082204F1FD01701C07F079F994F8C8
:2024A000940028B1334609220321204601F0D0FDA06E2946FFF72CFF012070BD6F4F0020F9
:2024C00070B50446092008F061F858B3A0F1090594F89400002814BF0E200A20E88000216D
:2024E00005F1080629602971697103203070092106F8011F072294F8FD000B497070B01C1E
:2025000007F046F994F8940028B1334609220321204601F09DFDA06E2946FFF7F9FE002049
:20252000E083012070BD00BF762D002070B54C68456860B308F0FEF9064606F6C416A068B6
:20254000314608F0BFF9012808D0A068314608F0B9F9012818BF002006F060FCA068314639
:2025600008F0B8F948F6B901884210D3A16809484118A86808F0A6F948B906F58846A868D9
:2025800006F15C0108F09EF910B1012070BD022070BD00BF4877FFFF2DE9F8430546164884
:2025A000006888468047164F81460F2D1EDA134901EBC5004068C8B10F200126B5FBF0F4A6
:2025C000AE400D46288831460019C0B204F0AAFF60B12888314642460019C0B203F0A6F88F
:2025E0003968484688470020BDE8F8833968484688470220BDE8F883E00A0020C806002065
:20260000E40A002010B5FF241022ADF1280D214668468DF8204007F039FE062204A821465C
:2026200007F034FE062206A8214607F02FFE022010216A4606F07DFD10216A46044603204F
:2026400006F077FD0121044308AA042006F071FD0621044304AA052006F06BFD044306AAD7
:202660000620014606F065FD20430AB010BD70472DE9F041066890460F4607F06FFA4FF075
:20268000FF35012410B907F097FA30B184F00104E0B2002808BF002100D071680D4C20462C
:2026A00007F053FA90B9B7F1FF3F0CD0062005F0C5F839464046FDF789F80746062004F012
:2026C000C5FD07B90025204607F0C2FD2846BDE8F081C046A80700202DE9F0411D461646D8
:2026E0008846044608F016F802F074F9071C08BF6FF002041ED006F03BF802460F48002137
:202700000C3830F80C3F5BB904804760C0F808803170786800242860104607F088F809E0A0
:20272000A34208BF6FF00204F6D0491C0629E8D307F0A0FD2046BDE8F081C046542B0020BE
:202740002DE9F0410D461E4690460746062D25DA062F23DA06F00CF81249AC0004EBC5043B
:20276000024664186068B0B1104607F060F806F8087C06F8075C06F8068C606831460830DD
:2027800005F0ECFA606840684FF0004107F0BAFF0020BDE8F081104607F049F86FF0020099
:2027A000BDE8F081542B00202DE9F0410D461E4690460746062D25DA062F23DA05F0D8FF13
:2027C0001249AC0004EBC504024664186068B0B1104607F02CF806F8087C06F8075C06F8FB
:2027E000068C60683146083005F0B8FA606840684FF0005107F086FF0020BDE8F081104621
:2028000007F015F86FF00200BDE8F081542B0020164880B507683FB315498B6803EA530019
:20282000C00E21D2134A106880081DD2486880081AD21068096810F0050F4FEA114101F0EE
:20284000F00101F5E0710AD1B9420DD2190F38BF40F00100D90E38BF40F0040003E0B9424B
:2028600002D920F00500106080BDC04628500940AC3F00500000094010B507F0C5FC134997
:20288000097802291AD008F029F811480068006B8047104A002306F087FF0F4C4FF0905320
:2028A0001B1820684FF07A044FEA000244EB010400215B1844EB0204241C04E0074990392B
:2028C0000C6808F00BF8204610BDC046E01200208C01001000093D00342D002094300440D2
:2028E000F8B5184C1548E76F07F086F91449054608680E6800F02000284006F460260DD03B
:2029000067B10300C4F880700022384603F0B2FE04F1D0004FF4804107F0A6FC16EA050046
:202920000AD094F8991141EA504084F89901002104F5827007F098FCF8BDC04620000E0036
:202940000C100440D0120020F8B5844640F6FF741CF8013B002210E0481B401E10F8015B6E
:202960007F1E01F8015BF9D103E01CF8010B01F8010B521C5B08082AEADA5808F5D21CF891
:20298000010B1CF8015B05F00F07FF1CC5F30315122F45EA001508D11CF8016B300A24BFCA
:2029A0001CF8010B60F3DF16BF19AC42D4D1F8BD38B50546134C1C220021204607F066FCDA
:2029C000114A124812496260A0600D70114A1078002818BF022804D104F1100007F03AFD94
:2029E00003E004F1100005F089FF0546280004D10120207007F02AFD02E000212170122590
:202A0000284632BD504C00201C0C0020C42D0020584F0020594F002038B5054613480078AA
:202A20000C280C4607D1124A12491368086853F8401F88470EE00A2802D10F48807909E0F1
:202A4000284604F007FD01000FD1E8B207F00EF890F87400C1B2802918BF81290FBF7F2092
:202A6000064A1178401A2070002032BD6F4F0020F04E0020EC4E0020E04D0020704F0020C2
:202A800038B505460C4604F0E5FC010026D1E8B206F0ECFF210007D0828E438E521C5B00C2
:202AA000E1005A43914201D2122032BD00F59E750A214C432C6090F8940070B10849086885
:202AC0008047044600222968A8796A714908FFF763FD04490A6820469047002032BD00BFC5
:202AE000E00A0020E40A002030B5134D6C780CB10C2030BD114C6578AC0601D4112030BDE0
:202B0000A0F11B04E12C3CBF0D4C208044F24910A1F5A47585423CBF0A4C2180A2F11B015E
:202B2000E1293CBF08490A80A3F5A47181423CBF06480380002030BD684E0020742D0020D5
:202B4000484F00204A4F00204C4F00204E4F002070B5044604F168052868016839BB0120AE
:202B600007F014FD18B313490A78A0F109060220072A08BF0620F080002206F1080332609E
:202B800032717271032018700B2203F8012F0978072904D101220321204601F059FA2868A5
:202BA0003146FFF7B5FBA88AE882012070BD002070BD00BF6F4F002038B5134C134D002256
:202BC00022704FF48051287804F084FA2878104D4FF4805103F07EFB0E4806F06BFC0E48B7
:202BE00006F068FC01F0BEFFFF20287006220021E81D07F04BFB1022002105F10D0007F03E
:202C000045FB0648606031BD784E00206E4F0020DC250020CC470020A8480020A0BB0D00E9
:202C20002DE9F84380468946164600271AE0284607F008FC040021D02A46494606F0A8FD39
:202C4000761BB0B200280CBF102000203946A9444F1CCBB203B1012300902A462146404625
:202C6000FEF740FCB0B238B1B8F88E51B1B28D4234BFEDB2F5B2DAE7BDE8F2838120FEF76D
:202C800085FA0720F8E72DE9F84306460C460025012724E006EB070818F8010C06F0E6FE78
:202CA0000168F05DD1F8049006F0E0FE00684168D9F80800896807F005FE01280ED118F840
:202CC000010CF15DF25D484008F8010C5040F0553D4618F8011C484008F8010C7F1CA74217
:202CE000D8DBECB2002CD2D1BDE8F1832DE9F0410546884616463146404607F00BFE1E24A0
:202D000090B1012704FB07F0295CFF2906D02844C11D0622304606F0E1F8C0B97F1C072FD0
:202D2000F0DBFF20BDE8F081012704FB07F0295CFF2908D0884506D12844411C06223046E5
:202D400006F0CCF818B97F1C072FEEDBE9E7F8B2E8E77047FEB50188B1F5C15F18BF012054
:202D600024D1C66941698769124B03240296ADF10405009103F1080000680197C0F3036629
:202D800055F8047F7FB10A4938464FF0FF32052305F014FB052806DA8100785820F47020C4
:202DA00040EA06407850641EEAD10020FEBDC0460200F8444C1300507CB50546154800886F
:202DC000001F84B2042C22DB1348000BC6B2304621466A46042303F0F9FEBDF80000854279
:202DE00004D19DF80200241AA0B27CBDBDF80210C80BC00307D1081D844203DA002006F08B
:202E00000DF804E0641A241FA4B2042CDFDA00207CBDC046A60D002000D0010038B504468F
:202E2000A08803F097F998B1817C042901BF1049A2880B889A4204BF4FF6FF750D8004F0C5
:202E40000BFC0C480178A379A288A07802F020F9094C207820B106F049F908B100212170D4
:202E6000064A106818B1BDE8314007F0FFBB31BD9C450020A24500205C4F0020A44E002027
:202E8000F8B5154C002200212046FCF77DFD20783425684306F070FF10490860D0B10020AB
:202EA00000270CE00B6805FB00F213444FF6FF765E801F71401C0E683244C0B2D76222788E
:202EC0009042EFDB00200649002241F82020401C0C28FADBF1BD00BF694F0020E84E00204C
:202EE0004C4B002070B505000E4618BF002E14461CD0DCB1012007F00DFD70B101223146E8
:202F0000284603F01FFD40B12146AB1DBDE87040062203EBC00006F03BBC062005EBC00620
:202F20007179CA0703D5401C0D28F7DB70BD41F00101717106222146B01D06F029FC7079F9
:202F400040F00200707170BD15482DE9F0410068806980471449134C0E686568B6F57A7FD2
:202F600017D00021401B324688460B4606F01CFC4FF47A720023FCF793FB07464FF47A72FA
:202F8000002306F011FC32464346FCF789FB281800E0471B6060384602F038F9BDE8F0819A
:202FA000AC0D0020E42D0020E80900202DE9FC41064688461446002000270DE0019068887A
:202FC0000090AB88AA687088FEF704FB162817D10021A9607F1CFFB20C490A78974213DAF7
:202FE000D8F804100C237B430B441D46298859B1781C90421BBF9889002818201620DDE7D8
:203000000028E7D029882180BDE8F681614F002070B5144C144920700878C00006F0ACFE41
:2030200012490860E0B100220F49002507E04FF6FF7320F8323000EBC206521C75600B780C
:203040009A42F4DB052007F0F9F9207807F0F2F9074807F063FA2078BDE8704006F0CCBF2C
:2030600070BD00BF604F0020694F0020D84E0020653A010038B50D46290427D5144A107888
:20308000FEF780FE04001ED02078A2280BD0B02816D12046F7F7AAFA90B1217904F10800FF
:2030A00007F0D8FB0CE06079652808BF00F008FD08480078FF2803D0214605F02FFF10B12B
:2030C000204605F01BFF85F4004032BD002032BD604F0020C80D002010B504462078ADF1BB
:2030E000180D8DF814000090002001904FF41C610290012203900BA3049006A0FBF778F87F
:203100000B490C4A05A8F1F763FF204602F082FE06B010BD7065726970686572616C2E63F6
:2031200000C046C07374617475733A256400C046BF0A0020A00A00203EB5401E4FF0000415
:203140000AD0401E04D0401E1DD1F5F70DFE1AE0FEF79AFF044616E0684606F0B0FF20469F
:203160000C4D019401226B468DF800000749029005F1780001F066FB054A2C21234605F16B
:203180009C0003F047F920463EBDC046CD360100ED3300004C040020164838B5017C022972
:2031A00023D00446207C012822D007F02DF805466846FBF725FF80B1009949B904F18800A7
:2031C00007F016F804F1D000042107F04DF808E004F1880006F036FB03E004F1880007F0E1
:2031E00007F8284607F07AFB38BD192007F01AF838BDC046D01200202DE9F0410746884660
:20320000164602F0A7FF050022D0142005F0BEFB04001DD0D020207000210B226170A2703F
:20322000A91D0622E01C06F0B3FA678118F00101266118BF0121217318F00200214618BFB3
:2032400001206073BDE8F041024A107805F066BEBDE8F081A24500202DE9F84F81468846A8
:2032600093469A46404602F075FF08B3102005F08DFB04001CD00C9F0B9D0A9E1022002103
:2032800007F004F8D02020700F2184F80190A170A4F80480214684F808B084F809A0A67275
:2032A000E572E76003480078BDE8F44F05F036BEBDE8F18FA245002070B58388012142F22A
:2032C00013041A1B02D0921F10D01BE00F4D2E884FF6FF72964209D00D4B1A68002A1CBFEC
:2032E0001268002A0FD00146204608E0094A1268002A1CBF1268002A05D0014618469047EF
:20330000014600E00021084670BD00BF9C450020AC4E0020A84E002070B50446012002F078
:203320002FFC08B10C2070BD114D124E28787CB1012C1BD1317849B972684FF4805102F021
:20334000F5F908B1032070BD01203070002070BD31780029FAD04FF4805103F0BBFE28786C
:203360004FF4805102F0B6FF0020EEE7122070BD6E4F0020784E002038B50446032007F02A
:2033800005F940B3A0F1090594F89400002814BF08200420E880002105F108032960297189
:2033A000697103201870112104F5B07003F8011F02785A704178997094F8940020B1032206
:2033C0000321204600F044FEA06E2946FEF7A0FF0020E083012032BD38B505001FBF2C6829
:2033E000002C2078FF2821D0012802D102F0C8FBE0B9012002F0C4FB38B1012002F0C0FB1E
:20340000401E8041C00F05F009FD00202860607007490B784A7820788243581E08704A70B1
:20342000C0B218B948600021024A117031BD00BF142E00206F4F002038B5F8F76DF90F4D28
:203440000F49104A2868104B44685020A04710B12868806880470D480068804704460C48AA
:2034600006F000FE06F014FF02F03CF9094801682046884703F012FE002038BDAC0D002048
:20348000F9890100FF2E0020E4090020E00A002031970100E40A0020F8B50646B0881546E2
:2034A0000F46FEF71BFB0446002D02D4281B0A2806DB3368291B38460CA202F0C7FB24180E
:2034C000B08901280FD1002D06D4B06806F0F6FA291B401D884206DCB368291B384604A2D5
:2034E00002F0B4FB24182046F8BDC046257000C02827257327290000F8B5054606F0B2FEA4
:203500000746AE686868790804460BD300F5947005F06CFD606B216BE368091A2163626B62
:2035200028469847B80815D304F2291005F05EFD3168886B20F0200088633168086B20F450
:2035400080700863606A216A091A21622369626A28469847F8BD38B50D4684B02A7904465A
:203560000023062107F032F90390F8B12888ADF800000222698803988DF80420ADF802103E
:20358000282200218DF806208DF80510691D2A79ADF8082006F0FCF86946204604F096F903
:2035A000040004D0039801F055F800E01324204605B030BD70B50446022006F0E7FF38B3E3
:2035C00004F17E06A0F10905B07D002814BF07200320E880002105F10803296029716971DA
:2035E00003201870022103F8011F94F818215A70B07D20B102220321204600F029FDA06E83
:203600002946FEF785FE0020E189E0833180012070BD00007FB506F0F7FD144C0646241FCA
:20362000207801281AD0684606F0BEFA00254FF0FF3027216B4601900B4A8DF8085004F13F
:203640003C0002F0E7FE201D012104F00BFC04F12000294604F006FC01202070304607F065
:203660003DF900907FBDC046D3FB0000A8070020F8B505F07DF81349086013490D680026D3
:2036800037463C46334612E0110809D21FB913462E4601270AE031689B188918316005E0B2
:2036A00082F000420027A34288BF1C1CAD182A68002AE9D19C4238BF1C1C06F0B8F8204677
:2036C000F8BDC046082E0020102E00201348144A14490078801E0A2807D8DFE800F019145A
:2036E0000F06140F06140F0607C0FEE710688008FCD250688008FCD2F5F736BB0868800806
:20370000FCD3F5F731BB08688008FCD2F5F72CBB10688008FCD3F5F727BBC0463005002071
:2037200034600C4038600C40154AB0B5054602F15C000768E7B1F868007B012400F00F0061
:20374000022818BF002015D13969F8684B8AC9688068103AC91892F89A31192202FB0311A6
:2037600004F03EFB054909682860B0FBF1F001E00020044628602046B0BDC046B82E002097
:20378000E012002038B54FF0FF3005F029FF134C0F490546241F606981420ED10D4904F1A4
:2037A0003400002206F040FD0220207403F0B6FA18B9FAF71DFFFAF7C7FE0748284205D005
:2037C00004F1D0004FF0005106F04EFD38BDC046E9420000950C010002000040D412002043
:2037E000FEB50F46164615254FF6FF71814218D002F0B0FC011C12D00024881D009449790F
:2038000001AA234601F00101F9F790FEA0B99DF804003946324600F071FF25460CE014254A
:203820000AE0002439463246204600F067FF00B10025641C062CF5DB2846FEBD3EB50D4600
:2038400014464FF6FF71814214D002F083FC10B3002300934179821D104601F0010101AA7B
:20386000F9F764FEB8B99DF8040029462246FBF73FFA3EBD00208DF804009DF8040029463E
:203880002246FBF735FA9DF80400401CC0B206288DF80400F1DB3EBD10B5072904461FD18B
:2038A00094F82400E389401C84F824001188506800EB8102101F0178407801EB00218AB288
:2038C0009A4215D2491CA18104F10C012088FFF742FE207A47F23051FEF75EFE162010BD16
:2038E00010790A2802D194F8240008B9012010BD002010BD70B5012002F042F908B10C2096
:2039000070BD1048104E0168884705460BE020683060206D08B106F03FFA201DFFF75CFD3D
:20392000204606F039FA3468002CF0D1306810B1002005F073FA05490A682846904700206F
:2039400070BD00BFE00A0020AC2E0020E40A002010B500F5B673B0F86C115C8900F5B6725F
:20396000A14288BF21465183D389518A448E9B0103F574739942B8BF0B4640F271214C4368
:20398000E31AA3F59671918200F5B67100F5B670498B838A994288BF1946D182D08A40F6FC
:2039A00091229042B8BF4FF4296010BDF8B50546134800688047114E07460F2D19DA1149BB
:2039C00001EBC504241D206898B1084600880F210123B5FBF1F14018C0B203FA05F103F0B4
:2039E00079FB0025384625603168656088472846F8BD3168384688470220F8BDE40A002010
:203A0000E00A0020C8060020F8B50C4615460026134F20B1012811D0042814D01DE0162CA2
:203A200019DA1622002107F10C0006F02FFC2246294607F10C0005F0ABFE0FE0022C0AD1A4
:203A4000288878810AE0082C05D1384629460822FBF70EFC02E0182600E002263046F2BD69
:203A6000FC09002038B50129044605D0022924D1012106F0BBFD00BB204606F0D7FC08B158
:203A800002F0C2F8204602F0B7FF0C4D284606F0F9FB10E0208958B12146284605F024FD2E
:203AA000A17A04F10C0006F0D5FE204606F074F9204606F0E9FB0400ECD131BD642E0020B7
:203AC00038B5124D284606F0DDFB040007D11048104A0178104811700023037031BDA17ADF
:203AE000208904F10C0206F09DFC68B92146284605F0FAFCA17A04F10C0006F0ABFE204689
:203B0000BDE8324006F048B931BD00BF642E0020C80D0020A8450020E12D00201549096839
:203B200021280ADC212819D00C380FD00D380FD0001F0FD0C01E0FD01AE0253810D0001FCC
:203B400010D0401E10D0401E10D011E0086870474868704788687047C868704708697047D4
:203B60004869704788697047C8697047086A704700207047F00100202DE9F0410446276E16
:203B80001E461546884607B1B84704F1580003C805400E4008BF002D19D04046802103F03F
:203BA0006FFB04F1680181E8600050B100F1200106C900F12003B243A94383E80600216E9D
:203BC00081600020206604F1380006F041FBBDE8F081B0B504462189608906F0C3FE04F1FB
:203BE000380201005178D37808BF012000FB0310252590FBF5F5252101FB150010700021C9
:203C0000107800E0491C9378CDB29D4206D204F13C03CFB2DB5D9842F4D1B0BD90FBF3F12E
:203C200003FB110304F13C00C05CB0BD38B514461D46E00648BFEFF763FD600548BF05F07A
:203C40002DF9600303D5F3F7B3F924F40024200348BFF5F771FD200248BFF1F72DFD14F06E
:203C6000030F18BFEFF7A0F8002C48BF05F021FE15F0005106D06C0F04F00100BDE83240E3
:203C800000F0E8BF31BDC8B5074606F043FD03F075FD064606F0F8F930F0010014BF002EE5
:203CA0006FF004001AD067B1B7F1FF3F06D03846694603F04BFD30B107460EE04FF0FF30F1
:203CC00000E0002000907068009B00274FF00042394606F01BFD00B901273846C8BD0000C8
:203CE00038B50C4620B141680122A240114201D1022038BD914341600E480025031900EBD3
:203D00008401C1F8985003F144010978FF291ABF806850F8211044F020410548F6F77CFD19
:203D200020464FF0FF3104F059FD284638BDC046007FC76738030020084608B500F00051A7
:203D400000F00400084317D00C4800680168012088470C4A012809D0094909681046322263
:203D60007430B2FBF1F105F06DFD08BD074910460160054805F06CFF08BDC046E00100107C
:203D8000B82E0020E4120020242D0020E9420000F8B516460C4606F037FA1149832524B112
:203DA000641E16D0641E0CD009E001F17C021768002F08BF80250FD0C96F898F0BE0032588
:203DC0000AE0103109780022022908BF0122327002E004490978318006F080FD2846F8BD67
:203DE000D012002068140020024670B5084611464D6820381FD0401E1AD0401E18BF6FF03B
:203E000001001CD18C6806F0FFF90646206806F039F8B0F1FF3FF9D100246C64286C401E48
:203E2000A864EC643046AC6306F058FD204670BD0021084601E00121002085F82D1070BD4A
:203E4000A0F11B0210B5E12A3EBFA1F5A47244F249139A4207D20B4A1488844222BF0A4B07
:203E60001A888A4201D2122010BD084A53789A0601D4112010BD064A1080064801800020A3
:203E800010BD00BF484F00204A4F0020742D0020444F0020464F002030B514494A6B52694B
:203EA000116891F90040A04201DA002030BD137903EB4304214411F9035C8542B8BF581EB2
:203EC00011DB002100E0491C1479CBB2A34208D21368CDB205EB45055C578442F3DBC8B2D2
:203EE00030BD92F90500C0B230BD00BF74C8010038B5134C134D20780021F8F709FE18B9BE
:203F000004F08CFF2868D0B1416D0A78016801B92968087A01280AD0096801B92968486D37
:203F200003789342F5D1087A012807D102E0486D02782270086D4968486032BD002032BD79
:203F4000F72E0020AC2E002070B504460D461646052005F0CFF900B3062005F015FFB0B1DF
:203F6000122101704570626D11788170A0F80360226E5179002919BF217B41710022427126
:203F800006498A78910708D50146052001E000210E20BDE8704004F061BF70BD144E0020A7
:203FA00070B5040004BF002004F038FF04F17605687908B904F032FF0D48016888476A7923
:203FC000521E6A71FF21D2B20AB9697008E00022A3187733521C5E781E70032AF8DB29717B
:203FE0000021044A2970BDE870401368184700BFE00A0020E40A0020F8B51049104B4E6B99
:204000001F6804461020ADF8000004EB4405706901682944B1F80120ADF802206946094A80
:20402000106857F8242F90470748047071690A6806492A44B2F801004882F1BD74C8010063
:20404000F04E0020EC4E0020714F0020CC2C00202DE9F04104460D4616461F4604F1C7004F
:2040600006F070FA21680878802804F1BA0802D14246012103E0402806D142460021D4F864
:20408000EC0006F05BFA02E0002004F0C7FE3B46324629464046FAF745FCD4F8EC00401CFA
:2040A000C4F8EC00BDE8F08170B504000D46164608BF04F0B3FE15B9002004F0AFFE607897
:2040C000E0B132462946204600F0F4F8062815D004EBC0050621687900F0FE00687100F0A0
:2040E000FB006871A81DFDF748F9687900F0FD0068716078411E6170002070BD1F2070BD8A
:20410000F8B505460E46688806F090F90027040017D0287A01280FD1214605F1080006F0CC
:204120007DF9002832462146284602D003F0A5FD01E0FEF73BFF0746204601F065FD3800DF
:2041400005D1688806F066F920B11620F2BD162F08BF00273846F2BD38B5144D0446286806
:2041600041780F291FD1036E0622611C03F1110005F00EFB2868026E217811742968886EA0
:20418000D0F89820C2F3802000281FBFC86EC268C2F38020002819BF10204870002006F091
:2041A000A9FA002032BD072032BD00BF304F00202DE9FE43134C06462068984617460D46C1
:2041C00006F024F9814629463A463046FDF73EFA07462068494606F015F95FB9084800683C
:2041E00000900196054C029521880022DD23404606F004F93846BDE8FE83C0468A12000026
:20420000281200002C1200002DE9F04106AF3E880D46804606BB022B1BD150781478BE88D7
:2042200004EB002434EA060010D1E9680968404605F0B2FC844208BF00200ED0E96809682E
:204240004046224604F042F8BDE8F0818020BDE8F0810D20BDE8F0810B20BDE8F08138B505
:204260000446022006F092F918B3A0F1090594F89400002814BF07200320E880002105F103
:20428000080329602971697103201870072103F8011F94F819215A7094F8940020B1022283
:2042A00003212046FFF7D4FEA06E2946FEF730F8012032BDF8B504000D46164608BF04F0E7
:2042C000ADFD217811B9002004F0A8FD002001E0401CC0B22178884215DA04EBC0014A7984
:2042E000D307F5D500228B18AF5C9B79BB4202D1521C062AF7DB062A02BF4979C1F340014E
:20430000B142E5D1F2BD0620F2BD0000124810B50122ADF1180D027000200090044601946A
:204320001A21029409A3039405A00494F9F760FF0A480178012908BF047006B010BDC04624
:204340004472697665722E6300C046C07265736574206E6F7700C046EC2E0020FE2E002077
:204360001CB504460D480078800005F065FF01460D48016081B14FF6FF7002F019FF10205F
:2043800007490090094A019106490623FCF702FD0749C0B20C701CBD13201CBD694F0020F3
:2043A00040B90100F17F01007C2E002044070020CC0C002010B582881049ADF1200D102042
:2043C00001ABFCF7E7FC0120062113230C4A00900DF10600FBF7CEFE0A4804F0B1FB041C23
:2043E00009D0A0680088FBF79BFFA06801F012FD204601F00FFD08B010BDC0463555010047
:20440000602D0020542E00202DE9F843124D6C352C689046002600E02468D4B1A142FBD1CC
:2044200005F10809276874B1204600224FF0805302F020F92846214604F0ACF948462146B9
:2044400004F08FFB761CB8F1000F18BF5FEA0704E8D13046BDE8F883D01200202DE9F041D1
:20446000884615461C46064606AF002124220823ADF1280D684606F081F8786806900B4865
:2044800000684FF47A71B1FBF0F039786B4680B24443ADF8101005FB00F205943046414692
:2044A00005F0A8FF30460AB0BDE8F08130BA010038B5134C05460846801E0ED0401E1BD184
:2044C000284642F6A62100F0C9FF021C17D02068A8B143689BB104210BE0284642F6C9213A
:2044E00000F0BCFF021C0AD0206840B1436833B105212846984738BD284602F051F938BD0A
:20450000740500202DE9F04E0D4691460027B9F1200F83461E462F7004DB0020BDE8F08E96
:20452000C0B2C719B8B24845F7D2345C7F1C002CF3D0B8B221188945EFDB16F800A05046D0
:2045400005F054FF7F1C0028E7D0601EDA452870E6D1BFB2F019E1E738B50D4629041CD50D
:204560000F4A1078FDF70EFC040085F4004512D0FDF740FC60B92078A22807BF0949087875
:2045800009480078FF2803D0214604F0C7FC02E0204604F0B3FC284632BD002032BD00BF24
:2045A0005D4F00208B0C0020A445002070B506460C46154601F0CEFD28B94FF6FE70864239
:2045C0001AD0142070BDC16AA1B10279D00601D40F2070BD0948007808B10125102493071B
:2045E00000D43DB9897EA14201D20C2070BD18B1900601D4052070BD002070BD6A4F00202F
:2046000038B50D29044615461AD194F82410491C84F82410208806F0DDF82988401E8142CD
:2046200016DBE0890918E18104F10C01208805F02BF8207A47F23051FDF7AEFF162032BDC1
:204640002879072802D194F8240008B9012032BD002032BDB0B50446104800688047104998
:2046600005460868A8B100270A4600F10801A14204D8818809180831A14204D207463868ED
:204680000028F2D105E007B917460168396005F083FB0448016828468847B0BDE00A00204F
:2046A000B00D0020E40A002070B505460C4605F0BDFE010006D14FF6FF7005F0B7FE010066
:2046C00017D00D80002200E0521C0B4B1D78D0B2A8420ED24B68D6B20C256E43334418888B
:2046E0000028F1D10C222146184605F051F8002070BD092070BD00BF614F0020BCB50C46AA
:204700001746410001EB80006A4620300821C0B2054604F083F928B96846FF21062204F06E
:20472000D6FE08B10020BCBD9DF80700002F01460EBFA1430C43E1B2884206D08DF8071072
:2047400028466A46082104F0F4FC0120BCBD38B50C46052C18BF132C05460AD0142C18BFD2
